:020000040800F2
:1000000050E50120310200087D4100081536000846
:100010007B410008DD0F00086D280108000000008A
:10002000000000000000000000000000990100082E
:100030009122000800000000DD01000851A601081F
:100040004B0200084B0200084B0200084B0200085C
:100050004B0200084B0200084B0200084B0200084C
:10006000A12400084B0200084B0200084B020008C4
:100070004B0200084B0200084B0200084B0200082C
:100080004B0200084B0200084B0200084B0200081C
:10009000BD1000084B0200084B020008C1240008F4
:1000A0004B0200084B0200084B0200084B020008FC
:1000B00061120108851201084B0200084B0200087A
:1000C0004B0200084B0200084B0200084B020008DC
:1000D0004B020008D9210108612201084B020008E7
:1000E0004B0200084B0200084B0200084B020008BC
:1000F0004B0200084B0200084B0200084B020008AC
:100100004B0200084B0200084B0200084B0200089B
:10011000D9200108412101084B0200084B020008C8
:100120004B0200084B0200084B0200084B0200087B
:100130004B0200084B0200084B0200084B0200086B
:10014000111200084B0200084B0200084B02000885
:100150004B0200084B0200084B020008E92201088C
:100160004B0200084B0200084B0200084B0200083B
:100170004B0200084B0200084B0200084B0200082B
:100180004B020008DFF80CD000F04CFD004800479F
:10019000C96B010850E50120224B19680868B0E8D6
:1001A000F00F80F30988BFF36F8F4FF0000080F3EA
:1001B00011884EF00D0E70470000000006480068E0
:1001C000006880F3088862B661B6BFF34F8FBFF353
:1001D0006F8F00DF00BF00BF08ED00E0EFF3098084
:1001E000BFF36F8F0F4B1A6820E9F00F106008B54E
:1001F0004FF0BF0080F31188BFF34F8FBFF36F8FB5
:1002000019F0DCFF4FF0000080F31188BDE80840D2
:1002100019680868B0E8F00F80F30988BFF36F8FA2
:10022000704700BF10030020EFF305807047000007
:100230000648804706480047FEE7FEE7FEE7FEE780
:10024000FEE7FEE7FEE7FEE7FEE7FEE71112010824
:10025000850100080048704704D20108A0F141015F
:10026000192900D8203070470649074A08685043CA
:1002700043F23902104408604008704701490860A1
:1002800070470000980500206D4EC64110B5431A16
:10029000934209D28318881803E010F8011D03F86F
:1002A000011D521EF9D210BD40EA01039B0703D085
:1002B00009E008C9121F08C0042AFAD203E011F8A5
:1002C000013B00F8013B521EF9D210BDD2B201E051
:1002D00000F8012B491EFBD270470022F6E710B54B
:1002E00013460A4604461946FFF7F0FF204610BDA4
:1002F00030B505462A460B4612F8010B13F8014BA0
:1003000008B1A042F8D01CB1002802D06D1CF1E762
:10031000284630BDCAB2401E10F8011F8A4202D0E2
:100320000029F9D100207047421C10F8011B002958
:10033000FBD1801A704710B5002200E0521C835C8C
:100340008C5CA34201D1002BF8D1D8B2E1B2401AA3
:1003500010BD30B504460020034600E05B1C93420C
:1003600003D2E05CCD5C401BF8D030BD034611F8F1
:10037000012B00F8012B002AF9D11846704730B53F
:1003800005460020034600E05B1C934205D2EC5C6E
:10039000C85C201A01D1002CF6D130BD0246C9B28A
:1003A00000E0401C0378002BFBD102E003788B4275
:1003B00003D0401E9042F9D20020704710B5484348
:1003C000044613F079F8002805D00021002C02D053
:1003D000641E0155FAE710BD2DE9F04791460F461E
:1003E00080460446002614F8015B2DB1FFF732FF6A
:1003F0000068405DC007F6D12B2D02D02D2D18D0FE
:10040000641E4A463946204600F010FB27B1396881
:10041000A14201D1C7F8008071054FF002040BD54D
:100420004042002803DD13F015F80460A007BDE882
:10043000F08746F48066E4E70028F8DA13F00AF85B
:1004400004606FF00040F2E770B5064613F002F862
:10045000046805460A2200213046FFF7BDFF2C60E4
:1004600070BD30B480EA010202F0004530F0004275
:1004700021F0004015D0A0B1C0F3C753C2F3C75458
:10048000C2F31601C0F31600E41A41F4000140F46F
:1004900000027D34914201D3641C00E04900002C2D
:1004A00002DA30BC002070474FF400000023914274
:1004B00001D3891A034340084FEA4101F7D151B1F2
:1004C000914202D14FF0004105E002D24FF001010C
:1004D00001E06FF0010103EBC450284430BC00F090
:1004E000F4BA2DE9FE4F804681EA0300C00F0C46A6
:1004F000009021F0004123F00045B8EB0200A94133
:1005000005D24046214690461C460B46024623F043
:100510000040104304D14046214603B0BDE8F08FAF
:10052000270DC7F30A00C3F30A510290401A019045
:10053000402866DAC3F3130040F4801B009892460B
:1005400020B10023D2EB030A63EB0B0B0198594651
:10055000C0F14002504600F02AFA06460D465046C9
:100560005946019A00F042FA10EB0800614100245C
:1005700087EA115284EAE7731A433BD0009A3AB3F0
:10058000019A012A4FEA075210DC001B61EB0201BD
:100590004FF0004202EA0752CDE90042001C41F54B
:1005A000801132462B4600F0D3FAB6E7001B61EB10
:1005B0000201001C41F5801300185B412018A2F5D0
:1005C000001747EB030140EAD570B6196D4111E001
:1005D0006D084FEA360645EAC0754FEA0752001B20
:1005E00061EB0201001C41F5801149084FEA30001F
:1005F0000019514132462B4603B0BDE8F04F00F0E0
:100600009ABA0098012240000023D0EB020263EB6B
:10061000E073009821464FEAE074B8EB000061EB0C
:100620000401E9E783F000435BE781F0004158E70C
:100630002DE9FE4F81EA030404F0004421F000415B
:1006400000944FF0000B23F0004350EA010402D065
:1006500052EA030404D10020014603B0BDE8F08F44
:10066000C3F30A54C1F30A552C44A4F2F3340194A1
:10067000A0FB0254C1F3130141F48011C3F313032F
:1006800043F4801301FB024400FB034E840A970AE3
:1006900044EA815447EA8357A4FB076802958D0A10
:1006A00005FB07854FEA932C04FB0C542705029D9C
:1006B0004FEA065847EA1637B5EB08056EEB070C0C
:1006C000870E920E47EA811742EA8312A7FB0201C6
:1006D000B6EB0B0164EB00042B0D43EA0C335E1800
:1006E00044EB1C50DA465146E7FB0201C5F3130404
:1006F0004FEA0B3343EA14534FEA0432019C43EAB6
:100700000603A4F10C040294009CCDE900B400F0AF
:100710001FFAA2E72DE9F04D81EA030404F0004B33
:1007200021F0004514464FF0000A23F0004150EA42
:10073000050220D054EA01021DD0C5F30A57024633
:10074000C5F31303C1F31300C1F30A5640F4801537
:1007500043F48013A7EB0608101BD64608F2FD38B9
:1007600073EB050002D308F1010801E092185B4128
:10077000B8F1000F03DA00200146BDE8F08D00203B
:100780004FF48011064684460EE0171B73EB0507F5
:1007900005D3121B63EB050306434CEA010C490821
:1007A0004FEA300092185B4150EA0107EDD152EA5E
:1007B000030012D082EA040083EA0501084303D152
:1007C00000224FF0004308E0101BAB4102D201228F
:1007D000002302E06FF0010253101AEB06004CEB0D
:1007E000085110EB0A0041EB0B01BDE8F04D00F0A1
:1007F000A2B996230022114600F070B90EB5C10FC0
:1008000080EAE0700844CA07002140F233438DE8D3
:100810000E000A460B4600F09BF903B000BD0EB572
:1008200040F2334102910021CDE900110A460B4606
:1008300000F08EF903B000BD20F00040C10DC0F300
:10084000160040F400007F2901DA00207047962945
:1008500003DCC1F19601C840704796398840704763
:1008600070B5C1F30A5201F000450024C1F3130131
:1008700040F2FF3341F480119A4201DA002070BD4A
:1008800040F233439A42A2F2334203DC524200F078
:100890009DF800E090402C43F1D0404270BDC1F380
:1008A0000A5210B5C1F3130140F2FF3341F4801135
:1008B0009A4201DA002010BD40F233439A42A2F27C
:1008C000334203DC524200F081F810BD904010BD6D
:1008D00030B5002904DB4FF00044404264EB0101D5
:1008E000002B04DB4FF00044524264EB03038B42C5
:1008F00008BF824230BD000030B5002904DB4FF054
:100900000044404264EB0101002B04DB4FF0004443
:10091000524264EB0303994208BF904230BD00008D
:1009200030B50B46014600202022012409E021FABF
:1009300002F59D4205D303FA02F5491B04FA02F5BC
:100940002844151EA2F10102F1DC30BD2DE9F05F53
:100950000546002092469B4688460646814640242E
:100960001BE0284641464746224600F02FF85346F2
:100970005A46C01A914110D311461846224600F03B
:1009800016F82D1A67EB01084F4622460120002178
:1009900000F00DF817EB00094E41201EA4F10104F0
:1009A000DFDC484631462A464346BDE8F09F202A10
:1009B00004DB203A00FA02F1002070479140C2F1B6
:1009C000200320FA03F3194390407047202A04DBE8
:1009D000203A21FA02F00021704721FA02F3D040B8
:1009E000C2F120029140084319467047202A06DBD5
:1009F000CB17203A41FA02F043EAE07306E041FAED
:100A000002F3D040C2F120029140084319467047DA
:100A10003A2800D2303820F02002412A01D3A2F136
:100A20003700884201D34FF0FF3070472DE9F05F67
:100A300082460078002715468B460AF10104B94624
:100A4000302801D09DB113E014F8010B012778285C
:100A500003D0582801D045B10AE00DB1102D07D1BF
:100A60000027102514F8010B02E0082500E00A25F4
:100A70000026B0460EE005FB080005FB06F1012745
:100A800001EB10461FFA80F8B6F5803F00D3B94657
:100A900014F8010B2946FFF7BBFF0028EBDABBF186
:100AA000000F05D00FB1641E00E05446CBF80040A3
:100AB000B9F1000F06D012F0CDFC02210160C81E72
:100AC000BDE8F09F48EA0640FAE70029A8BF704752
:100AD000401C490008BF20F00100704710B4B0FA74
:100AE00080FC00FA0CF050EA010404BF10BC70470F
:100AF00049B1CCF1200421FA04F411FA0CF118BF29
:100B0000012121430843A3EB0C01CB1D0106000A80
:100B1000002BBEBF002010BC704700EBC350104438
:100B20000029A4BF10BC7047401C490008BF20F03A
:100B3000010010BC704710B5002B08DA401C41F1D1
:100B4000000192185B411A4301D120F0010010BD51
:100B50002DE9F04D92469B4611B1B1FA81F202E0C7
:100B6000B0FA80F220329046FFF721FF04460F468C
:100B700040EA0A0041EA0B0153465A46084303D1B2
:100B800020463946BDE8F08D114653EA010015D0E4
:100B9000C8F140025046FFF719FF05460E46504681
:100BA00059464246FFF703FF084301D0012000E009
:100BB0000020054346EAE0762C4337430A984FEA83
:100BC0004453A0EB08004FEAD4240A304FF000024F
:100BD00044EA47544FEAD72502D500200146D1E721
:100BE000010510196941DDE9084500196941BDE8B1
:100BF000F04DA0E7C1F30A52C1F3130140F2FF33F5
:100C000041F480119A4202DA00200146704740F216
:100C100033439A42A2F2334202DC5242FFF7D6BE7D
:100C2000FFF7C5BE064C074D06E0E06840F0010343
:100C300094E8070098471034AC42F6D3FFF7A6FAC1
:100C400090D90108B0D9010870B501EB020410F881
:100C5000015B15F0070301D110F8013B2A1106D101
:100C600010F8012B03E010F8016B01F8016B5B1E1B
:100C7000F9D12B0705D40023521E0FD401F8013BF4
:100C8000FAE710F8013B02F10202A1EB030303E0D3
:100C900013F8015B01F8015B521EF9D5A142D6D3CE
:100CA000002070BDF0B599B0012135480AF090FDE3
:100CB00001210D0228460AF0AFFD02F0D5F83148B7
:100CC0000024CDE90040304802A9052651C1A80002
:100CD000CDE90540400007908000CDE908050AA94C
:100CE0000001012531C1294F0D94694638460E9403
:100CF00001F024F80121384601F016F815941694F5
:100D0000179415A8189400F04FF80F9411941394A9
:100D10001C4C8DF840504C3C8DF841508DF8506083
:100D20000FA9204600F07EF8002301221946204634
:100D300000F09EF8002302220121204600F098F8DE
:100D4000002303220221204600F092F8002304220F
:100D50000A21204600F08CF8002305220B212046B2
:100D600000F086F80121204600F03CF801212046E1
:100D700000F02EF80121204600F00CF819B0F0BD6B
:100D8000050040004C200140340100201064024066
:100D900000F03EB80029816802D041F0010101E075
:100DA00021F0010181607047074B10B51A680749AF
:100DB0000A40D0E900142143D0E902400443214312
:100DC0001143196010BD000004230140E030FCFF16
:100DD0000029816802D041F4807101E021F4807122
:100DE000816070470029816802D041F4007101E000
:100DF00021F4007181607047044931F8100048F611
:100E0000CC514843C0F30F3070470000340100203C
:100E100010B5FFF747FF024800F064F810BD00006E
:100E20000020014030B542680F4B0C791A400B6826
:100E300042EA04221343436082680C4B4D791A4006
:100E4000D1E9034323438C6844EA45042343134315
:100E50008360C26A097D22F47002491EC9B242EA67
:100E60000151C16230BD0000FFFEFFFCFDF7FFC075
:100E700070B5072409290AD9C568A1F10A0606EB4D
:100E80004606B440A543B3401D43C56007E005696D
:100E900001EB4106B440A543B3401D4305611F2348
:100EA000072A09D2446B521E02EB820293409C43F4
:100EB00091400C43446370BD0D2A09D2046BD21FCC
:100EC00002EB820293409C4391400C43046370BD4B
:100ED000C46A0D3A02EB820293409C4391400C435A
:100EE000C46270BD816841F080418160704700003C
:100EF0002DE9F0472E4FDFF8BCA02F4D38782F4C4E
:100F0000C0074FF000064FF0010935D0288860BBBC
:100F10002B4802F08DF8DFF8AC801C2807D1284858
:100F2000D8F80410C01E88470F2019F0C7F8D8F869
:100F30000410254888473878800705D584F8009044
:100F400000200AF04BFD78B3BAF8000028801F4853
:100F50000078032803D0042801D00F2003E01C48A8
:100F60000078010602D419F0A9F805E000F07F002E
:100F70006421484310F0BCFB16480078C1070FD02D
:100F8000698869B9800705D584F8009001200AF0C6
:100F900025FD48B1BAF8020068800F2019F08EF8DC
:100FA00026700120BDE8F087FFE726700020F9E7F2
:100FB0002400002020000020160000204600002011
:100FC000B31F00206C1F0020C72200202700002034
:100FD0003E0000202500002070477047FEE700001B
:100FE0002DE9F04F8A4681468BB09B469046012101
:100FF00008200AF0EDFB2F4F09220021384601F0AE
:10100000A0FF09220121384601F09BFF02208DF844
:1010100020008DF82100002403268DF822400125B0
:1010200007968DF8235007A9384601F039FF1420A0
:101030008DF824008DF825608DF826608DF82750F6
:1010400009A803F0D5F81C4E304600F021F9684697
:1010500000F051FA8DF806408DF807408DF80240F7
:101060008DF803908DF804A002948DF80580ADF8FA
:1010700000B06946304600F08BF98DF816408DF8C7
:1010800017408DF81850ADF80C40ADF81040ADF891
:101090000E40ADF81240ADF814408DF8195003A879
:1010A00000F00CF901220221304600F069F90BB082
:1010B000BDE8F08F000C02400064004030B51348DA
:1010C00085B00068124D10F4014F06D000220221B5
:1010D000284600F055F905B030BD0E4C207858B1C7
:1010E0000121FC2011F05CF80020207001466A46C6
:1010F000284600F0C1F9EEE76A460021284600F0D4
:10110000BBF9694604480AF026FBE4E7186400408E
:10111000006400405C000020508600202DE9F04F64
:101120008A4681464FF0C0668BB09B4690460121AF
:1011300030460AF059FB012102200AF049FB324FE8
:1011400009220C21384601F0FCFE09220D21384607
:1011500001F0F7FE7013079002208DF820008DF843
:10116000210000248DF8224001258DF8235007A985
:10117000384601F095FE012130460AF035FB234E3A
:10118000304600F085F8684600F0B5F940208DF84B
:1011900024008DF8064004218DF807408DF80240A8
:1011A0008DF825108DF803908DF804A08DF8261089
:1011B00002948DF80580ADF800B08DF8275009A88D
:1011C00003F016F86946304600F0E2F80E208DF87C
:1011D00016008DF817408DF81850ADF80C40ADF89A
:1011E0001040ADF80E40ADF81240ADF814408DF847
:1011F000195003A800F062F801220221304600F0E5
:10120000BFF80BB0BDE8F08F00040240006800405A
:1012100030B5134885B00068124D10F4014F06D068
:1012200000220221284600F0ABF805B030BD0E4C7C
:10123000207858B10121FC2010F0B2FF002020706E
:1012400001466A46284600F017F9EEE76A46002193
:10125000284600F011F9694604480AF07CFAE4E7F0
:1012600018680040006800405C0000206890002082
:101270002DE9F0411C4615460E460746FFF7B0FE25
:1012800023462A4631463846BDE8F041FFF746BFBF
:10129000094910B588424FF0010101D14C0601E027
:1012A0004FF0806420460AF0ABFA2046BDE81040BB
:1012B00000210AF0A5BA000000640040F0B5827A6F
:1012C000012191402D4A136843F0010313602B4B19
:1012D0001C331C688C431C60284C284D077B0C3445
:1012E00040352E1DA7B927688F4327604788B0F87F
:1012F00006C047EA0C4790F80AC045F83C700788DA
:10130000B0F804C047EA0C4790F80AC046F83C70B1
:10131000077B012F0ED127680F4327600468877A67
:101320004FEA344445F837404468857A4FEA3444FC
:1013300046F83540114CC57A241D002D256806D08D
:101340000D4325600D4C0589143415B104E08D431F
:10135000F7E725688D4325600589012D02D12568B1
:101360000D432560407B012802D1186808431860AE
:10137000106820F001001060F0BD00000066004021
:10138000002A426901D00A4300E08A434261704763
:1013900010B50368002223F002030360036843F0E2
:1013A000010303604FF6FF7300E0521C4468E4073A
:1013B00001D19A42F9D14268D2073ED08A79012AF6
:1013C00002683CD022F080020260CA79012A0268D9
:1013D00038D022F0400202600A7A012A026834D032
:1013E00022F0200202604A7A012A026830D022F0FC
:1013F000100202608A7A012A02682CD022F00802C8
:101400000260CA7A012A026828D022F0040202602F
:101410008A78CC78920742EA04620C7942EA044264
:101420004C79098842EA0452491E0A43C2610168A4
:1014300021F001010160002114E0002010BD42F004
:101440008002C1E742F04002C5E742F02002C9E74E
:1014500042F01002CDE742F00802D1E742F0040268
:10146000D5E7491C4268D20701D09942F9D14068BA
:10147000C007E2D1012010BD10B500EB0113D3F875
:10148000B04114F004041472D3F8B0412BD0E40836
:10149000C2F8044003F5D8731C6804F002045472C7
:1014A0005C6804F00F0494725C68240AD4749C682D
:1014B000D4729C68240A14739C68240C54739C682E
:1014C000240E9473DC68D473DC68240A1474DC681A
:1014D000240C5474DB681B0E937439B1016941F01C
:1014E0002001016110BD640D1460D3E7C16841F0B3
:1014F0002001C16010BD00218171C1710172417272
:101500008172C1728170C170032101710221417128
:1015100001210180704730B50246002093685B01CD
:1015200008D49068000101D5012003E09068C00054
:1015300031D5022002EB0012D2F8803103F0010312
:10154000C2F880310B7A43B3D2F880414D681C4316
:101550004B7A43EAC5031C43C2F880418B7A02F5FB
:10156000C07203F00F038B72536823F00F035360B4
:1015700053688C7A23435360CB7ACC6843EA0423C4
:101580009360CB7B096943EA0121D160116841F086
:101590000101116030BD042030BDD2F880314C7A99
:1015A00023430C8843EA4453C2F88031D6E7000055
:1015B0002DE9F041DFF8B880002588B0B8F868312F
:1015C0000E461C0A012C01D10826DFB2002305AC0F
:1015D00006E000BF10F801CB04F803C05B1C9BB20F
:1015E0008B42F7D302E06754491CC9B2B142FAD327
:1015F0000020002A06DBC2F30E01CDE900108DF8B1
:10160000080006E022F06041CDE9000104218DF8D8
:1016100008108DF809008DF80A600020694604E082
:10162000225C0B18401CDA72C0B29DF80A2082427C
:10163000F6D8104E104F114C98F84400062810D0E0
:101640000E280ED00C280CD00D280AD0694638463A
:10165000FFF761FF6D1C042806D0012008B0BDE82B
:10166000F08169463046F3E7A542E5D30020F5E76F
:10167000E41D00200068004000640040FEFF0F00F1
:101680002DE9FF5F0D460024834622460221FFF725
:1016900077FEE806A046314E4FF00107454625D5B6
:1016A00041F6FF794FF6FF7A56F824008DF80A507C
:1016B000C00040F00400010CADF80010641C8DF86F
:1016C0000B808DF80C70ADF80200ADF80490A4B258
:1016D000ADF806A0ADF808808DF80D706846FFF7EC
:1016E000EDFD6D1CADB20E2DDED330E036F82400DA
:1016F000641C4205A0B236F82010401C4B0581B294
:1017000056F82100491C42EA40108AB256F82210CD
:101710008DF80A5043EA4111030CADF80030ADF8E2
:101720000200080CADF80400521C8DF80B708DF807
:101730000C8094B2ADF80610ADF808808DF80D70ED
:101740006846FFF7BBFD6D1CADB20E2DCED3012256
:1017500002215846FFF714FEBDE8FF9F647B00207E
:101760002DE9F04F83464E48DFF838A199B0D0E913
:101770005C7614460D465246382101A8FEF7A6FDB8
:101780000A2C06D90221F32010F00AFD19B0BDE899
:10179000F08FFAB2F7B2002001AE10E0AB7895F806
:1017A00001C043F0180329781B0603EB0C4303EB3D
:1017B00001211144ED1C46F82010401C80B2A042CB
:1017C000ECD30025A8464FF0010925E056F8250086
:1017D00047F0E051C0006FEAC10240F004014FEA57
:1017E000114CADF840C042F00400ADF842106D1C41
:1017F000010C8DF84A50ADF844108DF84B808DF8EF
:101800004C90ADF84600ADF848808DF84D9010A88A
:10181000FFF754FD6D1CADB2A542D7D3224846F860
:1018200025006D1CA8B2214946F82010401C80B24A
:101830001F4946F82010401C80B2251D46F820A004
:1018400026E000BF56F824001A49C00040F004000A
:1018500039434FEA104C6FEAC101ADF840C041F086
:101860000401ADF84200641C080C8DF84A40ADF844
:1018700044008DF84B808DF84C90ADF84610ADF8D3
:1018800048808DF84D9010A8FFF718FD641CA4B295
:10189000AC42D7D3012202215846FFF771FD75E70C
:1018A000E41D002000FFEC9800FFE89800FFEA9894
:1018B00000FFEB9800FF001CFEB50F460646FFF741
:1018C000E7FC6846FFF717FE00208DF8060007F0DA
:1018D000E0018DF807000290202904D0402902D0B1
:1018E000802903D101E0012000E002208DF80200F0
:1018F0001148124A0021006801EB410352F82330DD
:10190000834206D101EB410002EB8000D0E90145A2
:1019100002E0491C1929EFD3200A8DF80400200C9D
:101920008DF803408DF80500ADF80050694630464B
:10193000FFF72EFDFEBD0000E41D002084AE01086F
:101940002DE9FF47384E0F468146D6E95C45002217
:101950000221FFF715FDDFF8D480F80607D5E9432B
:10196000E000CA0040F0040142F0040003E0E84354
:10197000610548EA40502E4B0024994502D18DF86C
:101980000A4002E00E228DF80A200A0CADF8002071
:10199000ADF80210010C0125ADF804108DF80B40D4
:1019A0008DF80C50ADF80600ADF808408DF80D50DC
:1019B0006846FFF783FC012202214846FFF7E0FC5E
:1019C000F8072ED0D6E95E01FA0607D5C943C00054
:1019D000CA0040F0040142F0040003E0CA4341059C
:1019E00048EA42509DF80A208DF80C50521C8DF8A0
:1019F0000A200A0CADF80020ADF80210010CADF879
:101A000004108DF80B40ADF80600ADF808408DF8D5
:101A10000D506846FFF752FC012202214846FFF7AD
:101A2000AFFCBDE8FF870000E41D0020F8FF0100C7
:101A3000006400402DE9FF4122A306240FCB8DE86E
:101A40000F000021012017F0CFFF224E00256F4626
:101A50004FF06408785D01460EF0BEFB002009F0EF
:101A60003DFF052018F02AFB012009F037FF052073
:101A700018F024FB002009F031FFB0FBF8F03055DE
:101A8000641C6D1CEDB2E4B20D2DE3D33079401F20
:101A9000062813D2DFE800F003030303090901F06D
:101AA000DDF901218143717101E0FF207071A41EF5
:101AB0007470084810F064FEBDE8FF8101F0CEF9B3
:101AC000F4E70000010203060708090A0B0C0D0EDB
:101AD0000F0000005225002070B50A48002514466A
:101AE000056009F00DFF204611F016FA0648642142
:101AF00005700648FEF7F1FBBDE87040642104481C
:101B0000FEF7EBBB3800002024000020C722002095
:101B1000B01F00201046024A0121117005F014BDCB
:101B20004700002010B5144608B90B48416809B1B8
:101B30001046884709480078400705D408480949F5
:101B400002880A8040884880E27900210648F12A0C
:101B500000D10170017010BD6C1F00202400002016
:101B600020000020160000206000002010B5144660
:101B7000104607F089FEA078BDE81040012110F062
:101B80000FBB000070B5164608B91048046810492C
:101B900000250878012802D10D7007F0A1FE0CB1D4
:101BA0003046A0470B480178C90708D00A480B49BE
:101BB00002880A80408848800948057070BD057019
:101BC00064210848FEF789FBF6E700006C1F00203F
:101BD00050000020240000202000002016000020DB
:101BE00060000020C722002003491046C968002970
:101BF00000D00847704700006C1F002010B5D41CAF
:101C0000D17804A016F0F8FA2178084801B14168AB
:101C1000816110BD674B656570616C776179734652
:101C20006C61673D3D253032780000006C1F00205C
:101C300010B590781446402804D1E01C01F0F8F962
:101C40001C2814D0207861784218D21C21460D48F7
:101C5000FEF71CFB0B48817801F00F0141F03001C9
:101C60008170A0780021BDE8104010F099BA20786A
:101C700061784218D21C21460348FEF707FBA07882
:101C80000121F0E7C7220020B01F00202DE9F0411C
:101C900009F036FE01200AF09DF9C82018F00EFA6E
:101CA000022009F01BFE1F4D0020042428706870DC
:101CB000FC20A8700620E870FFF78EF901264FF08F
:101CC0000A086427B6FBF8F108FB116000EB01106D
:101CD000C0B20AF07FF9032018F0F0F9022009F0F1
:101CE000FDFD192E12D064207043B0FBF7F028558B
:101CF000641C761CA4B2642EE4D9A41E200A2870A9
:101D00006C70BDE8F041074810F03ABDB0FBF7F049
:101D10001638072803D219202855641CA4B21A26A5
:101D2000D0E70000522500200029016802D041F0D0
:101D3000010101E021F001010160704730B5036845
:101D4000124ACC6813400A682243D1E905452C4366
:101D50002243CC6922430C6A22434C6A22438C6A98
:101D600022434C6B22438C6B22431A43026042692C
:101D700022F00703D1E90B2422431A4342610A6986
:101D800042604A6882608968C16030BD3F801CF053
:101D900030B5A1B0044680216846FEF79EFA12F0E5
:101DA000EFF805007DD0204612F0F2F80246C9A1F6
:101DB000284612F0BBF880216846FEF78EFAA27F13
:101DC000C7A1684611F020FB684612F0E1F8024610
:101DD000C5A1284612F0AAF804F11F0012F0D8F8A5
:101DE0000246C3A1284612F0A1F880216846FEF7FA
:101DF00074FAD4E90E23C2A1684611F005FB6846C7
:101E000012F0C6F80246C0A1284612F08FF88021D1
:101E10006846FEF762FAD4E91023B9A1684611F0CA
:101E2000F3FA684612F0B4F80246BAA1284612F056
:101E30007DF880216846FEF750FAB8A16846A26C8A
:101E400011F0E2FA684612F0A3F80246B4A128465F
:101E500012F06CF880216846FEF73FFAD4E91423AB
:101E6000A7A1684611F0D0FA684612F091F8024630
:101E7000AEA1284612F05AF880216846FEF72DFAE6
:101E8000D4E916239EA1684611F0BEFA684612F006
:101E90007FF80246A8A1284612F048F8802168463B
:101EA00000E014E1FEF719FA9CA16846226E11F0D9
:101EB000ABFA684612F06CF80246A3A1284612F06D
:101EC00035F880216846FEF708FAD4E91A238CA178
:101ED000684611F099FA684612F05AF802469EA137
:101EE000284612F023F880216846FEF7F6F9D4E977
:101EF0001C2383A1684611F087FA684612F048F85F
:101F0000024698A1284612F011F880216846FEF793
:101F1000E4F9D4E91E237AA1684611F075FA6846FF
:101F200012F036F8024693A1284611F0FFFF04F1A3
:101F3000800012F02DF8024692A1284611F0F6FF1B
:101F400080216846FEF7C9F990346DA1D4E90023D9
:101F5000684611F059FA684612F01AF802468DA147
:101F6000284611F0E3FF80216846FEF7B6F9D4E970
:101F7000022363A1684611F047FA684612F008F898
:101F8000024688A1284611F0D1FF80216846FEF75D
:101F9000A4F9D4E904235AA1684611F035FA684639
:101FA00011F0F6FF024684A1284611F0BFFF802100
:101FB0006846FEF792F9D4E9062351A1684611F06C
:101FC00023FA684611F0E4FF02467EA1284611F08C
:101FD000ADFF80216846FEF780F9D4E9082348A1C7
:101FE000684611F011FA684611F0D2FF02467AA154
:101FF000284611F09BFF80216846FEF76EF9D4E970
:102000000A233FA1684611F0FFF9684611F0C0FFAE
:10201000024676A1284611F089FF80216846FEF726
:102020005CF9226B903C3DA1684611F0EDF96846E1
:1020300011F0AEFF024673A1284611F077FF04F1BC
:10204000C40011F0A5FF024670A1284611F06EFFF2
:1020500004F1E20011F09CFF024670A1284611F045
:1020600065FF04F5807011F093FF02466EA12846CB
:1020700011F05CFFD4F80401FEF7C0FB11F06EFF15
:1020800002466CA1284611F051FF04F5847011F04E
:102090007FFF02466AA1284611F048FF04F58E70C2
:1020A00011F076FF024667A1284611F03FFF04F5C4
:1020B000987011F06DFF024663A1284611F036FFBB
:1020C000284611F0AFFF014661A011F079F921B067
:1020D000284630BD6372656174655F74696D650023
:1020E0003030302563000000736F75726365000047
:1020F0006465766963655F636F64696E670000009D
:10210000252E3266000000006B696C6F6D6574727D
:10211000657300007370656564000000256400004D
:102120006D61785F746F7271756500006F75745FB3
:10213000746F7271756500006672696374696F6EA1
:102140005F746F7271756500656E67696E655F7348
:102150007065656400000000656E67696E655F66A6
:102160006C6F77007075745F74656D706572617403
:10217000757265006F75745F74656D7065726174FA
:102180007572650070726573737572655F646966F8
:1021900066000000696E74616B655F766F6C756DCB
:1021A000650000007265616374616E745F737572BF
:1021B000706C75730000000074616E6B5F6C657607
:1021C000656C0000636F6F6C616E745F74656D7039
:1021D00065726174757265006675656C5F636F6EBC
:1021E00073756D7074696F6E000000006675656CC4
:1021F0005F696E6A656374696F6E5F7175616E7435
:1022000069747900766F6C7461676500656E6769E3
:102210006E655F737461727400000000656E6769BB
:102220006E655F73746F70006661756C745F636F69
:1022300064650000706F735F737461747573000080
:102240006C6E67006C61740076696E5F736E00007F
:1022500025730D0A0000000000F094FE08F056FF00
:10226000054906A011F0ACF847F2305417F09AF97E
:10227000204617F023FFF9E7D3CC010868616861B5
:102280006861686168612C205B25735D0D0A000040
:10229000704710B50C4600F0E1FDA04203D000F0FD
:1022A000DDFDA04201D1012010BD002010BD70470E
:1022B000010605D500F07F00642148430FF018BAED
:1022C00017F0FCBE0B4910B5C98A00244FF47A7090
:1022D00001B108460021FFF7EAFF002808D00020DE
:1022E000401CC0B20428FBD3034AE008012111704E
:1022F00010BD0000E41D00202C00002030B5A1B06E
:10230000044680216846FDF7E8FF11F039FE05001C
:1023100043D0204611F03CFE024621A1284611F090
:1023200005FE80216846FDF7D8FFA27F1FA1684601
:1023300011F06AF8684611F02BFE02461DA12846EE
:1023400011F0F4FD04F11F0011F022FE02461BA162
:10235000284611F0EBFD80216846FDF7BEFF94F89A
:1023600033201AA1684611F04FF8684611F010FEAC
:10237000024618A1284611F0D9FD04F1340011F0ED
:1023800007FE024615A1284611F0D0FD284611F09F
:1023900049FE014613A011F013F821B0284630BDC4
:1023A0006372656174655F74696D650030303025F6
:1023B00063000000736F7572636500006465766981
:1023C00063655F636F64696E670000002530346386
:1023D00000000000747970650000000076696E5F8F
:1023E000736E000025730D0A0000000070B52B4CC1
:1023F0000020FC21207006206070A170E0700DF0BC
:10240000DFFFC82017F05AFE0C2001F0BBF80A20AD
:1024100017F054FE0C2001F0B5F86425B0FBF5F080
:10242000207105200DF0CCFFC82017F047FE0820D2
:1024300001F0A8F80A2017F041FE082001F0A2F8E8
:10244000B0FBF5F0607107200DF0BAFFC82017F05F
:1024500035FE052001F096F8142017F02FFE052018
:1024600001F090F80A2017F029FE052001F08AF803
:10247000B0FBF5F0A071052009F030FA0A2017F042
:102480001DFE052009F02AFA40F24C41B0FBF1F0A4
:10249000E0712046BDE8704010F072B9522500206E
:1024A00010B5042000F0CEF8002808D0002108461E
:1024B00002F004FBBDE81040042000F0BDB810BDE0
:1024C00010B5802000F0BEF8002808D00021084692
:1024D00002F026FBBDE81040802000F0ADB810BD32
:1024E00030B585B00121082009F072F90121880377
:1024F00009F092F900248DF8104004258DF813405E
:1025000003A91148039500F0CBFC0221032009F038
:102510001FFD00958DF8044008258DF80550012415
:102520008DF80640684600F09DF88DF808500F20A1
:102530008DF809008DF80A008DF80B4002A801F013
:1025400057FE05B030BD0000000C02401CB5042051
:10255000009000208DF8040008218DF805108DF8FA
:102560000600684600F07EF81CBD1CB504200090F3
:1025700000208DF8040008208DF8050001208DF85A
:102580000600684600F06EF81CBD000030B585B04E
:102590000121042009F01CF90121880309F03CF90C
:1025A00000248DF8104080258DF8134003A91148B0
:1025B000039500F075FC0721022009F0C9FC8DF895
:1025C000044008208DF80500012400958DF8064090
:1025D000684600F047F817208DF808000F208DF8A6
:1025E00009008DF80A008DF80B4002A801F000FEEA
:1025F00005B030BD000802401CB5802000900020CE
:102600008DF8040008218DF805108DF80600684645
:1026100000F028F81CBD1CB58020009000208DF82B
:10262000040008208DF8050001208DF8060068469A
:1026300000F018F81CBD0000014908607047000058
:10264000143C0140064A014600201268044B0A402F
:1026500014331B680B4202D0002A00D001207047BF
:10266000003C014030B51A498379026853B30B68C6
:1026700093430B600A1D13680468A3431360027937
:102680000A441368046823431360114A083213682C
:102690000468A3431360131D1C680568AC431C60E9
:1026A0004479102C05D021440A68006802430A606E
:1026B00030BD116804682143116019680068014346
:1026C000196030BD0079084401689143016030BD54
:1026D000003C01402DE9F041ECB005469846144617
:1026E000802141A8729FFDF7F8FD4FF480763146B6
:1026F00001A8FDF7F2FD2C2161A8FDF7EEFD2E49A2
:102700002EA010F05DFE2C2161A8FDF7E6FD284605
:10271000FDF70AFE014661AA284616F09DFD61A854
:10272000FDF702FE024661A929A010F049FE8021B2
:1027300041A8FDF7D2FD61A8FDF7F6FD024641A9CB
:1027400061A817F0D1FD41A927A010F039FE2BA1F7
:10275000204615F0FBF905462DA1204615F0F6F9A7
:10276000044641A8FDF7E0FD41A908442B46224656
:102770002BA110F049FE41A92BA010F021FE3146FB
:1027800001A8FDF7AAFD0C4841AB423800903A463B
:102790002AA101A810F038FE01A8FDF7C5FD0246E8
:1027A00001A94046FDF772FD01A929A010F008FE1D
:1027B0006CB0BDE8F08100002ED101080D0A7765EC
:1027C0006C636F6D6520746F205B25735D0D0A006F
:1027D0007368613120737472696E673A2025732CB7
:1027E0002025640D0A0000004D4435207374726981
:1027F0006E673A2025730D0A000000006170695F62
:1028000072616E646F6D5F6E756D6265720000005F
:102810006170695F74696D655F7374616D700000EC
:102820005F25735F257300007369676E2073747290
:10283000696E673A2025730D0A00000025733F7307
:1028400069676E3D25732661707069643D2573006C
:1028500055524C20737472696E673A2025730D0AC5
:10286000000000002DE9F04FADF61C0D0C460546AA
:10287000934614210DF60800FDF72FFD4FF4806AF2
:102880005646514602A8FDF728FD31460DF58160F8
:10289000FDF723FD0DF108089A499BA010F090FD6B
:1028A0005CB1012C12D0022C1AD0032C22D0042CA3
:1028B0002AD09CA010F084FD9FE00727A14C284659
:1028C000FFF71CFD0600F7D09FA026E09D4C0827CF
:1028D0001C34284610F032F90600EDD0A7A01CE009
:1028E000984C0F273C34284610F006F80600E3D039
:1028F000AFA012E0934C1D2778342846FFF748FA22
:1029000006007AD0B8A008E08E4C0627EC342846A2
:1029100010F09AF9060070D0C1A010F051FD00F03F
:10292000E5FBCC4DA9796879CDE900012B79EA78EE
:10293000A978288814F004FC8146FDF79FFC5146D5
:1029400002A8FDF7CAFCFDF78FFCC34990FBF1F22A
:1029500001FB1202C1A102A810F056FD02A811F05D
:1029600017FB0246BEA1304611F0E0FA514602A81C
:10297000FDF7B3FC4A46BFA102A810F045FD02A82E
:1029800011F006FB0246BCA1304611F0CFFA3046EA
:1029900011F048FB0146BCA010F012FD394620465C
:1029A00012F050F814210DF60800FDF796FC00F027
:1029B0009DFBA9796879CDE900012B79EA78A9789E
:1029C000288814F0BDFB05460146B1A010F0F8FCC4
:1029D0002A46A8A10DF6080010F016FD0DF6080015
:1029E00011F0D6FA0246A4A1304611F03EFB514642
:1029F00002A8FDF772FC002515E001200DF61C0D64
:102A0000BDE8F08F54F82510304615F09FF80346C6
:102A100054F82520A4A1404610F0F6FC4046FDF7EE
:102A200083FC80446D1CBD42ECDB554651460DF5E0
:102A30008160FDF752FC334A02AB313A9CA10DF59F
:102A4000816010F0E1FC0DF58160FDF76DFC014641
:102A50009AA010F0B5FC0DF581619FA010F0B0FCBC
:102A6000294602A8FDF739FC0DF58160FDF75CFCF5
:102A7000014602AB32460DF58160CDF800B0FFF79C
:102A800029FE29460DF58160FDF727FC0DF58168CB
:102A90000025A7F101091CE054F825104D453046EA
:102AA00009D115F053F8034654F825208FA140466C
:102AB00010F0AAFC0FE015F049F8034654F8252061
:102AC0008CA1404610F0A0FC4046FDF72DFC804450
:102AD0006D1CBD42E0DB0DF5816188A010F070FC3B
:102AE000304611F063FA0DF5816102A808F0F4FC9C
:102AF000041E04DD86A010F063FC20467EE7002063
:102B00007CE700003ED1010877656C636F6D65203E
:102B1000746F205B25735D2C686168616868610D66
:102B20000A000000696E76616C6964206F706572DE
:102B30006174696F6E2C68612068612068610D0A9C
:102B400000000000440400204465766963655F73FB
:102B50007461747573207061636B20746F206A7385
:102B60006F6E207375636365737366756C6C792C17
:102B700068612068612068610D0A00005665686917
:102B8000636C655F6C6F67696E207061636B207446
:102B90006F206A736F6E20737563636573736675F8
:102BA0006C6C792C68612068612068610D0A0000F6
:102BB00056656869636C655F646961676E6F7369A8
:102BC00073207061636B20746F206A736F6E207363
:102BD00075636365737366756C6C792C68612068C6
:102BE000612068610D0A0000446174615F636F6C6D
:102BF0006C656374696F6E207061636B20746F2005
:102C00006A736F6E207375636365737366756C6C3E
:102C1000792C68612068612068610D0A000000005D
:102C200056656869636C655F6C6F676F757420705B
:102C300061636B20746F206A736F6E2073756363BA
:102C400065737366756C6C792C68612068612068A7
:102C5000610D0A0034040020A086010025640000F4
:102C60006170695F72616E646F6D5F6E756D6265D4
:102C700072000000256C64006170695F74696D65A5
:102C80005F7374616D70000025730D0A0000000011
:102C900066696E616C2074696D65207374616D7016
:102CA0003A20256C640D0A002625733D257300002B
:102CB0007365637265743D2573257300737472695F
:102CC0006E6720746F74616C206C656E6774683A0F
:102CD0002025640D0A00000066696E616C20737423
:102CE00072696E673A2025730D0A000025733D2531
:102CF0007300000025733D2573260000706F737408
:102D000020636F6E746578743A2025730D0A000095
:102D1000504F535420656E6372797074696F6E20E2
:102D200055524C206661696C6564210D0A000000F3
:102D300010B5ADF5825D4FF48050009001AB0022DC
:102D4000072107A012F07CF80400014601D005A07D
:102D500000E00CA010F034FB0DF5825D204610BDA4
:102D60000000000046696C65466F726D61742065F5
:102D700072726F7220726573756C743D25640D0AF2
:102D80000000000046696C65466F726D61742073C7
:102D900075636365737320726573756C743D256428
:102DA0000D0A000010B5012206A1074812F004FB2D
:102DB0000400014601D005A000E00AA010F000FBCD
:102DC000204610BD00000000AC0500206D6F756E40
:102DD00074206572726F7220726573756C743D2514
:102DE000640D0A006D6F756E74207375636365738F
:102DF0007320726573756C743D25640D0A000000C4
:102E000010B5012206A1002012F0D6FA04000146F6
:102E100001D004A000E00AA010F0D2FA204610BDB4
:102E200000000000756E6D6F756E74206572726FB4
:102E30007220726573756C743D25640D0A00000084
:102E4000756E6D6F756E7420737563636573732033
:102E5000726573756C743D25640D0A00012101488B
:102E600000F07FB8000402407CB503248DF80440D4
:102E7000002500948DF807506946074800F010F8C7
:102E8000072000908DF804408DF8075069460348EC
:102E900000F006F87CBD000000080240000002407F
:102EA000F0B50023012403270D6804FA03F215404E
:102EB000954242D1D0F800C05E0007FA06F52CEA30
:102EC000050CC0F800C091F804C0D0F800E00CFA7E
:102ED00006FC4CEA0E0CC0F800C091F804C0BCF12E
:102EE000010F02D0BCF1020F1FD1D0F808C02CEAAC
:102EF000050CC0F808C091F805C0D0F808E00CFA3D
:102F000006FC4CEA0E0CC0F808C0D0F804C02CEA4D
:102F1000020CC0F804C0426891F806C00CFA03FC29
:102F20001FFA8CFC42EA0C024260C268AA43C260EB
:102F3000CA79C568B2402A43C2605B1C102BB3D368
:102F4000F0BD4B07DB0E9A40C90810B500EB8100BD
:102F5000016A0F249C40A1430162016A114301628E
:102F600010BD0246002012690A4200D001207047BD
:102F700041837047018370470AB1018370474183E1
:102F8000704700002DE9FC410121022008F020FCDF
:102F900001248DF80440002602258DF80660DFF834
:102FA0007C808DF8074000958DF8055069464046B5
:102FB000FFF776FF0121102008F00AFC8DF804408D
:102FC0008DF8066027038DF80740154C00978DF8A3
:102FD000055069462046FFF763FF02214046FFF790
:102FE000C9FFC82017F06AF839462046FFF7C0FF2E
:102FF000C82017F063F839462046FFF7BBFF40F2C0
:10300000DC5017F05BF839462046FFF7B1FF054961
:1030100005A010F0D5F9BDE8FC81000000040240D5
:1030200000100240E4AC01082573206F6B0D0A000C
:10303000C178027801EB026142788078120402EBD9
:1030400000200844704770B500252C4641F28836B0
:1030500064200EF04DFB00F03DF8012807D0641C01
:10306000E4B2052C07D8B542F2D9002070BD002487
:103070006D1CADB2F7E7012070BD000070B5134DB7
:10308000C0B0002028706870F022AA700121E97099
:1030900028716871A871E9716E4629720924282285
:1030A0000B493046FDF7F2F80020315C2955641CCD
:1030B000401C80B2A4B22828F7D3A41E200A28708E
:1030C0006C7002480FF05CFB40B070BD52250020D0
:1030D0002A2500200348044900780978084300D0D5
:1030E00001207047090100200801002030B5A5B07B
:1030F000802104A8FDF7F1F805234FF4FA6229A115
:103100002AA015F059FF012802D02BA010F058F981
:103110002FA13048FDF7ECF804003FD02CA1601C33
:10312000FDF7E6F8050037D0802104A8FDF7D5F8B3
:10313000294800212A1B41608160611C04A8FDF719
:10314000A5F804A8FDF7F0F8014604A814F010FD56
:1031500021480821001D0FF0A3FA1F4C0C342079E0
:10316000A27961798DE80700E378A27821881BA015
:1031700010F026F9174880218030FDF7AEF8E0788E
:10318000A379627921798DE80F001248A37822880B
:103190001FA1803010F038F925B030BD24A010F008
:1031A0000FF9F9E74F4B0D0A0000000041542B4383
:1031B000434C4B3F0D0A000041542B43434C4B3FC3
:1031C0002073656E64206661696C65640D0A000099
:1031D0002200000035E4002030040020CFD6D4DAED
:1031E000CAC7B1B1BEA9CAB1BCE43A202530326425
:1031F000C4EA25303264D4C225303264C8D52C25C7
:103200003032643A253032643A253032640A0000A4
:10321000253034642D253032642D2530326420254C
:103220003032643A253032643A253032640000008E
:103230007061727365206661696C65640D0A0000D7
:103240002DE9F047DFF86C808A46074600244FF4EA
:103250007A790026354604214046FFF782FE012890
:1032600001D1761CF6B264200EF042FA6D1CADB2AC
:10327000052DF0D3052E03D0641CA4B24C45E8D331
:103280004C4502D90020BDE8F08700240A4EAAF17F
:10329000010506E0D6E903017F1C13F0D9FA641C8E
:1032A000A4B23A78AC42F5DBD6E9030113F0D0FAC8
:1032B0000120E8E7000C0240080100202DE9F0475A
:1032C000DFF870808A46074600244FF47A7900269A
:1032D000354680214046FFF744FE012801D1761C87
:1032E000F6B264200EF004FA6D1CADB2052DF0D3D9
:1032F000052E03D0641CA4B24C45E8D34C4502D93A
:103300000020BDE8F0870EF089FA00240A4EAAF1E9
:10331000010506E0D6E905017F1C13F025FB641CBE
:10332000A4B23A78AC42F5DBD6E9050113F01CFBF8
:103330000120E6E7000802400801002070B50C4CAF
:103340000025607830B165700A480FF0BFF80AA018
:1033500014F054FF2078002808D025700D480FF095
:10336000B5F8BDE8704004A014F048BF70BD00007F
:1033700008010020942E002048414C5F4D494E49E1
:103380005643495F554152545F436C6561720D0A63
:10339000000000007C260020F8B50D462E490206EC
:1033A0000AD5D1F84C210523B3EB124F04D100F01C
:1033B0007F006421484317E0284A0B680026B2FBCF
:1033C000F3F103FB11226423B1FBF3F1244C084415
:1033D00022B1401C0004000C0AD002E00004000CE2
:1033E00002D00EF048F92FE0294600F03FF8F8BD72
:1033F00072B669461B480FF077F838B1009828700C
:1034000062B6207870B1401E20700BE06946164805
:103410000FF06AF840B10098287062B6607808B181
:10342000401E60700120F8BD62B611E072B66946B8
:103430000C480FF059F80028E0D169460A480FF00F
:1034400053F80028E7D162B60EF007F90028EDD056
:103450002E700320F8BD0000E41D002040420F0044
:10346000080100207C260020942E0020F8B50D468F
:103470002A49096880B12A4AB2FBF1F108440004E4
:10348000284C000C4FF000060AD0C11F40F6B232A3
:10349000914222D30320F8BD2348B0FBF1F0EEE7C0
:1034A00072B6694621480FF01FF838B100982870AD
:1034B00062B6207848B3401E207026E069461C485A
:1034C0000FF012F838B10098287062B66078E0B159
:1034D000401E607019E062B61EE0801F80B20EF0E0
:1034E00045F915E072B6694610480EF0FDFF002858
:1034F000DCD169460E480EF0F7FF40B1607808B1A4
:10350000401E60700098287062B60120F8BD62B657
:103510000EF074F90028E5D02E70BBE7E41D002002
:103520008096980008010020C0D8A7007C260020C3
:10353000942E002038B50C460F490A780AB1521E65
:103540000A700EF049F80FE072B669460B480EF0AB
:10355000CBFF40B100980A49207000F001000870CC
:1035600062B6012038BD62B60EF077F80028EBD0C5
:1035700000202070032038BD09010020942E002077
:103580005B0000207047000070B51C4C2515E61448
:10359000052815D0082821D00C282DD180212046BF
:1035A000FFF7E6FC29462046FFF7E2FC31462046BD
:1035B000FFF7DEFC31462046BDE87040FFF7DABC7D
:1035C00080212046FFF7D4FC29462046FFF7D0FC97
:1035D00031462046FFF7CCFC8021ECE780212046D5
:1035E000FFF7C6FC29462046FFF7C2FC31462046BD
:1035F000FFF7BEFC2946DEE770BD0000000C02406C
:1036000010B52146024814F0C5FD204610BD00004B
:103610001CB50108FEE70029018802D041F0010134
:1036200001E021F001010180704700001CB501217B
:103630004C05204608F0D8F80121022008F0C8F80F
:103640000121022008F0C4F80121204608F0D8F832
:103650000021204608F0D4F84020009002208DF888
:1036600004008DF8050001208DF8060000200C4CA8
:103670008DF8070069462046FFF712FC8020009075
:1036800069462046FFF70CFC042206212046FFF77E
:1036900058FC042207212046FFF753FC1CBD000004
:1036A000000402400D4910B5884202D101214C05A9
:1036B0000AE00B49884202D101218C0504E0094946
:1036C00088420AD10121CC05204608F099F820460D
:1036D000BDE81040002108F093B810BD0054004030
:1036E00000580040005C0040002A828801D00A4354
:1036F00000E08A43828070477FB5044680880D468B
:1037000020F03F06684608F09FF826490298B0FB73
:10371000F1F189B20E43A680228822F001022280B4
:10372000214B2A689A421BD85200B0FBF2F080B2BB
:10373000042800D20420491C2184A083208840F062
:103740000100208021884FF6F5300140A8886A8961
:10375000104308432080A8892989084320817FBD20
:10376000EB88A3F53F46FF3E05D102EB4202B0FBDA
:10377000F2F080B208E002EBC20303EB0212B0FBEE
:10378000F2F080B240F48040020501D140F0010027
:103790004FF4967251434FF47A72B1FBF2F140F458
:1037A0000040C8E740420F00A08601002DE9FC5F01
:1037B0000121022008F00CF801248DF804400026B5
:1037C00002258DF806608DF8074000958DF80550AC
:1037D00069466648FFF764FB0121102007F0F8FFF7
:1037E0008DF804408DF8066027038DF80740009798
:1037F0008DF8055069465E48FFF752FB02215B4891
:10380000FFF7B8FB39465A48FFF7B4FB01211E20E9
:1038100007F0DEFF8DF804408DF8066080208DF8FB
:10382000074000908DF8055069465248FFF738FB75
:10383000A60269464F480096FFF732FB4FF4006A34
:1038400069464C48CDF800A0FFF72AFB4FF48049A9
:1038500069464648CDF80090FFF722FB1020009003
:1038600069464548FFF71CFB694641480096FFF74B
:1038700017FB2027694640480097FFF711FB4FF4DC
:10388000004B69463948CDF800B0FFF709FB6003EB
:10389000009069463648FFF703FB694634480097B5
:1038A000FFF7FEFA4020009069463148FFF7F8FA2A
:1038B000270269462D480097FFF7F2FA4FF4007887
:1038C00069462A48CDF80080FFF7EAFA694627489A
:1038D0000096FFF7E5FA10212748FFF749FB494614
:1038E0002248FFF745FB20212348FFF741FB5946BB
:1038F0001E48FFF73DFB31461D48FFF739FB6103CA
:103900001B48FFF735FB39461848FFF731FB4146A6
:103910001648FFF72DFB31461448FFF729FB80219D
:103920001448FFF725FB31461248FFF721FB5146AB
:103930001048FFF71DFB8DF8045003208DF805009B
:1039400000948DF8074069460848FFF7A9FA02225B
:1039500000210648FFF7F5FA20210548FFF708FB8C
:1039600040210348FFF704FBBDE8FC9F0004024030
:1039700000100240000C024000080240704780B274
:10398000FFF70ABD12F0C8BE70B50024234608E058
:10399000CD18EE782D6866F31F6540F82450641C3E
:1039A0001B1D9342F4D370BD70B500231C4611E07B
:1039B00011F82350055531F823502E0A05196E7061
:1039C00051F82360360CAE7051F823605B1C360E44
:1039D000EE70241D9442EBD370BD00007CB504460C
:1039E00000880E46C0F3C500382802D2C0F1380561
:1039F00001E0C0F17805082221466846FFF7D4FFB0
:103A00002A460849204600F07DFB082269462046E8
:103A100000F078FB102204F108013046FFF7C4FFE4
:103A20007CBD000054050020002101604160054973
:103A300081600549C1600349C94301610249C94325
:103A4000416170470123456789ABCDEF2DE9F04116
:103A50000446251DC0B0E0CDD0F800804022684665
:103A6000FFF792FF05EA060027EA05010843FE4931
:103A7000009A014402EB0800084405EB706000EA7C
:103A8000050126EA00021143F84A1144019A3A441A
:103A9000114400EB315303EA000125EA030211430C
:103AA000F34A1144029A3244114403EBF13101EA22
:103AB000030220EA01063243EE4E3244039E3544AF
:103AC0002A4401EBB22202EA010523EA0206354349
:103AD000E94E3544049E3044284402EB706000EA0D
:103AE000020521EA00063543E44E3544059E334481
:103AF0002B4400EB335303EA000522EA0306354367
:103B0000DF4E3544069E3144294403EBF13101EA8E
:103B1000030520EA01063543DA4E3544079E324458
:103B20002A4401EBB22202EA010523EA02063543E8
:103B3000D54E3544089E3044284402EB706505EAB2
:103B4000020021EA05063043D04E3044099E33443A
:103B5000184405EB305000EA050322EA000633431F
:103B60000A9EA3F524434F3B3144194400EBF13343
:103B700003EA000125EA03063143C54E31440B9E9A
:103B80003244114403EBB12101EA030220EA0106A9
:103B90003243C04E32440C9E35442A4401EB7262DB
:103BA00002EA010523EA02063543BB4E35440D9E69
:103BB0003044284402EB305505EA020021EA0506AC
:103BC0003043B64E30440E9E3344184405EBF0307B
:103BD00000EA050322EA00063343B14E33440F9E48
:103BE0003144194400EBB12101EA050320EA05063E
:103BF0003343AC4E3344019E32441A4401EBF2622B
:103C000002EA000321EA00063343A74E3344069E2E
:103C100035442B4402EBF35303EA010522EA010683
:103C20003543A24E35440B9E3044284403EBB0404C
:103C300000EA020523EA020635439D4E3544009E04
:103C40003144294400EB313101EA030520EA03063F
:103C50003543984E3544059E32442A4401EBF262C6
:103C600002EA000521EA00063543934E35440A9ED8
:103C700033442B4402EBF35303EA010522EA010625
:103C800035438E4E35440F9E3044284403EBB040FC
:103C900000EA020523EA02063543894E3544049EB4
:103CA0003144294400EB313101EA030520EA0306DF
:103CB0003543844E3544099E32442A4401EBF26276
:103CC00002EA000521EA000635437F4E35440E9E88
:103CD00033442B4402EBF35303EA010522EA0106C5
:103CE00035437A4E3544039E3044284403EBB040BC
:103CF00000EA020523EA02063543754E3544089E64
:103D00003144294400EB313101EA030520EA03067E
:103D10003543704E35440D9E32442A4401EBF26225
:103D200002EA000521EA000635436B4E3544029E47
:103D300033442B4402EBF35303EA010522EA010664
:103D40003543664E3544079E3044284403EBB0406B
:103D500000EA020523EA02063543614E35440C9E13
:103D600031442944059D00EB3131154481EA0002BC
:103D70005C4E5A4032442A44089D01EB32721D4485
:103D800082EA01034340584E33442B440B9D02EB1F
:103D90007353054483EA0200544E4840304428449B
:103DA00003EB30450E98524E014485EA0300504023
:103DB0003044084405EB70260198811886EA050016
:103DC0004C4A58401044084406EB30720498C1181D
:103DD00082EA0600484B684018440844079902EB01
:103DE00070504B1980EA0201444D71402944194436
:103DF0000A9B00EB31419D1981EA0003404E53407C
:103E000033442B440D9D01EB7323154483EA0102D7
:103E10003C4E424032442A44009D03EB327205443A
:103E200082EA0300384E48403044284402EB705583
:103E30000398364E014485EA020058403044084455
:103E400005EB30410698324E034481EA05005040AC
:103E500030441844099B01EB7020134480EA0102AE
:103E60002C4E6A40324457E078A46AD756B7C7E868
:103E7000DB702024EECEBDC1AF0F7CF52AC687478C
:103E8000134630A8019546FDD8988069AFF7448B5A
:103E9000BED75C892211906B937198FD8E4379A6F1
:103EA0002108B44962251EF640B340C0515A5E262F
:103EB000AAC7B6E95D102FD65314440281E6A1D8F3
:103EC000C8FBD3E7E6CDE121D60737C3870DD5F48C
:103ED000ED145A4505E9E3A9F8A3EFFCD9026F6791
:103EE0008A4C2A8D4239FAFF81F6718722619D6DD5
:103EF0000C38E5FD44EABEA4A9CFDE4B604BBBF60F
:103F000070BCBFBEC67E9B28FA27A1EA8530EFD4DD
:103F1000051D880439D0D4D91A440C9B00EB3272A9
:103F20001D4482EA0003644E4B4033442B440F9DF2
:103F300002EB73530D4483EA0201604E4140314469
:103F40002944029D03EB3141054481EA03005C4EA4
:103F500050403044284401EB70250098594E0244EB
:103F600065EA0300484030441044079A05EBB0600E
:103F7000134460EA0102544E6A4032441A440E9BD4
:103F800000EBB2520B4462EA0501504E414031440D
:103F90001944059B02EB71411D4461EA00034C4E3C
:103FA000534033442B4401EBF3250C9B494E03440F
:103FB00065EA020048403044184405EBB0660398B7
:103FC000454B024466EA010068401844104406EB81
:103FD000B0530A98414A014463EA05007040104416
:103FE0000844019903EB70404A1960EA06013C4D10
:103FF000594029441144089A00EBF121951961EACE
:104000000302384E424032442A440F9D01EBB26213
:104010001D4462EA0003344E4B4033442B44069D5A
:1040200002EBB353054463EA0100304E5040304484
:10403000284403EB70450D982D4E014465EA0200BB
:10404000584030440844049905EBF0200A4460EAE3
:104050000301284E6940314411440B9A00EBB161D1
:10406000134461EA0502244E424032441A4401EBF3
:10407000B253029A214E154463EA00024A40324488
:104080002A44099D03EB7242054462EA010058404C
:104090001B4E30442844256802EBF020294421605F
:1040A000616808446060A0681044A060E06818443B
:1040B000E06040B0BDE8F081E599DBE6F87CA21F46
:1040C0006556ACC4442229F497FF2A43A72394AB36
:1040D00039A093FCC3595B6592CC0C8F7DF4EFFF44
:1040E000D15D84854F7EA86FE0E62CFE144301A3CA
:1040F000A111084E827E53F735F23ABDBBD2D72AC2
:1041000091D386EB2DE9F047054616462A680F46FF
:10411000C2F3C50102EBC60200202A60B2EBC60F53
:104120006A68C1F1400401D2521C6A6002EB567207
:104130006A60A64218D36818183022463946FCF740
:10414000A5F805F1080005F118018146FFF77EFC8E
:10415000204604E039184846FFF778FC404600F155
:104160004008B045F6D90021321A3B186818BDE85E
:10417000F04718301946FCF789B8FEE7704738B5A4
:1041800034208DF8000000208DF801008DF8020029
:1041900001248DF80340684600F02AF826208DF8A7
:1041A00000008DF801408DF802408DF8034068460C
:1041B00000F01EF838BD38B535208DF80000002419
:1041C0008DF801408DF8024001258DF803506846B6
:1041D00000F00EF847208DF800008DF801408DF8B2
:1041E00002408DF80350684600F002F838BD000028
:1041F00070B50F21C478027801234FF0E026E4B1B6
:10420000124C246804F4E064C4F5E064C4F30724A9
:10421000C4F10405E1404478AC4085780D40254365
:104220000B4C29011155007800F01F018B4040090B
:1042300006EB8000C0F8003170BD02F01F00834023
:10424000500906EB8000C0F8803170BD0CED00E035
:1042500000E400E00249084302490860704700009A
:104260000000FA050CED00E030B5094940250024B6
:10427000097891B0012909D000F020FA642015F0E6
:104280001DFF22466946284600F000FA11B030BDF5
:104290007C03002030B591B04025002400F042FAA4
:1042A00022466946284600F0F1F911B030BD30B51C
:1042B00091B04025002400F035FA22466946284690
:1042C00000F0E4F911B030BD30B591B040250024C4
:1042D00000F028FA22466946284600F0D7F911B0C6
:1042E00030BD30B591B04025002400F01BFA2246C5
:1042F0006946284600F0CAF911B030BD30B591B01A
:104300004025002400F00EFA22466946284600F0B7
:10431000BDF911B030BD0000F0B591B040250024CA
:104320000AA715A600F0FEF9224601A9284600F0CA
:10433000ADF9002807D10246009033460DF10D017A
:10434000384611F0ABFD11B0F0BD00003031303215
:104350005B5830355830345D266C743B4642303003
:104360003A434D50303030325B5830355830345D40
:104370002F32303B4E4100005600000030B591B066
:104380004025002400F09AF922466946284600F0AC
:104390007DF911B030BD30B591B04025002400F05A
:1043A000C1F922466946284600F070F911B030BDC7
:1043B00030B591B04025002400F0B4F9224669469A
:1043C000284600F063F911B030BD0000F0B591B09F
:1043D000402500240AA715A600F0A4F9224601A949
:1043E000284600F053F9002807D1024600903346D2
:1043F0000DF10D01384611F051FD11B0F0BD000076
:10440000303130325B5830345830335D266C743B79
:10441000666230303A434D50303030325B58303481
:104420005830335D2F383B300000000072706D0053
:10443000F0B591B0402500240AA70CA600F072F94F
:1044400022460DF10D01284600F020F9002806D182
:10445000024600903B4601A9304611F01FFD11B005
:10446000F0BD00005365636F6E647300303130320D
:104470005B5830315830305D266C743B46423030EA
:104480003A434D50303030305B5830315830305D29
:104490003B300000704730B591B04025002400F05B
:1044A00041F922466946284600F0F0F811B030BDC7
:1044B000F0B591B0402500240AA70CA600F032F90F
:1044C00022460DF10D01284600F0E0F8002806D143
:1044D000024600903B4601A9304611F0DFFC11B0C6
:1044E000F0BD0000646567430000000030313032E9
:1044F0005B5830305D266C743B66623A434D5030F9
:104500003030305B5830305D2D34303B30000000AF
:1045100030B591B04025002400F004F922466946E8
:10452000284600F0B3F811B030BD30B591B0402549
:10453000002400F0F7F822466946284600F0A6F865
:1045400011B030BD30B591B04025002400F0EAF83C
:1045500022466946284600F099F811B030BD0000A7
:10456000F0B591B0402500240AA70BA600F0DAF8B8
:1045700022460DF10D01284600F088F8002806D1EA
:10458000024600903B4601A9304611F087FC11B06D
:10459000F0BD000025000000303130325B58303271
:1045A0005D266C743B66623A434D50303030305B70
:1045B0005830325D2F322E353B300000F0B591B0CF
:1045C000402500240AA715A600F0ACF822460DF1FC
:1045D0000D01284600F05AF8002806D10246009046
:1045E000334601A9384611F059FC11B0F0BD000066
:1045F000303130325B5830355830345D266C743B86
:10460000464230303A434D50303030325B583035CE
:104610005830345D2F32303B4E41000056000000D0
:1046200030B591B04025002400F048F82246694694
:10463000284600F02BF811B030BD704730B591B06E
:104640004025002400F06EF822466946284600F016
:104650001DF811B030BD704730B591B04025002431
:1046600000F060F822466946284600F00FF811B0C5
:1046700030BD30B591B04025002400F01FF822462F
:104680006946284600F002F811B030BD37B50D4636
:1046900004460AE002AA294607480DF069FF08B15E
:1046A00000203EBD022015F009FD2000A4F1010408
:1046B000E4B2EFD101203EBDDC5E002030B51749E9
:1046C00000EB401001EB400591B00024AD1C4021EF
:1046D0006846FBF702FE402229466846FBF7D6FDF6
:1046E0009DF803009DF80230421D00EB0320C3B289
:1046F00000206946D2B29B1C05E00D18401CAD7825
:10470000C0B22C44E4B29842F7D30844E343837028
:1047100003480DF061FF11B030BD000034BD010849
:10472000AC36002070B505461B4900EB451001EB87
:10473000400690B00024B61C40216846FBF7CDFD32
:10474000402231466846FBF7A1FD14489DF802302F
:1047500000EB8500694630F81A0C8DF80900000A54
:104760008DF80A009DF80300421D00EB0320C3B240
:104770000020D2B29B1C05E00D18401CAD78C0B2E1
:104780002C44E4B29842F7D30844E34383700448CE
:104790000DF022FF10B070BD34BD01087E03002073
:1047A000AC36002070B505461B4900EB451001EB07
:1047B000400690B00024B61C40216846FBF78DFDF2
:1047C000402231466846FBF761FD14489DF80230EF
:1047D00000EB850030F81A0C010A8DF806108DF8F0
:1047E00007009DF803006946421D00EB0320C3B299
:1047F0000020D2B29B1C05E00D18401CAD78C0B261
:104800002C44E4B29842F7D30844E343837004484D
:104810000DF0E2FE10B070BD34BD01087E03002033
:10482000AC360020FFF7BEBFFFF7BCBFFFF7BABF33
:10483000FFF7B8BFFFF7B6BFFFF7B4BFFFF73EBF44
:10484000FFF7B0BFFFF7AEBFFFF7ACBFFFF7AABFE0
:104850007047FFF7A7BFFFF7A5BFFFF7A3BFFFF79D
:10486000A1BFFFF79FBFFFF79DBFFFF79BBFFFF7FC
:1048700025BF7047FFF796BF7047FFF793BFFFF75D
:104880001DBF00007FB500900020ADF80400ADF81A
:104890000600ADF80810ADF80C000420ADF80A00D1
:1048A000694607F013FB6946052007F00FFB0B4C28
:1048B00040F225550122294620690DF083FD012291
:1048C000294660690DF07EFD294620690DF028FD1E
:1048D000294660690DF024FD7FBD00009400002092
:1048E0002DE9FC410121042006F072FF0121042082
:1048F00006F06EFF00258DF8065001248DF8074064
:104900004FF49A50184F8DF80440022600908DF80D
:10491000056069463846FEF7C3FA04208DF8056045
:1049200000908DF807408DF8045069460F48FEF757
:10493000B7FA80208DF8056000908DF807408DF85B
:10494000045069463846FEF7ABFA094C40F225554B
:104950000022294620690DF035FD002229466069B4
:104960000DF030FDBDE8FC8100080240000C024063
:10497000940000202DE9F8431848194F194CC688B7
:104980004EF66020464303254FF48C783A6A694618
:104990003046904700281DD003280AD001281BD19B
:1049A00007F01AFB9DF8000060556D1CADB245453F
:1049B000ECD30020207033216070A170032D0BD048
:1049C00009490860AD1E280A2070657005480DF081
:1049D000D7FE0120BDE8F8830020FBE7E41D00209E
:1049E0006C1F0020522500201C00002000210161C6
:1049F0004FF40071416100F1180100F50672C0E941
:104A0000021201604160704730B542693AB30269F1
:104A1000002A24DD4268541C13784460127801F89F
:104A2000012BC4684268A24201D182684260002220
:104A30000DE04468651C4560247801F8014BC568A9
:104A40004468AC4201D184684460521CD2B29A429C
:104A5000EFD30169C91A491E0161012030BD002050
:104A600030BD70B543693BB30A780469551C2C44CA
:104A70009C4221DA0468491C227003685B1C0360B5
:104A8000C468A34201D18368036000230DE0066877
:104A900011F8014B34700468641C0460C668B442A9
:104AA00001D1846804605B1CDBB29342EFD30169DF
:104AB00029440161012070BD002070BD00B58DB09A
:104AC00072B613480078012804D0124800780128F3
:104AD00008D01AE0684605F0F9FA012815D16946B0
:104AE0000D4810E0684606F027F902280DD114227F
:104AF0000DF1010106A8FBF7C9FB06A806F0A4FA10
:104B000018B169460548FFF7ACFF62B60DB000BDAD
:104B10002401002028010020F472002024770020C6
:104B200000B58BB072B613480078012804D0124843
:104B30000078012808D01AE0684605F0C7FA012875
:104B400015D169460D4810E0684606F0F5F80228D0
:104B50000DD114220DF1010105A8FBF797FB05A863
:104B600006F072FA18B169460548FFF77AFF62B697
:104B70000BB000BD24010020280100200C7500208E
:104B80003C79002010B511F09BFC0A480CF076FA35
:104B9000FEF7D4FB11F094FC11F0BAFC012011F0E7
:104BA000B8FC044800218138006811F08BFC01201A
:104BB00010BD0000651E0020F8B53A4800263B4CA9
:104BC0004673394820623A4860623A483A4D067066
:104BD00028680BF093FB11F073FC11F099FC012095
:104BE00011F097FC0021286811F06CFC95F8422028
:104BF0003249334832B1012A08D0022A02D0032AAE
:104C00000AD10EE0C4E900102E4802E0C4E9001009
:104C10002D48C4E90406E66195F84300012804D054
:104C200008E0C4E900102948F3E72948606029A09A
:104C300013F0E2FA95F8490150B1452007F0CAF99E
:104C4000C8200CF055FD95F849010BF08FFA08E0EB
:104C500044350096EB78AA78697815F844090BF08A
:104C6000CBFBFEF76BFB95F84200022801D003282E
:104C70000CD108200BF0C4F9012100200BF04CFAF4
:104C8000012108460BF048FA14F0B0FE15F8480F61
:104C900007F0A0F91748A98E018009B90A210180FF
:104CA0000120F8BD941F0020353500086C1F00203E
:104CB000156701082B000020E41D0020854B00082B
:104CC000495000083D4D0008014E0008F94C00080D
:104CD000ED500008506173735468727544726976C0
:104CE00065722E547844617461546F4563754675DE
:104CF0006E63000020000020034910B504200880E6
:104D000000F004F8012010BD941F002008B5FEF744
:104D1000E1F9002807D007490A200A6A6946904746
:104D2000012801D0002008BD03490420088001208B
:104D300008BD00006C1F0020941F00202DE9F84FD3
:104D4000234F97F8430002281FD0FEF7C3F900282D
:104D50001DD020A013F050FA254C002635202670D7
:104D60006670A070B7F80690224FDFF88C8003259C
:104D70004FF48C7A3A6A694648469047002806D034
:104D8000032814D0012804D01FE000F07DF8BDE80E
:104D9000F88F07F021F99DF8000060556D1CA8B24E
:104DA00098F800102154401C85B25545E2D31348B1
:104DB0000660AD1EA8B2012807D0010A21706070FC
:104DC0000B480DF0DDFC0120E1E70020DFE70000EB
:104DD000E41D002050617373546872755F42454E44
:104DE0005A5F52785061636B5F4E6F726D616C00F9
:104DF000522500206C1F00205B0000201C000020BA
:104E000010B5FEF72BF838B314A013F0F5F91B4CCE
:104E1000207810B101281FD11CE000211848FDF7AF
:104E200038FA5A2814D96E2812D2164900220A706C
:104E300005224A7025228A70020ECA70020C0A717D
:104E4000020A4A71887108460DF09AFC0120207010
:104E5000012010BDFFF772FF002010BD5061737379
:104E6000546872755F42454E5A5F52785061636B69
:104E70005F53696D75456375000000002B000020CD
:104E800000879303522500202DE9F84FFEF722F901
:104E900024490026E8B1087801281BD022A013F08D
:104EA000ABF9294CDFF8A480352026706670A0701D
:104EB0004FF0030AB8F80690254F554669463A6AFE
:104EC00048469047002806D0032820D0012804D067
:104ED00000E00E700020BDE8F88F07F07DF89DF827
:104EE000000060551B496D1CA8B209782154401C74
:104EF00085B201290BD11849A1F800A098F810003B
:104F0000FDF7D6F907F068F8B5F58C7FD6D31348CE
:104F10000660AD1E280A207065700B480DF030FC4D
:104F20000120D8E72C00002050617373546872751B
:104F30005F42454E5A5F52785061636B5F576974A8
:104F40006853656E6400000052250020E41D0020B7
:104F50006C1F00205B000020941F00201C0000201C
:104F600070B53849002281F8442081F84520427804
:104F7000037802EB032292B28418A41C10F1030000
:104F800010F8012BA0425BD20A2A57D2DFE802F0C8
:104F900056050F141925353A4C5102784378857817
:104FA000C01C120402EB03222A440A60E8E710F84E
:104FB000012B81F84220E3E710F8012B81F8432010
:104FC000DEE7027801F8442F42784A7082788A70CE
:104FD000C278001DCA704439D2E70278CA8042788C
:104FE0000A8182788A81C2780A8202794379801D97
:104FF00003EB0222A1F87C20C2E710F8012B81F814
:105000008020BDE710F8012B5206130E81F8813085
:10501000002206E08E1810F8015B521C86F88250C0
:10502000D2B29A42ACD2F5E710F8012B81F84820B1
:10503000A6E710F8012B81F84921A1E7002070BDF7
:10504000012070BDE41D00202DE9F0470446FDF766
:10505000FAFF002807D06078217800EB012080B2A9
:10506000022802D20020BDE8F0871449401EE41C4B
:1050700091F810A087B20025114E4FF003094FF0B0
:10508000040814E021786078A41C28B1A6F80090E8
:1050900041F480710BA002E0A6F800800EA013F08E
:1050A000ABF815B15046FDF703F9AD1CADB2BD42EA
:1050B000E8D306F091FF0120D5E70000E41D0020B1
:1050C000941F002053656E644279746531363D3D0E
:1050D000253034780000000053656E6442797465B1
:1050E000313620323D3D2530347800002DE9F05F27
:1050F0000446FDF7A8FF002830D06078217800EB47
:10510000012080B2022828D3DFF890800022401EC0
:1051100088F8002088F8012035224FF0030AE41CAB
:105120004FF4FA7B88F80220554687B20026DFF854
:1051300070901DE06078A41C10B1A9F800A002E0F6
:105140000421A9F80010174808EB05016D1C026A3C
:10515000ADB258469047012802D00020BDE8F09F2C
:10516000F61CB6B2BE4209D214F8010B14F0A6FF29
:10517000BE42DFD306F030FF0120EFE70A48007897
:1051800040B9AD1E290A88F8001088F8015003487C
:105190000DF0F6FA207814F091FFEBE7522500208D
:1051A000941F00206C1F0020240000202DE9F041F6
:1051B000594E5A49002070600870594C594894F86B
:1051C0006A2101785AB121F0400101702068010282
:1051D00041D55549884205D142F210703BE041F07B
:1051E0004001F2E75149884202D144F6206032E0A2
:1051F0004F49884202D148F214202CE04D498842A0
:1052000002D14CF2503026E04B49884201D14B4844
:1052100021E049491039884201D149481BE04649FB
:105220002339884201D1474815E04749884201D1D6
:10523000464810E0A0F500011C3901D144480AE0BD
:10524000A0F50001163901D1424804E0A0F50001A3
:10525000143920D140483249206094F844003F4F2F
:10526000DFF8FC803F4D91F86C11062816D00E280F
:1052700014D00C2812D00D2810D0695C4FEA080019
:10528000FCF71AFB94F86C01295CC1F3001040B1E3
:1052900001282FD118E00020BDE8F081695C384674
:1052A000EEE704F5B874A088C0F30A0060602088B7
:1052B000C0F30A0020602089C0F30A00A060A08922
:1052C000C0F30A00E06013E0012004F5B874F07048
:1052D000606820F060406060206820F060402060DE
:1052E000E06820F06040E060A06820F06040A060CE
:1052F000A4F5B87494F8440006280BD00E2809D001
:105300000C2807D00D2805D04FEA0800FCF718FB41
:105310000120C1E73846F9E70001002047000020DE
:10532000E41D0020480000203F2580003F1280003F
:105330002F0B80002F0780003F03800000770100C3
:10534000A086010048E801001C01800090D0030005
:1053500020A1070000350C0040420F00006800400B
:1053600000640040570000202DE9F05F184EDFF880
:1053700064800025356098F80040924683462F46A9
:105380004FF47A7914B16420444313E04FEA0904DE
:10539000FEF7F4FA00F014FF98F8000040B9524606
:1053A000032158463760FCF703F96D1CEDB220B9B4
:1053B000142D02D83068A042EAD33068484503D99A
:1053C0000221F3200CF0ECFE0120BDE8F09F00006C
:1053D000300000200001002010B586B00446FEF722
:1053E000CDFA11F0BDFB002863D06946334806F0C2
:1053F00076F96946324806F072F9002020709DF86F
:105400000A006A46401D60703020A0709DF80800B8
:10541000E41C88B10198802340F0004143EA106009
:1054200020700198000C60700198000AA07001982B
:10543000E070241D00201EE00099080E20700098E6
:10544000000C60700098000AA0700098E070241DA5
:10545000002005E01318401CDB7A04F8013BC0B2C1
:105460009DF80A308342F5D809E01318401CDB7A16
:1054700004F8013BC0B29DF80A308342F5D81148C8
:105480000078012817D111F0C04F11D121F07C42D2
:105490000E4900200C4B496808E000BF53F820403B
:1054A00024F07C44944206D0401CC0B28842F5D31C
:1054B000002006B010BD0120FBE700005086002050
:1054C0006890002047000020647B0020000100203D
:1054D00010B504460A48B0F886010CF0CCF800BFBD
:1054E0000CF0BBF8012809D011F03AFB0028F7D0E6
:1054F0002046FFF771FF0128F2D110BD002010BD3A
:10550000E41D00202DE9F05F072635462A48FFF705
:1055100063FF01283ED12848083005F0ADF8264841
:105520000DF02EF924490122C879B2EB101F41D1A8
:105530000A4600F00F00127A012402EB0020B0FBB3
:10554000F5F789464FF00008002F08D832E035B152
:105550009BF86C110BEB4100408EA84209D100254D
:10556000154801F063FB002815D0DFF850B04FF06C
:10557000020A1148FFF7ACFF00280CD00E480DF0CE
:10558000FFF819F80600BAEB101F03D100F00F0066
:10559000A04202D00020BDE8F09F6D1C641C08F101
:1055A0000100E4B2ADB21FFA80F80F2C00D900243C
:1055B000B845CCD30120EEE752250020E41D0020A1
:1055C0002DE9F04F85B008200290062001900025BB
:1055D0005A48FFF701FF012803D0002005B0BDE8BD
:1055E000F08F5648093005F047F8544C0121207AD5
:1055F000B1EB101F7ED1214600F00F00497A01EB7C
:10560000002000F1080B00900CF0E0FDA5200CF04C
:105610004DFFA5200CF04AFF4FEA1B2020703020E0
:1056200084F801B00026A0700F2708E0434CA05D6D
:105630000CF03CFFA05D761C2844C5B2B6B2BE4259
:10564000F4D3DDE90010B1FBF0F04FF000084FF0AB
:1056500005090124474604905EE0394E96F885011D
:1056600080B9B8F1000F06D096F86C0106EB400047
:10567000418E414506D14FF00008304801F0D6FA7E
:105680000028ABD02D48FFF723FFA0B396F8850183
:10569000032806D129490298095C0320B0EB111FA9
:1056A0003AD0264802990222415CB2EB111F36D152
:1056B00001F00F00A04232D1DDF804A0009809EB00
:1056C0000A01814205D9A0EB09001FFA80FA0026E1
:1056D0000EE000260298811918480844039040788B
:1056E0000CF0E4FE0398761CB6B240782844C5B2AC
:1056F000564501E01EE012E0ECD309EB0A001FFA68
:1057000080F97F1C641C08F10100E4B21FFA80F8E4
:10571000BFB20F2C00D90024049887429DD3E843E0
:105720000CF0C4FE07480BF1050100680CF005FE03
:10573000012053E701480DF023F8F9E75225002036
:10574000E41D0020400000202DE9F05FDFF8C49048
:1057500007264FF0080A062599F882412E48FFF7E0
:105760003BFE012844D12C48093004F085FF2A482B
:105770000DF006F8284814B1C179A14238D1017A58
:10578000C7790122B2EB111F42D1234A01F00F0069
:105790000124527A4FF0000B02EB0020B0FBF5F829
:1057A000B8F1000F08D833E035B199F86C1109EB66
:1057B0004100408EA84205D10025174801F036FA75
:1057C000002816D01448FFF783FE002811D0124895
:1057D0000CF0D6FF1048815DB94209D110F80A00DB
:1057E0000221B1EB101F03D100F00F00A04202D044
:1057F0000020BDE8F09F6D1C641C0BF10100E4B2B9
:10580000ADB21FFA80FB0F2C00D90024C345CBD3C7
:105810000120EEE7E41D0020522500202DE9F0478D
:105820004FF0070A55463248FFF7D6FD012843D10D
:105830002F48083004F020FF2D480CF0A1FF2C4C1D
:105840006079052852D0E0790121B1EB101F4DD1CC
:10585000214600F00F00097A4FF0000901EB00200B
:10586000B0FBF5F74FF001084D46002F09D83DE099
:105870003EB1204890F86C1100EB4100408EB042E0
:1058800005D100261A4801F0D1F9002815D0184892
:10589000FFF71EFE002810D0607905280FD01448AD
:1058A0000CF06EFF14F80A000221B1EB101F03D1B7
:1058B00000F00F01414508D00020BDE8F0872846E0
:1058C0006D1CADB26428F7D80EE009F101001FFA93
:1058D00080F9761C08F10100002500F0FF08B6B23F
:1058E000B8F10F0F00D9A846B945C1D30120E4E7AC
:1058F00052250020E41D00202DE9F04F85B007203F
:105900000290019000255B48FFF766FD012803D057
:10591000002005B0BDE8F08F5648083004F0ACFE1A
:10592000544C0121E079B1EB101F7DD1214600F0EC
:105930000F00097A01EB002000F1070B00900CF03A
:1059400045FCA5200CF0B2FDA5200CF0AFFD4FEA00
:105950001B202070302084F801B00026A0700F2793
:1059600008E0444CA05D0CF0A1FDA05D761C28442D
:10597000C5B2B6B2BE42F4D3DDE90010B1FBF0F01F
:105980004FF000084FF006090124474604905EE0FE
:10599000394E96F8850180B9B8F1000F06D096F817
:1059A0006C0106EB4000418E414506D14FF00008E6
:1059B000304801F03BF90028ABD02E48FFF788FDB6
:1059C00098B396F88501032806D12A490298095C04
:1059D0000320B0EB111F3AD0264802990222415C05
:1059E000B2EB111F36D101F00F00A04232D1DDF829
:1059F00004A0009809EB0A01814205D9A0EB090037
:105A00001FFA80FA00260EE0002602988119194834
:105A10000844039040780CF049FD0398761CB6B218
:105A200040782844C5B201E01FE013E05645ECD3AE
:105A300009EB0A001FFA80F97F1C641C08F10100C1
:105A4000E4B21FFA80F8BFB20F2C00D900240498EA
:105A500087429DD3E8430CF029FD08480BF105016E
:105A600000680CF06AFC012053E702480CF088FE45
:105A7000F9E7000052250020E41D0020400000202E
:105A800070B51448FFF7A8FC012801D0002070BDB4
:105A90001048124C104B8179C27801EB02610279F7
:105AA0004079120402EB00200A180020616804E02B
:105AB00053F8205095420BD0401C8842F8D38842BE
:105AC00006D143F82020491C024861600CF058FEC2
:105AD000012070BD52250020647B002000010020C1
