:020000040804EE
:10000000D8D5012031020408A55704082145040869
:100010006F520408A919040815FF04080000000025
:10002000000000000000000000000000990104082A
:10003000ED31040800000000DD010408CDE60508EC
:100040004B0204084B0204084B0204084B0204084C
:100050004B0204084B0204084B0204084B0204083C
:10006000213604084B0204084B0204084B02040822
:100070004B0204084B0204084B0204084B0204081C
:100080004B0204084B0204084B0204084B0204080C
:10009000891A04084B0204084B020408413604087C
:1000A0004B0204084B0204084B0204084B020408EC
:1000B00099E60408B9E604084B0204084B02040858
:1000C0004B0204084B0204084B0204084B020408CC
:1000D0004B02040881F80408C5F8040819F904085B
:1000E0004B0204084B0204084B0204084B020408AC
:1000F0004B0204084B0204084B0204084B0204089C
:100100004B0204084B0204084B0204084B0204088B
:1001100061F6040889F604084B0204084B0204083F
:100120004B0204084B0204084B0204084B0204086B
:100130004B0204084B0204084B0204084B0204085B
:10014000DD1B04084B0204084B0204084B020408A0
:100150004B0204084B0204084B0204086DF9040822
:100160004B0204084B0204084B0204084B0204082B
:100170004B0204084B0204084B0204084B0204081B
:100180004B020408DFF80CD001F036F800480047B5
:1001900045530508D8D50120224B19680868B0E8F6
:1001A000F00F80F30988BFF36F8F4FF0000080F3EA
:1001B00011884EF00D0E70470000000006480068E0
:1001C000006880F3088862B661B6BFF34F8FBFF353
:1001D0006F8F00DF00BF00BF08ED00E0EFF3098084
:1001E000BFF36F8F0F4B1A6820E9F00F106008B54E
:1001F0004FF0BF0080F31188BFF34F8FBFF36F8FB5
:100200001EF092F84FF0000080F31188BDE808401E
:1002100019680868B0E8F00F80F30988BFF36F8FA2
:10022000704700BF48030020EFF3058070470000CF
:100230000648804706480047FEE7FEE7FEE7FEE780
:10024000FEE7FEE7FEE7FEE7FEE7FEE749E6040815
:100250008501040800487047F417060810B50446E5
:10026000FFF7F8FF0068005D00F0010010BDA0F18D
:100270004101192900D82030704710B5431A934224
:1002800009D28318881803E010F8011D03F8011D36
:10029000521EF9D210BD40EA01039B0703D009E0CA
:1002A00008C9121F08C0042AFAD203E011F8013B62
:1002B00000F8013B521EF9D210BDD2B201E000F8A5
:1002C000012B491EFBD270470022F6E710B51346FA
:1002D0000A4604461946FFF7F0FF204610BD421EAD
:1002E00012F8013F002BFBD111F8013B02F8013B52
:1002F000002BF9D1704730B505462A460B4612F857
:10030000010B13F8014B08B1A042F8D01CB1002832
:1003100002D06D1CF1E7284630BDCAB2401E10F86D
:10032000011F8A4202D00029F9D100207047421CE7
:1003300010F8011B0029FBD1801A704710B500226C
:1003400000E0521C835C8C5CA34201D1002BF8D1ED
:10035000D8B2E1B2401A10BD30B5044600200346C1
:1003600000E05B1C934203D2E05CCD5C401BF8D004
:1003700030BD034611F8012B00F8012B002AF9D1FA
:100380001846704730B505460020034600E05B1C68
:10039000934205D2EC5CC85C201A01D1002CF6D146
:1003A00030BD0246C9B200E0401C0378002BFBD1EF
:1003B00002E003788B4203D0401E9042F9D2002025
:1003C000704710B54843044610F09CFF002805D044
:1003D0000021002C02D0641E0155FAE710BD000078
:1003E0000FB400B58DB010A909900B9000914FF09B
:1003F000FF300A9000200C900548069005480790B1
:100400006A4609A80F9900F03BFD0DB05DF814FB9A
:100410009D0E0408BB0E04082DE9FF5F1D464FF03A
:10042000FF3BD5E9014691465F464FF00008A969B8
:100430007F1C01988847296A824688470028F6D1A0
:100440001AF101000CD024F4C064002E19DD6006FE
:1004500014D5BAF12B0F09D0BAF12D0F0ED103E04C
:10046000584604B0BDE8F09F44F48064A9697F1C3D
:1004700001988847761E8246002E02DDBAF1300FC1
:1004800003D0B9F1000F26D032E0761EA96944F4FA
:1004900000747F1C019888478246002E05DDBAF162
:1004A000780F06D0BAF1580F03D0B9F1000F10D071
:1004B0001EE0B9F1000F02D0B9F1100F18D1761E6D
:1004C000A96924F400747F1C019888478246102093
:1004D00002E0082000E00A20814609E008FB090844
:1004E000761EA96944F400747F1C019888478246EF
:1004F000002E05DD4946504600F0AEFC0028EDDA3E
:10050000E96901988847A00502D46FF00100A8E7C7
:10051000E00727D1600614D5600502D5C8F10000B8
:1005200000E04046296801F104022A6009682205BA
:1005300001D5087016E0220701D5088012E0086096
:1005400010E0286800F1040129600068210502D547
:1005500080F8008006E0210702D5A0F8008001E0C5
:10056000C0F8008038467CE72DE9FF4F087881B05D
:100570009946FF2805D0491C2D2804D000240023CB
:1005800008E000230BE00124F9E703EB830300EB11
:100590004303491C0878FF28F7D104B15B420020CF
:1005A0000090147801462D2C01D02B2C04D1521C24
:1005B0002D2C12D00024009400251678FF2E0ED08A
:1005C0000A24A0FB04C801FB0481002700FB0711DB
:1005D000521C16EB0C006941EFE70124EBE799444C
:1005E00050EA010206D101980021C0E9001105B0CE
:1005F000BDE8F08F0024A84D2646DFF8A08200F069
:10060000BBFD82468B46B9F1000002DAC9F1000752
:1006100014E0074612E0F80707D022462B46304682
:10062000414600F02BFA0646884622462B461046E5
:10063000194600F023FA04460D467F10002FEAD138
:10064000B9F1000F324643465046594602DA00F0EF
:1006500087FA01E000F012FA009A0AB181F0004135
:10066000019AC2E90001C2E72DE9FF4F1F468DB094
:10067000D7E901464FF0FF382E2045464FF00009DC
:100680000B90B9696D1C0E988847396A8246884775
:100690000028F6D11AF101000AD024F4D064002E0B
:1006A00012DDBAF12B0F08D0BAF12D0F0CD102E0F8
:1006B000404611B09CE744F48064B9696D1C0E9803
:1006C00088478246A6F101066946600501D52D20BE
:1006D00000E02B208DF8000001F1010B0DF1200846
:1006E00009E0B9696D1C0E98884782460F98761EFE
:1006F00044F400740560002E02DDBAF1300FF0D032
:100700000B998A453ED144F0800406E00F99681C9D
:10071000A9F1010944F400740860761EB9696D1CE2
:100720000E98884782463028F0D02BE00B998A45F6
:1007300005D1200603D444F08004761E18E050460C
:1007400010F0DAFE08B3761E0DF1130144F40074C4
:100750008B4508D2AAF130000BF8010B200607D513
:10076000A9F1010003E0200602D409F1010081464D
:10077000A00502D50F99681C0860B9696D1C0E9818
:1007800088478246002ED1DC54E0002E52DDBAF1BB
:10079000650F02D0BAF1450F4CD1A0054AD5761E9F
:1007A000B96924F440746D1C0E9888478246002E67
:1007B0000DDD2B2804D0BAF12D0F08D144F480743C
:1007C000B9696D1C0E9888478246A6F10106E005BE
:1007D00001D52D2100E02B2108F8011BCDF82C803C
:1007E00021E0761E0DF1290144F4007488450CD2F5
:1007F000AAF1300010F0FF0088F8000002D10B9938
:10080000884509D908F1010806E0E00501D524482A
:1008100001E042F20F708146B9696D1C0E9888475D
:1008200082460F980560002E04DD504610F064FEED
:100830000028D6D1F9690E988847FF208BF8000070
:1008400088F800000020069007904B466A4608A9E9
:1008500006A8FFF789FEA00502D46FF0010028E783
:1008600014F0240F0AD0E00714D1DDE9061238682D
:10087000031D3B600068C0E900120BE0DDE90601E2
:1008800000F09EFC0146E00704D13868021D3A6082
:100890000068016028460CE7000024400000F03F9B
:1008A000F1D8FFFF2DE9F04791460F4680460446F8
:1008B000002614F8015B2DB1FFF7CCFC0068405D09
:1008C000C007F6D12B2D02D02D2D18D0641E4A461C
:1008D0003946204600F002FB27B13968A14201D118
:1008E000C7F8008071054FF002040BD54042002884
:1008F00003DD10F07FFC0460A007BDE8F08746F43C
:100900008066E4E70028F8DA10F074FC04606FF009
:100910000040F2E770B5064610F06CFC046805462E
:100920000A2200213046FFF7BDFF2C6070BD2DE983
:10093000FE4F804681EA0300C00F0C46009021F074
:10094000004123F00045B8EB0200A94105D2404622
:10095000214690461C460B46024623F000401043B9
:1009600004D14046214603B0BDE8F08F270DC7F300
:100970000A00C3F30A510290401A0190402866DA37
:10098000C3F3130040F4801B0098924620B100236B
:10099000D2EB030A63EB0B0B01985946C0F14002FE
:1009A000504600F028FA06460D4650465946019A30
:1009B00000F040FA10EB08006141002487EA115270
:1009C00084EAE7731A433BD0009A3AB3019A012AAA
:1009D0004FEA075210DC001B61EB02014FF00042AE
:1009E00002EA0752CDE90042001C41F5801132466F
:1009F0002B4600F01EFBB6E7001B61EB0201001C5A
:100A000041F5801300185B412018A2F5001747EB51
:100A1000030140EAD570B6196D4111E06D084FEA47
:100A2000360645EAC0754FEA0752001B61EB02012A
:100A3000001C41F5801149084FEA3000001951416E
:100A400032462B4603B0BDE8F04F00F0E5BA0098FF
:100A5000012240000023D0EB020263EBE073009818
:100A600021464FEAE074B8EB000061EB0401E9E7CE
:100A700083F000435BE781F0004158E72DE9FE4F2A
:100A800081EA030404F0004421F0004100944FF097
:100A9000000B23F0004350EA010402D052EA0304A1
:100AA00004D10020014603B0BDE8F08FC3F30A541F
:100AB000C1F30A552C44A4F2F3340194A0FB025470
:100AC000C1F3130141F48011C3F3130343F4801302
:100AD00001FB024400FB034E840A970A44EA815456
:100AE00047EA8357A4FB076802958D0A05FB078533
:100AF0004FEA932C04FB0C542705029D4FEA06583D
:100B000047EA1637B5EB08056EEB070C870E920E19
:100B100047EA811742EA8312A7FB0201B6EB0B01F9
:100B200064EB00042B0D43EA0C335E1844EB1C50BD
:100B3000DA465146E7FB0201C5F313044FEA0B33D3
:100B400043EA14534FEA0432019C43EA0603A4F13A
:100B50000C040294009CCDE900B400F06AFAA2E70C
:100B60002DE9F04D81EA030404F0004B21F000452B
:100B700014464FF0000A23F0004150EA050220D04D
:100B800054EA01021DD0C5F30A570246C5F3130308
:100B9000C1F31300C1F30A5640F4801543F48013E7
:100BA000A7EB0608101BD64608F2FD3873EB0500CC
:100BB00002D308F1010801E092185B41B8F1000F7F
:100BC00003DA00200146BDE8F08D00204FF48011CB
:100BD000064684460EE0171B73EB050705D3121B70
:100BE00063EB050306434CEA010C49084FEA300069
:100BF00092185B4150EA0107EDD152EA030012D08E
:100C000082EA040083EA0501084303D100224FF081
:100C1000004308E0101BAB4102D20122002302E096
:100C20006FF0010253101AEB06004CEB085110EB69
:100C30000A0041EB0B01BDE8F04D00F0EDB970B5D5
:100C400021F0004303430CD0C1F30A550024D5EB37
:100C5000040564EB0403D617AD1AB34102DB002090
:100C6000014670BD201841EB025170BD0EB5C10F99
:100C700080EAE0700844CA07002140F233438DE85F
:100C80000E000A460B4600F0D4F903B000BD0EB5C5
:100C900040F2334102910021CDE900110A460B4692
:100CA00000F0C7F903B000BD70B5C1F30A5201F0FE
:100CB00000450024C1F3130140F2FF3341F48011D9
:100CC0009A4201DA002070BD40F233439A42A2F208
:100CD000334203DC524200F09DF800E090402C4388
:100CE000F1D0404270BDC1F30A5210B5C1F31301F7
:100CF00040F2FF3341F480119A4201DA002010BD26
:100D000040F233439A42A2F2334203DC524200F0F3
:100D100081F810BD904010BD30B5002904DB4FF0C4
:100D20000044404264EB0101002B04DB4FF000441F
:100D3000524264EB03038B4208BF824230BD000085
:100D400030B5002904DB4FF00044404264EB010160
:100D5000002B04DB4FF00044524264EB0303994242
:100D600008BF904230BD000030B50B460146002060
:100D70002022012409E021FA02F59D4205D303FA5D
:100D800002F5491B04FA02F52844151EA2F10102DE
:100D9000F1DC30BD2DE9F05F0546002092469B4610
:100DA00088460646814640241BE028464146474681
:100DB000224600F02FF853465A46C01A914110D3EC
:100DC00011461846224600F016F82D1A67EB010866
:100DD0004F4622460120002100F00DF817EB0009D4
:100DE0004E41201EA4F10104DFDC484631462A466C
:100DF0004346BDE8F09F202A04DB203A00FA02F1C6
:100E0000002070479140C2F1200320FA03F31943F8
:100E100090407047202A04DB203A21FA02F000219A
:100E2000704721FA02F3D040C2F1200291400843FA
:100E300019467047202A06DBCB17203A41FA02F008
:100E400043EAE07306E041FA02F3D040C2F1200227
:100E500091400843194670473A2800D2303820F0B4
:100E60002002412A01D3A2F13700884201D34FF07A
:100E7000FF307047026811441378016018467047CC
:100E8000D160044951610449116200211161114688
:100E900000F0C4B9750E04085D020408426842B14E
:100EA000016811F8013B23B1521EC0E90012184637
:100EB00070470121C160881E704742685AB1C368FB
:100EC000016843B983688B4205D0491E521CC0E9B2
:100ED0000012002070474FF0FF3070472DE9F05F9F
:100EE00082460078002715468B460AF10104B94670
:100EF000302801D09DB113E014F8010B01277828A8
:100F000003D0582801D045B10AE00DB1102D07D10A
:100F10000027102514F8010B02E0082500E00A253F
:100F20000026B0460EE005FB080005FB06F1012790
:100F300001EB10461FFA80F8B6F5803F00D3B946A2
:100F400014F8010B2946FFF787FF0028EBDABBF105
:100F5000000F05D00FB1641E00E05446CBF80040EE
:100F6000B9F1000F06D010F045F902210160C81E4A
:100F7000BDE8F09F48EA0640FAE700000FB40023FE
:100F800000B589B00CA900910B996FF00042CB60BD
:100F90001E4B06931E4B07930423CDE901321D4AD5
:100FA000089202466B460020FFF75EFB09B05DF831
:100FB00014FB70B586B006464FF0FF300091CDE9C6
:100FC0000101002015460C4604903246694604A8EB
:100FD000FFF7D4FF03460498211825B108B10A464B
:100FE00000E022462A6000280DD0002B02DD009888
:100FF000884208D0081B0094CDE9010432466946B6
:1010000004A8FFF7BBFF06B070BD00009D0E0408EA
:10101000BB0E04085D02040810B5002B08DA401C62
:1010200041F1000192185B411A4301D120F0010007
:1010300010BD2DE9F04D92469B4611B1B1FA81F2F7
:1010400002E0B0FA80F220329046FFF7D4FE044668
:101050000F4640EA0A0041EA0B0153465A4608434C
:1010600003D120463946BDE8F08D114653EA010010
:1010700015D0C8F140025046FFF7CCFE05460E469B
:10108000504659464246FFF7B6FE084301D00120BC
:1010900000E00020054346EAE0762C4337430A98F7
:1010A0004FEA4453A0EB08004FEAD4240A304FF033
:1010B000000244EA47544FEAD72502D500200146F2
:1010C000D1E7010510196941DDE9084500196941B9
:1010D000BDE8F04DA0E72DE9F04D00231A461B1A9C
:1010E0008A4103DB00200146BDE8F08DC1F30A52BE
:1010F000C1F3130141F480154FF0000BD10702D169
:1011000000186D41521E0027044640F2FF11384678
:1011100001EB620A3E468046024600204FF48011F1
:10112000FFF778FEC2197141BB1846EB0100B4EB22
:10113000030C75EB000C04D3E41A65EB00051746AD
:101140000E46241908F101006D4180463428E3DD84
:10115000F91946EB0600091BA84103D24FF0FF32F4
:10116000134601E0002213461BEB070046EB0A5131
:10117000BDE8F04DFFF750BF0EB540F2334202928A
:101180000022CDE900221346FFF753FF03B000BD54
:10119000C1F30A52C1F3130140F2FF3341F480114D
:1011A0009A4202DA00200146704740F233439A42E5
:1011B000A2F2334202DC5242FFF72CBEFFF71BBE05
:1011C00001F0004330B421F0004150EA010206D0A2
:1011D0000A0DA2F56072C1F31301002A02DC30BCD3
:1011E00000207047440F44EAC104C100E01830BC3D
:1011F00000EBC25000F0A8B9064C074D06E0E068CD
:1012000040F0010394E8070098471034AC42F6D34D
:10121000FEF7BCFF841E0608A41E06082DE9F34F46
:101220008BB04FF0000801F10C000C464FF0010BA1
:1012300046460DF1080A0190626901210198904724
:1012400005002DD0252D2CD0216A8847C0B16269B8
:10125000012101989047216A88470028F7D1411E53
:1012600062690198904700E0761CA1690B98884755
:10127000216A88470028F7D1E1690B988847DBE7A6
:10128000A1690B9888470746A84201D1761CD3E78D
:10129000E1690B9888477F1C02D1B8F1000F6FD02D
:1012A00045E1002762693D463946019890472A2862
:1012B00004D162690121019890470125DFF88492E9
:1012C0006269012101989047A0F130010A290AD2F0
:1012D0004F45E5DC07EB870100EB4107303FDFD4EA
:1012E00045F01005ECE7E90601D46FF000476C28E3
:1012F0000AD04C2814D0682815D06A280DD074283C
:101300001CD07A281AD01DE062690121019890470B
:101310006C2802D045F0040514E045F002050DE00C
:1013200045F020050AE0626901210198904768288C
:1013300002D045F0080505E045F400656269012129
:1013400001989047C4E9015765283DD019DC582819
:1013500079D00CDC452837D004DC252826D041285C
:1013600031D131E046282FD047282CD12CE05B2802
:101370007FD0612828D063287BD0642823D159E00E
:10138000CFE06F2847D008DC66281DD067281BD027
:10139000692821D06E2816D127E0702844D0732800
:1013A00067D0752846D078280DD14CE0A1690B98FC
:1013B0008847054625283FF469AFE1690B988847BF
:1013C0006D1C3FF46AAFB2E023466A466FF001003D
:1013D0000B99FFF749F99DE045F040006060A807D0
:1013E00023464FF0000235D43DE0206800F10401AF
:1013F00021600068290501D506701DE7290701D580
:10140000068019E7A90704D54FEAE671C0E9006133
:1014100012E7066010E745F040006060A807234629
:101420004FF0080216D41EE040F60E0125EA010036
:10143000606016E045F040006060A80723464FF06A
:101440000A0207D40FE045F040006060A80708D505
:10145000234610226FF001000B99AFF3008059E092
:1014600007E0234610226FF001000B99FEF7D4FF2E
:1014700050E04FF000094F464B46632802D05B28EE
:1014800006D040E0E80601D40120A06001273AE040
:1014900062690121019890475E2805D14FF001094A
:1014A0006269494601989047216939B900210B4684
:1014B000524642F82130491C0829FADBB0B32169B1
:1014C00069B9C11700EBD1614B110AEB830221F01E
:1014D0001F01411A012013688840034313606269A9
:1014E0000121019890475D28E8D1B9F1000F09D09A
:1014F0000020514651F82020D24341F82020401CC2
:101500000828F7DB02AB224600976FF001000B9929
:10151000AFF3008000280CDA401C08D1BBF1000FAB
:1015200005D04FF0FF300DB0BDE8F08FFFE740462B
:10153000F9E7E90701D108F1010806444FF0000B73
:101540007AE60000CCCCCC0C0029A8BF7047401C28
:10155000490008BF20F00100704710B4B0FA80FCC9
:1015600000FA0CF050EA010404BF10BC704749B106
:10157000CCF1200421FA04F411FA0CF118BF012176
:1015800021430843A3EB0C01CB1D0106000A002BED
:10159000BEBF002010BC704700EBC35010440029B0
:1015A000A4BF10BC7047401C490008BF20F00100D8
:1015B00010BC704770B501EB020410F8015B15F028
:1015C000070301D110F8013B2A1106D110F8012BB5
:1015D00003E010F8016B01F8016B5B1EF9D12B07DA
:1015E00005D40023521E0FD401F8013BFAE710F88E
:1015F000013B02F10202A1EB030303E013F8015BDC
:1016000001F8015B521EF9D5A142D6D3002070BD6E
:1016100070B501219AB088050BF094F901210D02F3
:1016200028460BF0BFF902F0B9F93C480024CDE997
:1016300000403B48CDE902044620CDE90404A8005F
:101640000690400007908000CDE908050AA9000136
:10165000012531C1334E0D9430460E9401F09AF9B4
:101660006946304601F028FA0121304601F088F938
:101670004FF44030CDE915404FF47060CDE917408C
:1016800015A800F05DF80F948DF8405007208DF8F4
:101690004150119413948DF8500000F079F81F4CCC
:1016A0000FA94C3C204600F0A3F80323012200219F
:1016B000204600F0C3F8032302220121204600F057
:1016C000BDF803231A460221204600F0B7F8032391
:1016D00004220A21204600F0B1F8032305220B2141
:1016E000204600F0ABF8032306220C21204600F030
:1016F000A5F8032307220D21204600F09FF80121C1
:10170000204600F03BF80121204600F02DF8012191
:10171000204600F00BF81AB070BD00004C200140CC
:10172000787500201064024000F058B800298168E4
:1017300002D041F0010101E021F001018160704718
:10174000074B10B51A6807490A40D0E90014214335
:10175000D0E90240044321431143196010BD000049
:1017600004230140E030FCFF0029816802D041F4ED
:10177000807101E021F480718160704700298168E7
:1017800002D041F4007101E021F4007181607047E2
:1017900010B501210C0220460BF010F92046BDE8DF
:1017A000104000210BF00AB910B500220A4C114676
:1017B000C1EBC10304EB430333F81030491CC3F3FE
:1017C0000B031A440A29F3D30A20B2FBF0F048F6BF
:1017D000CC514843000B10BD7875002010B5FFF7C1
:1017E00017FF024800F064F810BD0000002001401F
:1017F00030B542680F4B0C791A400B6842EA04225C
:101800001343436082680C4B4D791A40D1E903437E
:1018100023438C6844EA4504234313438360C26A2C
:10182000097D22F47002491EC9B242EA0151C16227
:1018300030BD0000FFFEFFFCFDF7FFC070B50724C0
:1018400009290AD9C568A1F10A0606EB4606B44083
:10185000A543B3401D43C56007E0056901EB4106A0
:10186000B440A543B3401D4305611F23072A09D295
:10187000446B521E02EB820293409C4391400C4306
:10188000446370BD0D2A09D2046BD21F02EB8202A1
:1018900093409C4391400C43046370BDC46A0D3A6D
:1018A00002EB820293409C4391400C43C46270BDA2
:1018B000816841F080418160704700002DE9F04768
:1018C0002E4FDFF8BCA02F4D38782F4CC0074FF0BB
:1018D00000064FF0010935D0288860BB2B4802F084
:1018E00057F9DFF8AC801C2807D12848D8F8041035
:1018F000C01E88470F201CF00BFCD8F804102548A8
:1019000088473878800705D584F8009000200BF0D0
:101910003FFD78B3BAF8000028801F4800780328FC
:1019200003D0042801D00F2003E01C4800780106F2
:1019300002D41CF0EDFB05E000F07F006421484379
:101940000DF0EEF816480078C1070FD0698869B924
:10195000800705D584F8009001200BF019FD48B1EF
:10196000BAF8020068800F201CF0D2FB267001201C
:10197000BDE8F087FFE726700020F9E7440000206B
:10198000400000203600002066000020730E00207A
:101990002C0E002087110020470000205E00002050
:1019A0004500002070477047FEE700002DE9F04F2A
:1019B0008A4681468BB09B469046012108200AF05A
:1019C000C1FF2F4F09220021384602F0C6F8092234
:1019D0000121384602F0C1F802208DF820008DF870
:1019E0002100002403268DF82240012507968DF85A
:1019F000235007A9384602F05FF814208DF8240020
:101A00008DF825608DF826608DF8275009A803F021
:101A10000FFF1C4E304600F021F9684600F051FAE5
:101A20008DF806408DF807408DF802408DF8039040
:101A30008DF804A002948DF80580ADF800B06946D9
:101A4000304600F08BF98DF816408DF817408DF870
:101A50001850ADF80C40ADF81040ADF80E40ADF8A0
:101A60001240ADF814408DF8195003A800F00CF99D
:101A700001220221304600F069F90BB0BDE8F08F79
:101A8000000C02400064004030B5134885B0006887
:101A9000124D10F4014F06D000220221284600F01A
:101AA00055F905B030BD0E4C207858B10121FC200D
:101AB0000DF01AFE0020207001466A46284600F00C
:101AC000C1F9EEE76A460021284600F0BBF96946F5
:101AD00004480AF0FAFEE4E718640040006400409D
:101AE0007C000020486100202DE9F04F8A468146A5
:101AF0004FF0C0668BB09B469046012130460AF0FD
:101B000039FF012102200AF01DFF324F09220C216A
:101B1000384602F022F809220D21384602F01DF85D
:101B20007013079002208DF820008DF8210000240A
:101B30008DF8224001258DF8235007A9384601F081
:101B4000BBFF012130460AF015FF234E304600F05E
:101B500085F8684600F0B5F940208DF824008DF82E
:101B6000064004218DF807408DF802408DF82510BD
:101B70008DF803908DF804A08DF8261002948DF84E
:101B80000580ADF800B08DF8275009A803F050FE8D
:101B90006946304600F0E2F80E208DF816008DF808
:101BA00017408DF81850ADF80C40ADF81040ADF866
:101BB0000E40ADF81240ADF814408DF8195003A84E
:101BC00000F062F801220221304600F0BFF80BB0AD
:101BD000BDE8F08F000402400068004030B51348B3
:101BE00085B00068124D10F4014F06D0002202218A
:101BF000284600F0ABF805B030BD0E4C207858B147
:101C00000121FC200DF070FD0020207001466A4685
:101C1000284600F017F9EEE76A460021284600F052
:101C200011F9694604480AF050FEE4E718680040DC
:101C3000006800407C000020606B00202DE9F0412E
:101C40001C4615460E460746FFF7B0FE23462A46B9
:101C500031463846BDE8F041FFF746BF094910B5A7
:101C600088424FF0010101D14C0601E04FF0806441
:101C700020460AF08BFE2046BDE8104000210AF005
:101C800085BE000000640040F0B5827A01219140D9
:101C90002D4A136843F0010313602B4B1C331C685F
:101CA0008C431C60284C284D077B0C3440352E1D7E
:101CB000A7B927688F4327604788B0F806C047EA6E
:101CC0000C4790F80AC045F83C700788B0F804C08B
:101CD00047EA0C4790F80AC046F83C70077B012F92
:101CE0000ED127680F4327600468877A4FEA34448F
:101CF00045F837404468857A4FEA344446F8354021
:101D0000114CC57A241D002D256806D00D43256091
:101D10000D4C0589143415B104E08D43F7E72568AF
:101D20008D4325600589012D02D125680D4325606D
:101D3000407B012802D1186808431860106820F021
:101D400001001060F0BD000000660040002A4269FA
:101D500001D00A4300E08A434261704710B503682E
:101D6000002223F002030360036843F001030360D1
:101D70004FF6FF7300E0521C4468E40701D19A4219
:101D8000F9D14268D2073ED08A79012A02683CD054
:101D900022F080020260CA79012A026838D022F05B
:101DA000400202600A7A012A026834D022F020023E
:101DB00002604A7A012A026830D022F010020260E2
:101DC0008A7A012A02682CD022F008020260CA7ABC
:101DD000012A026828D022F0040202608A78CC78B6
:101DE000920742EA04620C7942EA04424C7909887B
:101DF00042EA0452491E0A43C261016821F001010E
:101E00000160002114E0002010BD42F08002C1E713
:101E100042F04002C5E742F02002C9E742F010025A
:101E2000CDE742F00802D1E742F00402D5E7491CB1
:101E30004268D20701D09942F9D14068C007E2D187
:101E4000012010BD10B500EB0113D3F8B04114F020
:101E500004041472D3F8B0412BD0E408C2F8044053
:101E600003F5D8731C6804F0020454725C6804F033
:101E70000F0494725C68240AD4749C68D4729C68C1
:101E8000240A14739C68240C54739C68240E947365
:101E9000DC68D473DC68240A1474DC68240C547481
:101EA000DB681B0E937439B1016941F020010161B7
:101EB00010BD640D1460D3E7C16841F02001C1601A
:101EC00010BD00218171C171017241728172C172B4
:101ED0008170C170032101710221417101210180D2
:101EE000704730B50246002093685B0108D49068C3
:101EF000000101D5012003E09068C00031D5022027
:101F000002EB0012D2F8803103F00103C2F88031F5
:101F10000B7A43B3D2F880414D681C434B7A43EAB5
:101F2000C5031C43C2F880418B7A02F5C07203F0EE
:101F30000F038B72536823F00F03536053688C7A3E
:101F400023435360CB7ACC6843EA04239360CB7B72
:101F5000096943EA0121D160116841F00101116072
:101F600030BD042030BDD2F880314C7A23430C8838
:101F700043EA4453C2F88031D6E700002DE9F0412E
:101F8000DFF8B880002588B0B8F868310E461C0A22
:101F9000012C01D10826DFB2002305AC06E000BF0A
:101FA00010F801CB04F803C05B1C9BB28B42F7D343
:101FB00002E06754491CC9B2B142FAD30020002A9A
:101FC00006DBC2F30E01CDE900108DF8080006E033
:101FD00022F06041CDE9000104218DF808108DF850
:101FE00009008DF80A600020694604E0225C0B18A5
:101FF000401CDA72C0B29DF80A208242F6D8104E18
:10200000104F114C98F84400062810D00E280ED01E
:1020100003280CD00B280AD069463846FFF761FF29
:102020006D1C042806D0012008B0BDE8F081694687
:102030003046F3E7A542E5D30020F5E7A40C0020E5
:102040000068004000640040FEFF0F002DE9FF5FC4
:102050000D460024834622460221FFF777FEE8065C
:10206000A046314E4FF00107454625D541F6FF7990
:102070004FF6FF7A56F824008DF80A50C00040F061
:102080000400010CADF80010641C8DF80B808DF875
:102090000C70ADF80200ADF80490A4B2ADF806A043
:1020A000ADF808808DF80D706846FFF7EDFD6D1CEA
:1020B000ADB20E2DDED330E036F82400641C4205AC
:1020C000A0B236F82010401C4B0581B256F8210012
:1020D000491C42EA40108AB256F822108DF80A5084
:1020E00043EA4111030CADF80030ADF80200080CD2
:1020F000ADF80400521C8DF80B708DF80C8094B272
:10210000ADF80610ADF808808DF80D706846FFF741
:10211000BBFD6D1CADB20E2DCED30122022158465F
:10212000FFF714FEBDE8FF9F5C5600202DE9F04F3D
:1021300083464E48DFF838A199B0D0E95C76144662
:102140000D465246382101A8FEF7B7F80A2C06D9E9
:102150000221F3200DF0C8FA19B0BDE8F08FFAB2F1
:10216000F7B2002001AE10E0AB7895F801C043F063
:10217000180329781B0603EB0C4303EB01211144E0
:10218000ED1C46F82010401C80B2A042ECD3002584
:10219000A8464FF0010925E056F8250047F0E05128
:1021A000C0006FEAC10240F004014FEA114CADF8E3
:1021B00040C042F00400ADF842106D1C010C8DF8D7
:1021C0004A50ADF844108DF84B808DF84C90ADF826
:1021D0004600ADF848808DF84D9010A8FFF754FDEB
:1021E0006D1CADB2A542D7D3224846F825006D1C20
:1021F000A8B2214946F82010401C80B21F4946F879
:102200002010401C80B2251D46F820A026E000BF0B
:1022100056F824001A49C00040F0040039434FEA40
:10222000104C6FEAC101ADF840C041F00401ADF8B7
:102230004200641C080C8DF84A40ADF844008DF84B
:102240004B808DF84C90ADF84610ADF848808DF875
:102250004D9010A8FFF718FD641CA4B2AC42D7D370
:10226000012202215846FFF771FD75E7A40C0020FA
:1022700000FFEC9800FFE89800FFEA9800FFEB9859
:1022800000FF001CFEB50F460646FFF7E7FC684658
:10229000FFF717FE00208DF8060007F0E0018DF82B
:1022A00007000290202904D0402902D0802903D1C0
:1022B00001E0012000E002208DF802001148124ADE
:1022C0000021006801EB410352F82330834206D11C
:1022D00001EB410002EB8000D0E9014502E0491C1E
:1022E0001929EFD3200A8DF80400200C8DF8034043
:1022F0008DF80500ADF8005069463046FFF72EFD19
:10230000FEBD0000A40C0020B8F005082DE9FF4731
:10231000384E0F468146D6E95C4500220221FFF780
:1023200015FDDFF8D480F80607D5E943E000CA00C0
:1023300040F0040142F0040003E0E843610548EA8C
:1023400040502E4B0024994502D18DF80A4002E0FE
:102350000E228DF80A200A0CADF80020ADF802100C
:10236000010C0125ADF804108DF80B408DF80C50D0
:10237000ADF80600ADF808408DF80D506846FFF73F
:1023800083FC012202214846FFF7E0FCF8072ED02B
:10239000D6E95E01FA0607D5C943C000CA0040F07D
:1023A000040142F0040003E0CA43410548EA4250F8
:1023B0009DF80A208DF80C50521C8DF80A200A0C4A
:1023C000ADF80020ADF80210010CADF804108DF846
:1023D0000B40ADF80600ADF808408DF80D5068468A
:1023E000FFF752FC012202214846FFF7AFFCBDE88F
:1023F000FF870000A40C0020F8FF010000640040EB
:102400002DE9FF4122A306240FCB8DE80F00002108
:1024100001201AF06DFF224E00256F464FF0640830
:10242000785D01460BF07AFA00200AF019FF0520CA
:102430001BF06EFE01200AF013FF05201BF068FE62
:1024400000200AF00DFFB0FBF8F03055641C6D1C45
:10245000EDB2E4B20D2DE3D33079401F062813D23C
:10246000DFE800F003030303090901F091FA0121F9
:102470008143717101E0FF207071A41E74700848DF
:102480000DF0D6FCBDE8FF8101F082FAF4E7000010
:10249000010203060708090A0B0C0D0E0F000000CD
:1024A0001214002070B50A480025144605600AF091
:1024B000FFFE20460EF0FAFB064864210570064830
:1024C000FDF702FFBDE8704064210448FDF7FCBE43
:1024D000580000204400002087110020700E0020CA
:1024E0001046024A0121117006F0BCBA67000020B4
:1024F00010B5144608B90B48416809B11046884721
:1025000009480078400705D40848094902880A802C
:1025100040884880E27900210648F12A00D1017004
:10252000017010BD2C0E002044000020400000204F
:10253000360000208000002010B51446104608F038
:102540004BFCA078BDE8104001210DF0CDB8000093
:1025500070B5164608B91048046810490025087877
:10256000012802D10D7008F063FC0CB13046A04781
:102570000B480178C90708D00A480B4902880A802D
:10258000408848800948057070BD0570642108487E
:10259000FDF79AFEF6E700002C0E002070000020E8
:1025A0004400002040000020360000208000002071
:1025B0008711002003491046C968002900D0084748
:1025C000704700002C0E002010B5D41CD17804A058
:1025D00015F05CFE2178084801B14168816110BDA9
:1025E000674B656570616C77617973466C61673DB7
:1025F0003D253032780000002C0E002010B5907878
:102600001446402804D1E01C01F0C2FA1C2814D062
:10261000207861784218D21C21460D48FDF72DFE26
:102620000B48817801F00F0141F030018170A078F2
:102630000021BDE810400DF057B8207861784218AD
:10264000D21C21460348FDF718FEA0780121F0E7CF
:1026500087110020700E00202DE9F0410AF028FEBD
:1026600001200BF0EFF8C8201BF052FD02200AF009
:10267000F7FD1F4D0020042428706870FC20A8700E
:102680000620E870FFF78EF901264FF00A0864274C
:10269000B6FBF8F108FB116000EB0110C0B20BF0C3
:1026A000D1F803201BF034FD02200AF0D9FD192EC9
:1026B00012D064207043B0FBF7F02855641C761CE0
:1026C000A4B2642EE4D9A41E200A28706C70BDE860
:1026D000F04107480DF0ACBBB0FBF7F01638072807
:1026E00003D219202855641CA4B21A26D0E7000092
:1026F0001214002030B4134602E0C518C45C6C719B
:102700005B1EFAD2302303700B0E43700B0C8370E8
:102710000B0AC370017130BC511DAFF3008070B55E
:102720000A4602E08418835C2371521EFAD2A52265
:10273000027042700A0A8270C170491D431800225B
:1027400003F8012C02224C1E06E013F8015C865CA3
:10275000521C354403F8015CA242F6D313F8010D74
:10276000C0431870084670BD2DE9F04F91B0814606
:102770008B4600244FF00A0A684600F065F80028EE
:102780003DD09DF80400082807D2044622460DF1EA
:1027900005014846FDF771FD47E00127B7EB101F23
:1027A00043D19DF8051000F00F0001EB0024DDF887
:1027B0000610C9F80010BDF80A10A9F8041040214D
:1027C0006846FDF781FD06260125DFF864802AE0D2
:1027D00050461BF09DFCC8225946684600F034F86C
:1027E000042803D2032188F8081007E09DF804109C
:1027F00005F12000814205D088F80870002011B052
:10280000BDE8F08F09EB0600DDF805100160BDF8AA
:10281000091081806D1C9DF80B10EDB281710F2D98
:1028200000D90025F61DA642D2D32046E7E70000D6
:10283000C003002008B50021ADF80010694603F080
:102840006FF9BDF8000008BDF8B504460020174632
:10285000ADF800000546144E20E03A466946204691
:1028600003F05EF9BDF80010204600F059F880B280
:10287000ADF80000042803D328466D1C142803D9A2
:10288000032030720020F8BDE0782178A27800EBB8
:1028900001606178090401EB0221084471698142F9
:1028A000DBD1BDF80000F8BDC003002070B590B0CA
:1028B0000C46064640216846FDF706FD164D6CB1F4
:1028C0006846E1B2082C0ED28DF80010224631463F
:1028D000401CFDF7D2FC0822E96812E003202872B0
:1028E000002010B070BD102202EB14228DF80020E1
:1028F0008DF8011022463146801CFDF7BEFC296987
:1029000008226846FFF7F6FE82B2694603480DF0DA
:10291000C1F90120E5E70000C00300206C2500207C
:1029200010B50024062905D9891F0C460A46411D09
:10293000FDF7A3FC204610BD7FB5104C054640F2C4
:1029400025560022314620680DF084F80020ADF8AD
:102950000400ADF80600ADF80800ADF80C000C203E
:10296000ADF80A000095694600200AF09FFD01229B
:10297000314620680DF06EF87FBD0000D4000020C5
:102980000029016802D041F0010101E021F00101BC
:10299000016070472DE9F043016821F001010160F9
:1029A0000021016041608160C160016121214161BC
:1029B0003C493C4A3D251039904202D18D60BDE82A
:1029C000F083384A4FF474661832904201D18E6019
:1029D000F5E7344A4FF474173032904201D18F60DA
:1029E000EDE7304A4FF0746C4832904202D1C1F8A2
:1029F00008C0E4E72B4B2C4A6033984201D1CA60EF
:102A0000DDE7284C294B7834A04201D1CB60D6E7D2
:102A1000DFF89080264C08F19008404501D1CC6049
:102A2000CDE7DFF880804FF03D5908F1A808404518
:102A300002D1C1F80C90C2E71E49DFF8788008394E
:102A4000404501D10D60BAE71A4D1835A84201D1B1
:102A50000E60B4E7174D3035A84201D10F60AEE7E4
:102A6000144D4835A84202D1C1F800C0A7E7114D66
:102A700010496035091FA84201D10A609FE70D4A3D
:102A80007832904201D10B6099E70A4A9032904225
:102A900001D10C6093E7074AA83290428FD1C1F868
:102AA00000908CE7106002403D000020400F0020A5
:102AB00000003D201064024030B50368124ACC6823
:102AC00013400A682243D1E905452C432243CC69CF
:102AD00022430C6A22434C6A22438C6A22434C6B89
:102AE00022438C6B22431A430260426922F007039F
:102AF000D1E90B2422431A4342610A6942604A68C1
:102B000082608968C16030BD3F801CF0F0B591B033
:102B1000044640216846FDF7D7FB0FF087F9060011
:102B20007ED0FEA00FF08AF90246FDA130460FF0DC
:102B300053F9FD480FF082F90246FCA130460FF030
:102B40004BF90FF073F905006BD020460FF076F9C2
:102B50000246F8A128460FF03FF904F11E000FF0DD
:102B60006DF90246F5A128460FF036F94021684676
:102B7000FDF7AAFB3834F3A1D4E9002368460EF030
:102B8000FFFA68460FF05AF90246F0A128460FF006
:102B900023F940216846FDF797FBEDA16846A2683E
:102BA0000EF0EEFA68460FF049F90246E9A1284610
:102BB0000FF012F940216846FDF786FBD4E90423A3
:102BC000E0A168460EF0DCFA68460FF037F90246DD
:102BD000E1A128460FF000F940216846FDF774FB9B
:102BE000D4E90623D7A168460EF0CAFA68460FF06A
:102BF00025F90246DAA128460FF0EEF84021684692
:102C0000FDF762FBD2A16846226A0EF0B9FA684667
:102C10000FF014F90246D4A128460FF0DDF801E0C8
:102C200049E238E240216846FDF74EFBC8A16846FC
:102C3000626A0EF0A5FA68460FF000F90246CCA1D0
:102C400028460FF0C9F840216846FDF73DFBD4E95E
:102C50000A23BCA168460EF093FA68460FF0EEF81E
:102C60000246C5A128460FF0B7F840216846FDF797
:102C70002BFBD4E90C23B3A168460EF081FA684619
:102C80000FF0DCF80246BEA128460FF0A5F840215F
:102C90006846FDF719FBD4E90E23AAA168460EF099
:102CA0006FFA68460FF0CAF80246B7A128460FF03F
:102CB00093F840216846FDF707FBD4E91023A1A152
:102CC00068460EF05DFA68460FF0B8F80246B0A10B
:102CD00028460FF081F840216846FDF7F5FAD4E95F
:102CE000122398A168460EF04BFA68460FF0A6F83A
:102CF0000246A9A128460FF06FF840216846FDF76B
:102D0000E3FAD4E914238FA168460EF039FA684635
:102D10000FF094F80246A2A128460FF05DF840217A
:102D20006846FDF7D1FAD4E9162386A168460EF06D
:102D300027FA68460FF082F802469BA128460FF05A
:102D40004BF840216846FDF7BFFAD4E918237DA16E
:102D500068460EF015FA68460FF070F8024694A126
:102D600028460FF039F840216846FDF7ADFAD4E95E
:102D70001A2374A168460EF003FA68460FF05EF855
:102D800002468DA128460FF027F840216846FDF73E
:102D90009BFAD4E91C236BA168460EF0F1F9684652
:102DA0000FF04CF8024686A128460FF015F8402196
:102DB0006846FDF789FAD4E91E23383C61A16846CC
:102DC0000EF0DEF968460FF039F802467DA128467C
:102DD0000FF002F804F1B8000FF030F802467BA1C2
:102DE00028460EF0F9FF04F1E0000FF027F8024644
:102DF00078A128460EF0F0FF04F1F4000FF01EF861
:102E0000024675A128460EF0E7FF04F5AA700FF000
:102E100015F8024672A128460EF0DEFF04F5DA70BE
:102E20000FF00CF8024670A128460EF0D5FF04F50D
:102E300005700FF003F802466DA128460EF0CCFF96
:102E400040216846FDF740FA04F51E743DA1D4E91F
:102E5000002368460EF094F968460EF0EFFF024634
:102E600065A128460EF0B8FF40216846FDF72CFA10
:102E7000D4E9022333A168460EF082F968460EF0C9
:102E8000DDFF02465EA128460EF0A6FF40216846FF
:102E9000FDF71AFAD4E904232AA168460EF070F966
:102EA00068460EF0CBFF024656A128460EF094FF6E
:102EB00040216846FDF708FAD4E9062321A16846B7
:102EC0000EF05EF968460EF0B9FF02464FA12846A3
:102ED0000EF082FF40216846FDF7F6F9D4E9082399
:102EE00018A168460EF04CF968460EF0A7FF02469E
:102EF00047A128460EF070FF40216846FDF7E4F92F
:102F0000D4E90A230FA168460EF03AF968460EF09C
:102F100095FF024640A1284680E0000031000000F5
:102F20006D73675479706500CAD5002070726F7038
:102F30000000000074696D6500000000636F646547
:102F400000000000252E3266000000006B696C0056
:102F500025640000737000006D61785374000000F8
:102F60006F7574537400000066726963740000002A
:102F7000656E675370000000656E67466C00000068
:102F800070757454000000006F75745400000000E8
:102F90007072657373000000696E74616B65000088
:102FA000726561637400000074616E6B0000000064
:102FB000636F6F6C000000006675656C4A0000006E
:102FC000766F6C00656E6753000000006661756C7B
:102FD0007400000076696E00666F43757200000031
:102FE000666F566F6C000000626F437572000000E0
:102FF000626F566F6C0000006C6F6164000000002F
:1030000061696E0061696E740000000070776D0088
:103010007072657300000000676173000EF0DCFEE3
:1030200040216846FDF750F9D4E90C23A4F51E743D
:10303000AFF2F00168460EF0A3F868460EF0FEFE0F
:1030400002461EA128460EF0C7FE04F52C700EF0B5
:10305000F5FE02461AA128460EF0BEFE04F2CE206E
:103060000EF0ECFE024618A128460EF0B5FE1748F9
:1030700012F0CEF804460EF075FF07460EF0DEFEA5
:10308000024613A128460EF0A7FE20460EF0E4FEED
:1030900038460EF0B3F82A460FA130460EF09CFEDB
:1030A00030460EF05BFF044601460DA00EF044F8DA
:1030B00020460EF0A3F811B03046F0BD6676000051
:1030C000736F66740000000063766E00A4C0002079
:1030D0006975707200000000646174610000000096
:1030E00025730D0A0000000000B5ADF53F7D1E49B7
:1030F0001EA00EF021F84FF43E716846FDF7E4F88B
:1031000001200AF061FA44F6206011F0F7FA002875
:1031100026D101200AF04CFA01200AF049FA68464B
:1031200010F006FF684600F01FFF1748FDF7FFF894
:10313000024615490DF11E00FDF79FF838A811F061
:10314000D7FA6846FFF7E2FC0146104800690CF028
:103150005DFB64201AF0DCFF03490DA00DF0ECFFCD
:103160000DF53F7D00BD00009A16060877656C637B
:103170006F6D6520746F205B25735D2C68616861DD
:1031800068610D0A0000000040CB002018040020F8
:103190005B25735D207265706F7274206F76657247
:1031A0002C6861686168610D0A00000001F0E8FBAD
:1031B00002F05EF812F062FB0EF074FF41F2883408
:1031C00010F050FA20461AF0A3FFF9E7064801F084
:1031D000A7FB1AF0C5F94FF47A7400BF1AF092FAFF
:1031E00020461AF095FFF9E728040020704710B533
:1031F0000C4600F0CDFBA04203D000F0C9FBA0427A
:1032000001D1012010BD002010BD7047010605D579
:1032100000F07F00642148430BF082BC1AF078BFB5
:103220000B4910B5C98A00244FF47A7001B10846E1
:103230000021FFF7EAFF002808D00020401CC0B2A0
:103240000428FBD3034AE0080121117010BD0000DF
:10325000A40C00204C00002070B588B0044620214A
:103260006846FDF731F86C496CA00DF065FF0EF073
:10327000DDFD06007DD070A00EF0E0FD02466FA1DE
:1032800030460EF0A9FD6F480EF0D8FD02466EA143
:1032900030460EF0A1FD0EF0C9FD05006AD02046B3
:1032A0000EF0CCFD02466AA128460EF095FD04F111
:1032B0001E000EF0C3FD024667A128460EF08CFDED
:1032C00020216846FDF700F8D4E90E2364A1684682
:1032D0000DF056FF68460EF0B1FD024662A1284689
:1032E0000EF07AFD04F140000EF0A8FD024660A148
:1032F00028460EF071FD20216846FCF7E5FF5834A2
:1033000057A1D4E9002368460DF03AFF68460EF055
:1033100095FD024658A128460EF05EFD2021684624
:10332000FCF7D2FFD4E902234DA168460DF028FF37
:1033300068460EF083FD024650A128460EF04CFD73
:1033400020216846FCF7C0FF227C4DA168460DF0A5
:1033500017FF68460EF072FD02464AA128460EF09D
:103360003BFD20216846FCF7AFFF627C44A1684624
:1033700001E04DE03CE00DF003FF68460EF05EFD1D
:10338000024642A128460EF027FD20216846FCF7A0
:103390009BFFA27C3AA168460DF0F2FE68460EF053
:1033A0004DFD02463BA128460EF016FD2021684641
:1033B000FCF78AFFE27C32A168460DF0E1FE684628
:1033C0000EF03CFD024635A128460EF005FD2021F9
:1033D0006846FCF779FF227D29A168460DF0D0FEF2
:1033E00068460EF02BFD02462EA128460EF0F4FC96
:1033F0002A462EA130460EF0EFFC30460EF0AEFD10
:10340000044601462BA00DF097FE20460DF0F6FE77
:1034100008B0304670BD0000C615060877656C63BD
:103420006F6D6520746F205B25735D2C206861686B
:103430006168610D0A000000330000006D7367547D
:1034400079706500CAD5002070726F7000000000AE
:1034500074696D6500000000636F64650000000022
:10346000252E32660000000074696D654C656E00A3
:103470006454696D650000006D696C006F696C00D3
:103480002564000073705570000000007370446F75
:10349000776E00007475726E0000000069734964F5
:1034A0006C000000697349646C537400646174615A
:1034B0000000000025730D0A0000000000B5A1B057
:1034C00080216846FCF700FF684600F04DFD1F486C
:1034D000FCF72DFF02461D490DF11E00FCF7CDFE45
:1034E0001B494FF03330CDE90E0110A800F03CFD30
:1034F00019491848CDE9160119491848CDE91801AC
:103500006F208DF8680070208DF8690079208DF8A3
:103510006A007A208DF86B0064208DF86C00002022
:1035200000F010FC0F48D0E90412CDE91C12D0E9DC
:103530000010CDE91E106846FFF78EFE01460A48CE
:1035400000690CF063F921B000BD000040CB002001
:103550003333164014AE47E17A141F40C3F5285C9C
:103560008FC2214068CC00201804002070B52B4C7D
:103570000020FC21207006206070A170E0700AF02D
:103580009FFAC8201AF0C4FD0C2000F081FF0A2029
:103590001AF0BEFD0C2000F07BFF6425B0FBF5F0B7
:1035A000207105200AF08CFAC8201AF0B1FD08201D
:1035B00000F06EFF0A201AF0ABFD082000F068FF53
:1035C000B0FBF5F0607107200AF07AFAC8201AF013
:1035D0009FFD052000F05CFF14201AF099FD0520E6
:1035E00000F056FF0A201AF093FD052000F050FF6E
:1035F000B0FBF5F0A071052009F032FE0A201AF0A8
:1036000087FD052009F02CFE40F24C41B0FBF1F0A3
:10361000E0712046BDE870400CF00ABC1214002096
:1036200010B5042000F0CEF8002808D0002108468C
:1036300002F0CCFCBDE81040042000F0BDB810BD85
:1036400010B5802000F0BEF8002808D00021084600
:1036500002F0EEFCBDE81040802000F0ADB810BDD7
:1036600030B585B00121082009F06CF901218803EB
:1036700009F098F900248DF8104004258DF81340C6
:1036800003A91148039500F017FA022103200AF05C
:1036900017F800958DF8044008258DF80550012491
:1036A0008DF80640684600F09DF88DF808500F2010
:1036B0008DF809008DF80A008DF80B4002A802F081
:1036C000B7F805B030BD0000000C02401CB5042066
:1036D000009000208DF8040008218DF805108DF869
:1036E0000600684600F07EF81CBD1CB50420009062
:1036F00000208DF8040008208DF8050001208DF8C9
:103700000600684600F06EF81CBD000030B585B0BC
:103710000121042009F016F90121880309F042F97A
:1037200000248DF8104080258DF8134003A911481E
:10373000039500F0C1F90721022009F0C1FF8DF8BF
:10374000044008208DF80500012400958DF80640FE
:10375000684600F047F817208DF808000F208DF814
:1037600009008DF80A008DF80B4002A802F060F8FD
:1037700005B030BD000802401CB58020009000203C
:103780008DF8040008218DF805108DF806006846B4
:1037900000F028F81CBD1CB58020009000208DF89A
:1037A000040008208DF8050001208DF80600684609
:1037B00000F018F81CBD00000149086070470000C7
:1037C000143C0140064A014600201268044B0A409E
:1037D00014331B680B4202D0002A00D0012070472E
:1037E000003C014030B51A498379026853B30B6835
:1037F00093430B600A1D13680468A34313600279A6
:103800000A441368046823431360114A083213689A
:103810000468A3431360131D1C680568AC431C6057
:103820004479102C05D021440A68006802430A60DC
:1038300030BD1168046821431160196800680143B4
:10384000196030BD0079084401689143016030BDC2
:10385000003C0140016809B9406808B10020704788
:103860000120704710B5ADF5825D4FF48050009097
:1038700001AB0022072107A00FF03AF9040001462E
:1038800001D005A000E00CA00DF056FC0DF5825D06
:10389000204610BD0000000046696C65466F726DE1
:1038A0006174206572726F7220726573756C743DFD
:1038B00025640D0A0000000046696C65466F726D54
:1038C0006174207375636365737320726573756CBF
:1038D000743D25640D0A000010B5012206A10748B9
:1038E0000FF0C2FB0400014601D005A000E00AA0D1
:1038F0000DF022FC204610BD000000001446002000
:103900006D6F756E74206572726F7220726573755B
:103910006C743D25640D0A006D6F756E74207375AF
:10392000636365737320726573756C743D25640DF4
:103930000A00000010B5012206A100200FF094FB40
:103940000400014601D004A000E00AA00DF0F4FB41
:10395000204610BD00000000756E6D6F756E7420FE
:103960006572726F7220726573756C743D25640D9B
:103970000A000000756E6D6F756E74207375636359
:1039800065737320726573756C743D25640D0A0050
:103990000421014800F0F1B8000C02407CB50F2072
:1039A000032400908DF8044000258DF807506946E7
:1039B000064800F081F8072000908DF804408DF84B
:1039C00007506946024800F077F87CBD00080240C5
:1039D000000002402F4910B5884206D10121084657
:1039E00008F0BCFF002101204FE02B49884206D19E
:1039F0000121022008F0B2FF0021022045E0274902
:103A0000884206D10121042008F0A8FF00210420EB
:103A10003BE02349884206D10121082008F09EFF9F
:103A20000021082031E01F49884206D101211020E1
:103A300008F094FF0021102027E01B49884206D19E
:103A40000121202008F08AFF002120201DE01749D5
:103A5000884206D10121402008F080FF002140204B
:103A600013E01349884206D10121802008F076FF37
:103A70000021802009E00F4988420AD184150121E4
:103A8000204608F06BFF00212046BDE8104008F0FA
:103A900065BF10BD00000240000402400008024063
:103AA000000C0240001002400014024000180240C6
:103AB000001C024000200240F0B50023012403272F
:103AC0000D6804FA03F21540954242D1D0F800C0C7
:103AD0005E0007FA06F52CEA050CC0F800C091F864
:103AE00004C0D0F800E00CFA06FC4CEA0E0CC0F85A
:103AF00000C091F804C0BCF1010F02D0BCF1020F6C
:103B00001FD1D0F808C02CEA050CC0F808C091F805
:103B100005C0D0F808E00CFA06FC4CEA0E0CC0F820
:103B200008C0D0F804C02CEA020CC0F804C04268F7
:103B300091F806C00CFA03FC1FFA8CFC42EA0C0256
:103B40004260C268AA43C260CA79C568B2402A43CB
:103B5000C2605B1C102BB3D3F0BD4B07DB0E9A4049
:103B6000C90810B500EB8100016A0F249C40A143F5
:103B70000162016A1143016210BD02460020126910
:103B80000A4200D00120704741837047018370478B
:103B9000C178027801EB026142788078120402EB6E
:103BA00000200844704710B5082201230CE080EA89
:103BB0000104240604D581F00E0103EB410100E06D
:103BC00049004006C9B2000E1400A2F10102D2B2AF
:103BD000EDD1084610BD2DE9F041A0B00E460746D4
:103BE0001D46144680216846DDF89880FCF76CFB82
:103BF00080216846FCF768FBF7B1EEB1E4B1DDB1B6
:103C000031463846FCF777FB002816D02146FCF7F2
:103C100072FB040010D0601C0FD02946FCF76BFB30
:103C2000050009D0601CA8420AD02A1B521E611C44
:103C30004046FCF722FB06E0002020B0BDE8F08102
:103C4000002188F800102846F7E7F0B5A1B00C462F
:103C500005461F46164680216846FCF735FB802145
:103C60006846FCF731FBCDB1C4B1BEB12146284650
:103C7000FCF741FB040011D03146FCF73CFB05008A
:103C80000CD03046FCF753FB291B4218D21CE11E16
:103C90003846FCF7F2FA204621B0F0BD0020FBE7E1
:103CA00070B500252C4641F2883664200AF038FFB2
:103CB00000F03CF8012807D0641CE4B2052C07D8BA
:103CC000B542F2D9002070BD00246D1CADB2F7E7FB
:103CD000012070BD70B5134DC0B000202870687011
:103CE000F022AA700121E97028716871A871E97148
:103CF0006E462972092428220B493046FCF7BDFA8A
:103D00000020315C2955641C401C80B2A4B22828D4
:103D1000F7D3A41E200A28706C7002480CF088F8B3
:103D200040B070BD12140020EA130020034804497B
:103D300000780978084300D001207047490100202D
:103D400048010020AFF30080F0B5A1B0054668211E
:103D5000FCF7BAFA802101A8FCF7B6FA6D4890F892
:103D60000011012938D10027064680F800716AA1A8
:103D70006A48FCF7C0FA50B101AB69A266A1674876
:103D8000FFF763FF18B101A966A00DF0D5F98021F6
:103D900001A8FCF799FA01AC64A364A25EA13046C5
:103DA0000094FFF718FF060016D001A960A00DF0DF
:103DB000C3F9802101A8FCF787FA5CA35BA25BA191
:103DC00030460094FFF707FF06469DF8040041289F
:103DD00005D0562805D006E0012021B0F0BD6F6364
:103DE00001E001206863802101A8FCF76DFA4FA370
:103DF0004EA24EA130460094FFF7EDFE060004D01F
:103E000005F1380101A810F011F9802101A8FCF793
:103E10005BFA46A345A245A130460094FFF7DBFEBE
:103E20000646802101A8FCF74FFA40A33FA23FA11C
:103E300030460094FFF7CFFE060004D005F14001A4
:103E400001A810F0F3F8802101A8FCF73DFA37A390
:103E500036A236A130460094FFF7BDFE064680210B
:103E600001A8FCF731FA31A330A230A1304600940A
:103E7000FFF7B1FE064601A80DF035FFC5E91201B6
:103E8000802101A8FCF720FA28A328A227A1304608
:103E90000094FFF7A0FE064601A80DF024FFC5E937
:103EA0001401802101A8FCF70FFA20A31FA21FA173
:103EB00030460094FFF78FFE054601A921A00DF0C2
:103EC0003BF9802101A8FCF7FFF918A317A217A15D
:103ED00028460094FFF77FFE0546802101A8FCF7E5
:103EE000F3F912A311A211A128460094FFF773FE63
:103EF0000546802101A8FCF7E7F916A30BA20BA148
:103F000028460094FFF767FE01A913A00DF014F9ED
:103F1000002062E758CB0020524D4300A40A002045
:103F20000D0A000025730D0A000000002C0000009F
:103F30005554432068686D6D73732E7373733D25FC
:103F4000730D0A005554432064646D6D79793D25E5
:103F5000730D0A000D000000412F442F452F4E3DE8
:103F600025730D0A00000000F0B5A9B006468021B7
:103F700005A8FCF7A9F94C4F7868012839D005232A
:103F800040F6B83249A14BA018F080FC012802D0BD
:103F90004BA00DF0D1F850A15048FCF7ACF904004B
:103FA0007FD04DA1601CFCF7A6F905002ED0802122
:103FB00005A8FCF789F90020259026902A1B611C92
:103FC00005A8FCF75AF927AB981E411ECDE902104F
:103FD000C01E26AACDE900020493431E25AA40A1D3
:103FE00005A8FCF7FDF92798002811DBC0F1200097
:103FF00010E005A808F016FF002E07D005A8FCF772
:1040000096F9024605A93046FCF737F929B0F0BD0C
:10401000C0F12100C11700EB9170811025A80BF0B1
:104020009DFE9DF898009DF89A209DF899108DE8C6
:1040300007009DF897309DF89620BDF894102EA0AB
:104040000DF07AF8802105A8FCF73EF99DF897005D
:104050009DF89A309DF899209DF898108DE80F00F2
:104060009DF89630BDF8942030A105A80DF088F891
:104070003EB105A8FCF75BF9024605A93046FCF7FE
:10408000FCF801207860DDE9250108F0CBFF05A8E8
:1040900008F0C8FE05A900E003E02CA00DF04CF8E4
:1040A000B4E72E492EA0F9E7080400204F4B0D0A73
:1040B0000000000041542B43434C4B3F0D0A0000CD
:1040C00041542B43434C4B3F2073656E6420666123
:1040D000696C65640D0A000022000000ACCD002070
:1040E00025642F25642F25642C25643A25643A2500
:1040F000642B256400000000CFD6D4DACAC7B1B162
:10410000BEA9CAB1BCE43A2025303464C4EA2530E3
:104110003264D4C225303264C8D52C253032643A9A
:10412000253032643A253032640A00002530346488
:104130002D253032642D2530326420253032643A0A
:10414000253032643A25303264000000626A2074FF
:10415000696D652025730D0A00000000A611060890
:104160005B25735D207061727365206661696C65A3
:10417000640D0A002DE9F047DFF86C808A46074697
:1041800000244FF47A790026354604214046FFF793
:10419000F4FC012801D1761CF6B264200AF0C0FCC0
:1041A0006D1CADB2052DF0D3052E03D0641CA4B256
:1041B0004C45E8D34C4502D90020BDE8F0870024E7
:1041C0000A4EAAF1010506E0D6E903017F1C10F0B2
:1041D00087FE641CA4B23A78AC42F5DBD6E9030151
:1041E00010F07EFE0120E8E7000C024048010020AC
:1041F0002DE9F047DFF870808A46074600244FF427
:104200007A790026354680214046FFF7B6FC012822
:1042100001D1761CF6B264200AF082FC6D1CADB2AE
:10422000052DF0D3052E03D0641CA4B24C45E8D371
:104230004C4502D90020BDE8F0870AF007FD0024B4
:104240000A4EAAF1010506E0D6E905017F1C10F02F
:10425000D3FE641CA4B23A78AC42F5DBD6E9050182
:1042600010F0CAFE0120E6E70008024048010020E5
:1042700070B5094C0025607818B1657007480BF0DF
:104280006DFC2078002805D02570BDE870400448FA
:104290000BF064BC70BD000048010020541D0020DC
:1042A0003C150020F8B50D462E4902060AD5D1F876
:1042B0004C210523B3EB124F04D100F07F006421A1
:1042C000484317E0284A0B680026B2FBF3F103FBD2
:1042D00011226423B1FBF3F1244C084422B1401CA9
:1042E0000004000C0AD002E00004000C02D00AF026
:1042F000DAFB2FE0294600F03FF8F8BD72B66946B8
:104300001B480BF039FC38B10098287062B6207851
:1043100070B1401E20700BE0694616480BF02CFC73
:1043200040B10098287062B6607808B1401E607095
:104330000120F8BD62B611E072B669460C480BF078
:104340001BFC0028E0D169460A480BF015FC002848
:10435000E7D162B60AF099FB0028EDD02E70032059
:10436000F8BD0000A40C002040420F0048010020CE
:104370003C150020541D0020F8B50D462A49096857
:1043800080B12A4AB2FBF1F108440004284C000C29
:104390004FF000060AD0C11F40F6B232914222D33C
:1043A0000320F8BD2348B0FBF1F0EEE772B6694692
:1043B00021480BF0E1FB38B10098287062B62078F4
:1043C00048B3401E207026E069461C480BF0D4FB21
:1043D00038B10098287062B66078E0B1401E607015
:1043E00019E062B61EE0801F80B20AF0D7FB15E02C
:1043F00072B6694610480BF0BFFB0028DCD1694655
:104400000E480BF0B9FB40B1607808B1401E6070F7
:104410000098287062B60120F8BD62B60AF006FC6A
:104420000028E5D02E70BBE7A40C002080969800F1
:1044300048010020C0D8A7003C150020541D0020D2
:1044400038B50C460F490A780AB1521E0A700AF0B4
:10445000DBFA0FE072B669460B480BF08DFB40B1FA
:1044600000980A49207000F00100087062B601202F
:1044700038BD62B60AF009FB0028EBD0002020709E
:10448000032038BD49010020541D00207B0000207E
:104490007047000070B51C4C2515E614052815D092
:1044A000082821D00C282DD180212046FFF76CFB55
:1044B00029462046FFF768FB31462046FFF764FB9C
:1044C00031462046BDE87040FFF760BB80212046A2
:1044D000FFF75AFB29462046FFF756FB3146204698
:1044E000FFF752FB8021ECE780212046FFF74CFBD1
:1044F00029462046FFF748FB31462046FFF744FB9C
:104500002946DEE770BD0000000C024010B52146D0
:10451000024813F086FE204610BD000050F7050843
:10452000FEE70029018802D041F0010101E021F0FD
:1045300001010180704700001CB501214C05204697
:1045400008F018FA0121022008F0FCF901210220EC
:1045500008F0F8F90121204608F018FA0021204659
:1045600008F014FA4020009002208DF804008DF825
:10457000050001208DF8060000200C4C8DF8070086
:1045800069462046FFF798FA802000906946204649
:10459000FFF792FA042206212046FFF7DEFA0422F2
:1045A00007212046FFF7D9FA1CBD00000004024095
:1045B0000D4910B5884202D101214C050AE00B4992
:1045C000884202D101218C0504E0094988420AD1C0
:1045D0000121CC05204608F0D9F92046BDE810405D
:1045E000002108F0D3B910BD00540040005800402D
:1045F000005C0040002A828801D00A4300E08A4320
:10460000828070477FB5044680880D4620F03F06C3
:10461000684608F0DFF926490298B0FBF1F189B24B
:104620000E43A680228822F001022280214B2A68B4
:104630009A421BD85200B0FBF2F080B2042800D29C
:104640000420491C2184A083208840F001002080A0
:1046500021884FF6F5300140A8886A891043084345
:104660002080A8892989084320817FBDEB88A3F594
:104670003F46FF3E05D102EB4202B0FBF2F080B2B2
:1046800008E002EBC20303EB0212B0FBF2F080B2CF
:1046900040F48040020501D140F001004FF49672D1
:1046A00051434FF47A72B1FBF2F140F40040C8E795
:1046B00040420F00A08601002DE9FC5F012102208D
:1046C00008F040F90220009001208DF80400002439
:1046D0008DF806408DF8070002208DF80500694628
:1046E0008948FFF7E9F90121102008F02BF9012092
:1046F0008DF804008DF806408DF807000220DFF8E1
:104700000C924FF480558DF8050000956946484697
:10471000FFF7D2F902217C48FFF738FA29464846CC
:10472000FFF734FA01211E2008F00CF90121880559
:1047300008F008F90F20032500908DF804508DF83B
:10474000074069467248FFF7B7F9072000908DF8D7
:1047500004508DF8074069466E48FFF7ADF9012017
:104760008DF804008DF806408DF8070002208DF8C2
:1047700005008020DFF8A0B1009069465846FFF799
:104780009BF94FF48064694658460094FFF794F90A
:104790004FF4006A69465846CDF800A0FFF78CF93F
:1047A0004FF0100869465A48CDF80080FFF784F9A9
:1047B0004FF47040009069465846FFF77DF9660156
:1047C000694654480096FFF777F920276946514813
:1047D0000097FFF771F90220009069464A48FFF7F9
:1047E0006BF90820009069464748FFF765F969466C
:1047F00047480097FFF760F96710694645480097FA
:10480000FFF75AF9694643480094FFF755F94FF40A
:104810007060009069464846FFF74EF969463C488B
:10482000CDF80080FFF748F9694637480096FFF752
:1048300043F94FF4804869463348CDF80080FFF7CC
:104840003BF94FF4807969462F48CDF80090FFF787
:1048500033F969462C480097FFF72EF969462A4834
:104860000094FFF729F910212948FFF78DF920213D
:104870002748FFF78BF941462348FFF785F939466A
:104880002448FFF783F921462248FFF77FF949467C
:104890001D48FFF779F939461B48FFF775F921469E
:1048A0001948FFF771F980215846FFF76DF9214645
:1048B0005846FFF769F951465846FFF765F9314602
:1048C0001448FFF761F902210F48FFF75DF908214D
:1048D0000D48FFF759F920210E48FFF755F901203F
:1048E000009002208DF804008DF8055001208DF80D
:1048F000070069460448FFF7DFF80222002102485A
:10490000FFF72BF9BDE8FC9F0004024000100240B5
:104910000008024000000240000C02407047000006
:1049200010B5044608200CF0EDFC206040B10021D9
:1049300001602068416003A0BDE810400CF0FCBBA2
:1049400008A0F9E7496E69745175657565206D6158
:104950006C6C6F63207375636365737366756C2E1F
:104960000D0A0000496E69745175657565206D61A9
:104970006C6C6F63206661696C65640D0A000000F1
:104980002DE9FC410121022007F0DCFF01248DF814
:104990000440002602258DF80660DFF8C4808DF8FB
:1049A000074000958DF8055069464046FFF784F8AA
:1049B0000121084607F0C6FF8DF8044048F22000A8
:1049C0008DF80660274F00908DF807408DF8055050
:1049D00069463846FFF770F80121022007F0B2FF60
:1049E0008DF8044018208DF8066000908DF807407F
:1049F0008DF8055069464046FFF75EF808214046AD
:104A0000FFF7C2F810214046FFF7BEF820213846D4
:104A1000FFF7BCF84FF4FA7019F07AFB0221404618
:104A2000FFF7B2F8E1033846FFF7AEF8C82019F0F7
:104A30006FFB02214046FFF7A9F840F6B83019F0A5
:104A400067FB02214046FFF79FF8074907A00CF0DB
:104A500073FB41F2883019F05BFBBDE8FC8100007C
:104A600000040240000002408BED05082573206F12
:104A70006B0D0A0080B2FFF715BC10F087B970B556
:104A80000024234608E0CD18EE782D6866F31F65F4
:104A900040F82450641C1B1D9342F4D370BD70B5C4
:104AA00000231C4611E011F82350055531F823501E
:104AB0002E0A05196E7051F82360360CAE7051F84D
:104AC00023605B1C360EEE70241D9442EBD370BD48
:104AD0007CB5044600880E46C0F3C500382802D2D3
:104AE000C0F1380501E0C0F178050822214668468A
:104AF000FFF7D5FF2A460849204600F07DFB082233
:104B00006946204600F078FB102204F10801304687
:104B1000FFF7C5FF7CBD00005404002000210160A8
:104B20004160054981600549C1600349C94301618C
:104B30000249C943416170470123456789ABCDEF05
:104B40002DE9F0410446251DC0B0E0CDD0F800802D
:104B500040226846FFF793FF05EA060027EA0501B1
:104B60000843FE49009A014402EB0800084405EBA3
:104B7000706000EA050126EA00021143F84A114478
:104B8000019A3A44114400EB315303EA000125EA4B
:104B900003021143F34A1144029A3244114403EBD5
:104BA000F13101EA030220EA01063243EE4E3244BB
:104BB000039E35442A4401EBB22202EA010523EAAE
:104BC00002063543E94E3544049E3044284402EB46
:104BD000706000EA020521EA00063543E44E3544E0
:104BE000059E33442B4400EB335303EA000522EACD
:104BF00003063543DF4E3544069E3144294403EB1A
:104C0000F13101EA030520EA01063543DA4E354465
:104C1000079E32442A4401EBB22202EA010523EA4C
:104C200002063543D54E3544089E3044284402EBF5
:104C3000706505EA020021EA05063043D04E304493
:104C4000099E3344184405EB305000EA050322EA7C
:104C5000000633430A9EA3F524434F3B31441944D5
:104C600000EBF13303EA000125EA03063143C54EA8
:104C700031440B9E3244114403EBB12101EA03029B
:104C800020EA01063243C04E32440C9E35442A4489
:104C900001EB726202EA010523EA02063543BB4ECC
:104CA00035440D9E3044284402EB305505EA02009D
:104CB00021EA05063043B64E30440E9E3344184474
:104CC00005EBF03000EA050322EA00063343B14E5B
:104CD00033440F9E3144194400EBB12101EA05032E
:104CE00020EA05063343AC4E3344019E32441A4455
:104CF00001EBF26202EA000321EA00063343A74E09
:104D00003344069E35442B4402EBF35303EA01057A
:104D100022EA01063543A24E35440B9E3044284416
:104D200003EBB04000EA020523EA020635439D4E3C
:104D30003544009E3144294400EB313101EA03053A
:104D400020EA03063543984E3544059E32442A44F2
:104D500001EBF26202EA000521EA00063543934EB8
:104D600035440A9E33442B4402EBF35303EA010516
:104D700022EA010635438E4E35440F9E30442844C6
:104D800003EBB04000EA020523EA02063543894EF0
:104D90003544049E3144294400EB313101EA0305D6
:104DA00020EA03063543844E3544099E32442A44A2
:104DB00001EBF26202EA000521EA000635437F4E6C
:104DC00035440E9E33442B4402EBF35303EA0105B2
:104DD00022EA010635437A4E3544039E3044284486
:104DE00003EBB04000EA020523EA02063543754EA4
:104DF0003544089E3144294400EB313101EA030572
:104E000020EA03063543704E35440D9E32442A4451
:104E100001EBF26202EA000521EA000635436B4E1F
:104E20003544029E33442B4402EBF35303EA01055D
:104E300022EA01063543664E3544079E3044284435
:104E400003EBB04000EA020523EA02063543614E57
:104E500035440C9E31442944059D00EB3131154405
:104E600081EA00025C4E5A4032442A44089D01EB1C
:104E700032721D4482EA01034340584E33442B44AE
:104E80000B9D02EB7353054483EA0200544E4840E5
:104E90003044284403EB30450E98524E014485EAD5
:104EA000030050403044084405EB702601988118F7
:104EB00086EA05004C4A58401044084406EB30721C
:104EC0000498C11882EA0600484B68401844084418
:104ED000079902EB70504B1980EA0201444D714072
:104EE000294419440A9B00EB31419D1981EA0003D2
:104EF000404E534033442B440D9D01EB7323154426
:104F000083EA01023C4E424032442A44009D03EBB6
:104F10003272054482EA0300384E48403044284447
:104F200002EB70550398364E014485EA0200584062
:104F30003044084405EB30410698324E034481EA80
:104F40000500504030441844099B01EB7020134485
:104F500080EA01022C4E6A40324457E078A46AD7B6
:104F600056B7C7E8DB702024EECEBDC1AF0F7CF58D
:104F70002AC68747134630A8019546FDD898806910
:104F8000AFF7448BBED75C892211906B937198FD6B
:104F90008E4379A62108B44962251EF640B340C06D
:104FA000515A5E26AAC7B6E95D102FD653144402A3
:104FB00081E6A1D8C8FBD3E7E6CDE121D60737C308
:104FC000870DD5F4ED145A4505E9E3A9F8A3EFFCE4
:104FD000D9026F678A4C2A8D4239FAFF81F67187B0
:104FE00022619D6D0C38E5FD44EABEA4A9CFDE4BDD
:104FF000604BBBF670BCBFBEC67E9B28FA27A1EAF9
:105000008530EFD4051D880439D0D4D91A440C9BBF
:1050100000EB32721D4482EA0003644E4B4033447D
:105020002B440F9D02EB73530D4483EA0201604E43
:10503000414031442944029D03EB3141054481EA5A
:1050400003005C4E50403044284401EB702500982A
:10505000594E024465EA0300484030441044079A20
:1050600005EBB060134460EA0102544E6A403244DA
:105070001A440E9B00EBB2520B4462EA0501504EFB
:10508000414031441944059B02EB71411D4461EAE2
:1050900000034C4E534033442B4401EBF3250C9B4F
:1050A000494E034465EA020048403044184405EB89
:1050B000B0660398454B024466EA01006840184414
:1050C000104406EBB0530A98414A014463EA0500D4
:1050D000704010440844019903EB70404A1960EA9B
:1050E00006013C4D594029441144089A00EBF12136
:1050F000951961EA0302384E424032442A440F9D1A
:1051000001EBB2621D4462EA0003344E4B4033446B
:105110002B44069D02EBB353054463EA0100304E75
:1051200050403044284403EB70450D982D4E014407
:1051300065EA0200584030440844049905EBF02029
:105140000A4460EA0301284E6940314411440B9A35
:1051500000EBB161134461EA0502244E424032443F
:105160001A4401EBB253029A214E154463EA00023D
:105170004A4032442A44099D03EB7242054462EAE4
:10518000010058401B4E30442844256802EBF020B3
:1051900029442160616808446060A0681044A060F0
:1051A000E0681844E06040B0BDE8F081E599DBE6D6
:1051B000F87CA21F6556ACC4442229F497FF2A4309
:1051C000A72394AB39A093FCC3595B6592CC0C8F99
:1051D0007DF4EFFFD15D84854F7EA86FE0E62CFE65
:1051E000144301A3A111084E827E53F735F23ABD54
:1051F000BBD2D72A91D386EB2DE9F0470546164658
:105200002A680F46C2F3C50102EBC60200202A60DD
:10521000B2EBC60F6A68C1F1400401D2521C6A6049
:1052200002EB56726A60A64218D3681818302246FC
:105230003946FBF722F805F1080005F1180181460F
:10524000FFF77EFC204604E039184846FFF778FC5B
:10525000404600F14008B045F6D90021321A3B180B
:105260006818BDE8F04718301946FBF706B8FEE7A6
:1052700070B54FF4FA640223224677A178A017F0A4
:1052800005FB012801D078A06DE00A2018F040FF4E
:1052900014218048FBF718F814217F48FBF714F815
:1052A0007C480EF041FD7C480EF03EFD0523224671
:1052B00069A17AA017F0EAFA012802D07AA00BF0CF
:1052C0003BFF0A2018F024FF052322467CA17EA084
:1052D00017F0DCFA012802D07EA00BF02DFF0A2087
:1052E00018F016FF052322465BA180A017F0CEFA26
:1052F000012802D084A00BF01FFF0A2018F008FF3D
:1053000000250F23224686A187A017F0BFFA0128A7
:105310002DD00523224687A183A017F0B7FA0128D4
:1053200027D086A00BF008FF0A2018F0F1FE042D0C
:1053300023D06D1C052DE4DB0523224646A189A060
:1053400017F0A4FA012802D089A00BF0F5FE0A207C
:1053500018F0DEFE0A2322468BA18DA017F096FAE4
:1053600001281CD093A0BDE870400BF0E5BE9BA0C7
:1053700000E0A4A00BF0E0FEDEE7ADA00BF0DCFE49
:10538000012080F31388BFF34F8FB9480168B94AF1
:1053900001F4E06111430160BFF34F8FFEE70A2083
:1053A00018F0B6FE0A2322462BA1B3A017F06EFA1E
:1053B000012802D0B7A00BF0BFFE0A2018F0A8FE0B
:1053C0000A23224624A1BAA017F060FA012802D0CD
:1053D000BAA00BF0B1FE0A2018F09AFE052322466F
:1053E0001DA1BCA017F052FA012802D0C0A00BF0FA
:1053F000A3FE0A2018F08CFE0523224616A1C4A0A5
:1054000017F044FA012802D0C5A00BF095FE0A203F
:1054100018F07EFE0A2322460FA1C8A017F036FA24
:10542000012802D0C8A00BF087FE0A2018F070FEF9
:105430000523224608A1CAA017F028FA012802D0A5
:10544000CBA00BF079FE0A2018F062FEBDE8704098
:10545000CEA1D0A00AF05EB94F4B0D0A00000000AB
:1054600041540D0A000000004D435520636F6D6DDF
:10547000756E696361746573207769746820344759
:105480005F4D6F75646C65206661696C65640D0ABB
:105490000000000040CB0020ACD3002041542B433F
:1054A0004D45453D320D0A0041542B434D45453F86
:1054B0002073656E64206661696C65640D0A000086
:1054C00052454144590D0A0041542B4350494E3F27
:1054D0000D0A000041542B4350494E3F2073656E26
:1054E00064206661696C65640D0A000041542B51AB
:1054F0004346473D226E777363616E6D6F6465222C
:105500002C300D0A0000000041542B514346472027
:1055100073656E64206661696C65640D0A00000045
:105520002C310D0A0000000041542B435245473FE7
:105530000D0A00002C350D0A000000005265676955
:1055400073746572206E6574776F726B2066616923
:105550006C2C706C656173652072657472790D0ACC
:105560000000000041542B5153504E0D0A00000022
:1055700041542B5153504E2073656E64206661690F
:105580006C65640D0A000000514E54503A00000052
:1055900041542B514E54503D312C226E7470312E9B
:1055A000616C6979756E2E636F6D222C3132330D0B
:1055B0000A00000073657474696E672074696D6514
:1055C0002073796E6368726F6E697A6174696F6E49
:1055D000206661696C65640D0A00000052656769A8
:1055E00073746572206C6F63616C206E6574776F85
:1055F000726B207375636365737366756C6C792E5B
:105600000D0A0000526567697374657220726F61DC
:105610006D696E67206E6574776F726B207375634A
:105620006365737366756C6C792E0D0A000000005B
:1056300052652D72656769737465722074686520A0
:105640006E6574776F726B20686173206172726926
:105650007665642C20706C6561736520657869746B
:1056600020616E6420726573746172740D0A0000AB
:105670000CED00E00400FA0541542B514750534310
:1056800046473D226E6D6561737263222C310D0AAF
:105690000000000041542B514750534346472073AC
:1056A000656E64206661696C65640D0A0000000027
:1056B00041542B514750533D310D0A0041542B5159
:1056C0004750532073656E64206661696C65640D94
:1056D0000A00000041542B51485454504346473D62
:1056E00022636F6E746578746964222C310D0A0030
:1056F00073657474696E672050445020636F6E74D4
:10570000657874206661696C65640D0A00000000AC
:1057100041542B5149435347503D310D0A0000007D
:1057200073657474696E672047505253206D6F64BF
:1057300065206661696C65640D0A000041542B5157
:10574000494143543F0D0A0041542B5149414354B0
:105750003F2073656E64206661696C65640D0A00A4
:1057600041542B51485454504346473F0D0A0000C2
:1057700041542B51485454504346473F2073656E63
:1057800064206661696C65640D0A00003130303256
:105790003200000031342E32312E34302E3133338A
:1057A00000000000704738B534208DF8000000205C
:1057B0008DF801008DF8020001248DF80340684641
:1057C00000F036F826208DF800008DF801408DF8A5
:1057D00002408DF80340684600F02AF827208DF833
:1057E00000008DF801408DF802408DF803406846B6
:1057F00000F01EF838BD38B535208DF800000024C3
:105800008DF801408DF8024001258DF8035068465F
:1058100000F00EF847208DF800008DF801408DF85B
:1058200002408DF80350684600F002F838BD0000D1
:1058300070B50F21C478027801234FF0E026E4B15F
:10584000124C246804F4E064C4F5E064C4F3072453
:10585000C4F10405E1404478AC4085780D4025430F
:105860000B4C29011155007800F01F018B404009B5
:1058700006EB8000C0F8003170BD02F01F008340CD
:10588000500906EB8000C0F8803170BD0CED00E0DF
:1058900000E400E002490843024908607047000044
:1058A0000000FA050CED00E0024A114001430248F5
:1058B0000160704780FFFF1F08ED00E0BFF34F8FCE
:1058C00004480168044A01F4E06111430160BFF338
:1058D0004F8FFEE70CED00E00400FA0570B5AAB0AA
:1058E00006460025ADF88050234924A012F090FC14
:1058F000304600F02DF9002836D0202121A8FAF7F3
:10590000E3FC234806EB461100EB4104E11CA278BE
:10591000ADF880206846FAF7B0FC1E48C570627882
:10592000BDF88010684614F019FDADF8800000281D
:105930001AD007F0A7FC142018F0EAFBBDF880206D
:10594000694615480AF0A6F940F2DC5220A921A8C0
:1059500000F0E6F8BDF8800040B1304616F028F8B7
:105960000EA012F055FC01202AB070BD0FA012F05D
:105970004FFC0020F8E70000E810060877656C632C
:105980006F6D6520746F205B25735D0D0A0000004C
:1059900068FF050830CB00206C250020496E697433
:1059A000494F20747275650D0A000000496E6974D4
:1059B000494F2066616C73650D0A00002DE9F041C6
:1059C0008AB0002528216846FAF77EFC3B4800682B
:1059D0000EF02EFDDFF8E8803A4944463AA0D8F8A8
:1059E000082012F015FCA068401C29D040F6B83001
:1059F00018F08EFB98F80800FFF770FF002854D0CD
:105A0000207A14F09FFB00284FD0207A14F096FCE7
:105A100015F044F8207A15F0E5FB14213248FAF726
:105A200053FC314814211430FAF74EFC2E480EF086
:105A3000B1FC2D49207A14310EF0E0FD207A31E0DE
:105A40000927394629A012F0E3FB2E4C16F0E2FCA0
:105A500005EB45162CA014F8161012F0D9FB14F81B
:105A60001600FFF73BFF18B314F8160014F06AFB9A
:105A7000F0B12A490120086005EB4510C8F808502C
:105A800014F8100014F05AFC14F8160014F0F2FB8D
:105A900014F8160015F0A6FB14F09EFB14F0FEFFA0
:105AA00014F8160014F058F901200AB0BDE8F0818E
:105AB0006D1CEDB2BD42C9D30020F6E710000020F6
:105AC000B4030020D81006085B25735D206D5F705D
:105AD000726F746F636F6C5F696E646578203A20D3
