:020000040800F2
:1000000058F90120310200083D580008D945000880
:100010000753000849190008313F0108000000009B
:10002000000000000000000000000000990100082E
:100030007130000800000000DD010008BD45020825
:100040004B0200084B0200084B0200084B0200085C
:100050004B0200084B0200084B0200084B0200084C
:10006000053600084B0200084B0200084B0200084E
:100070004B0200084B0200084B0200084B0200082C
:100080004B0200084B0200084B0200084B0200081C
:10009000291A00084B0200084B0200082536000808
:1000A0004B0200084B0200084B0200084B020008FC
:1000B000C1260108E52601084B0200084B02000892
:1000C0004B0200084B0200084B0200084B020008DC
:1000D0004B020008B13801080139010861390108F3
:1000E0004B0200084B0200084B0200084B020008BC
:1000F0004B0200084B0200084B0200084B020008AC
:100100004B0200084B0200084B0200084B0200089B
:1001100091360108B93601084B0200084B0200086D
:100120004B0200084B0200084B0200084B0200087B
:100130004B0200084B0200084B0200084B0200086B
:100140007D1B00084B0200084B0200084B02000810
:100150004B0200084B0200084B020008B5390108A9
:100160004B0200084B0200084B0200084B0200083B
:100170004B0200084B0200084B0200084B0200082B
:100180004B020008DFF80CD001F036F800480047B9
:100190002DA9010858F90120224B19680868B0E818
:1001A000F00F80F30988BFF36F8F4FF0000080F3EA
:1001B00011884EF00D0E70470000000006480068E0
:1001C000006880F3088862B661B6BFF34F8FBFF353
:1001D0006F8F00DF00BF00BF08ED00E0EFF3098084
:1001E000BFF36F8F0F4B1A6820E9F00F106008B54E
:1001F0004FF0BF0080F31188BFF34F8FBFF36F8FB5
:1002000023F02CFF4FF0000080F31188BDE8084078
:1002100019680868B0E8F00F80F30988BFF36F8FA2
:10022000704700BF50030020EFF3058070470000C7
:100230000648804706480047FEE7FEE7FEE7FEE780
:10024000FEE7FEE7FEE7FEE7FEE7FEE771260108B0
:100250008501000800487047E478020810B504469C
:10026000FFF7F8FF0068005D00F0010010BDA0F18D
:100270004101192900D82030704710B5431A934224
:1002800009D28318881803E010F8011D03F8011D36
:10029000521EF9D210BD40EA01039B0703D009E0CA
:1002A00008C9121F08C0042AFAD203E011F8013B62
:1002B00000F8013B521EF9D210BDD2B201E000F8A5
:1002C000012B491EFBD270470022F6E710B51346FA
:1002D0000A4604461946FFF7F0FF204610BD421EAD
:1002E00012F8013F002BFBD111F8013B02F8013B52
:1002F000002BF9D1704730B505462A460B4612F857
:10030000010B13F8014B08B1A042F8D01CB1002832
:1003100002D06D1CF1E7284630BDCAB2401E10F86D
:10032000011F8A4202D00029F9D100207047421CE7
:1003300010F8011B0029FBD1801A704710B500226C
:1003400000E0521C835C8C5CA34201D1002BF8D1ED
:10035000D8B2E1B2401A10BD30B5044600200346C1
:1003600000E05B1C934203D2E05CCD5C401BF8D004
:1003700030BD034611F8012B00F8012B002AF9D1FA
:100380001846704730B505460020034600E05B1C68
:10039000934205D2EC5CC85C201A01D1002CF6D146
:1003A00030BD0246C9B200E0401C0378002BFBD1EF
:1003B00002E003788B4203D0401E9042F9D2002025
:1003C000704710B54843044615F052FD002805D08B
:1003D0000021002C02D0641E0155FAE710BD000078
:1003E0000FB400B58DB010A909900B9000914FF09B
:1003F000FF300A9000200C900548069005480790B1
:100400006A4609A80F9900F03BFD0DB05DF814FB9A
:100410009D0E0008BB0E00082DE9FF5F1D464FF042
:10042000FF3BD5E9014691465F464FF00008A969B8
:100430007F1C01988847296A824688470028F6D1A0
:100440001AF101000CD024F4C064002E19DD6006FE
:1004500014D5BAF12B0F09D0BAF12D0F0ED103E04C
:10046000584604B0BDE8F09F44F48064A9697F1C3D
:1004700001988847761E8246002E02DDBAF1300FC1
:1004800003D0B9F1000F26D032E0761EA96944F4FA
:1004900000747F1C019888478246002E05DDBAF162
:1004A000780F06D0BAF1580F03D0B9F1000F10D071
:1004B0001EE0B9F1000F02D0B9F1100F18D1761E6D
:1004C000A96924F400747F1C019888478246102093
:1004D00002E0082000E00A20814609E008FB090844
:1004E000761EA96944F400747F1C019888478246EF
:1004F000002E05DD4946504600F0AEFC0028EDDA3E
:10050000E96901988847A00502D46FF00100A8E7C7
:10051000E00727D1600614D5600502D5C8F10000B8
:1005200000E04046296801F104022A6009682205BA
:1005300001D5087016E0220701D5088012E0086096
:1005400010E0286800F1040129600068210502D547
:1005500080F8008006E0210702D5A0F8008001E0C5
:10056000C0F8008038467CE72DE9FF4F087881B05D
:100570009946FF2805D0491C2D2804D000240023CB
:1005800008E000230BE00124F9E703EB830300EB11
:100590004303491C0878FF28F7D104B15B420020CF
:1005A0000090147801462D2C01D02B2C04D1521C24
:1005B0002D2C12D00024009400251678FF2E0ED08A
:1005C0000A24A0FB04C801FB0481002700FB0711DB
:1005D000521C16EB0C006941EFE70124EBE799444C
:1005E00050EA010206D101980021C0E9001105B0CE
:1005F000BDE8F08F0024A84D2646DFF8A08200F069
:10060000BBFD82468B46B9F1000002DAC9F1000752
:1006100014E0074612E0F80707D022462B46304682
:10062000414600F02BFA0646884622462B461046E5
:10063000194600F023FA04460D467F10002FEAD138
:10064000B9F1000F324643465046594602DA00F0EF
:1006500087FA01E000F012FA009A0AB181F0004135
:10066000019AC2E90001C2E72DE9FF4F1F468DB094
:10067000D7E901464FF0FF382E2045464FF00009DC
:100680000B90B9696D1C0E988847396A8246884775
:100690000028F6D11AF101000AD024F4D064002E0B
:1006A00012DDBAF12B0F08D0BAF12D0F0CD102E0F8
:1006B000404611B09CE744F48064B9696D1C0E9803
:1006C00088478246A6F101066946600501D52D20BE
:1006D00000E02B208DF8000001F1010B0DF1200846
:1006E00009E0B9696D1C0E98884782460F98761EFE
:1006F00044F400740560002E02DDBAF1300FF0D032
:100700000B998A453ED144F0800406E00F99681C9D
:10071000A9F1010944F400740860761EB9696D1CE2
:100720000E98884782463028F0D02BE00B998A45F6
:1007300005D1200603D444F08004761E18E050460C
:1007400015F090FC08B3761E0DF1130144F400740B
:100750008B4508D2AAF130000BF8010B200607D513
:10076000A9F1010003E0200602D409F1010081464D
:10077000A00502D50F99681C0860B9696D1C0E9818
:1007800088478246002ED1DC54E0002E52DDBAF1BB
:10079000650F02D0BAF1450F4CD1A0054AD5761E9F
:1007A000B96924F440746D1C0E9888478246002E67
:1007B0000DDD2B2804D0BAF12D0F08D144F480743C
:1007C000B9696D1C0E9888478246A6F10106E005BE
:1007D00001D52D2100E02B2108F8011BCDF82C803C
:1007E00021E0761E0DF1290144F4007488450CD2F5
:1007F000AAF1300010F0FF0088F8000002D10B9938
:10080000884509D908F1010806E0E00501D524482A
:1008100001E042F20F708146B9696D1C0E9888475D
:1008200082460F980560002E04DD504615F01AFC34
:100830000028D6D1F9690E988847FF208BF8000070
:1008400088F800000020069007904B466A4608A9E9
:1008500006A8FFF789FEA00502D46FF0010028E783
:1008600014F0240F0AD0E00714D1DDE9061238682D
:10087000031D3B600068C0E900120BE0DDE90601E2
:1008800000F09EFC0146E00704D13868021D3A6082
:100890000068016028460CE7000024400000F03F9B
:1008A000F1D8FFFF2DE9F04791460F4680460446F8
:1008B000002614F8015B2DB1FFF7CCFC0068405D09
:1008C000C007F6D12B2D02D02D2D18D0641E4A461C
:1008D0003946204600F002FB27B13968A14201D118
:1008E000C7F8008071054FF002040BD54042002884
:1008F00003DD15F035FA0460A007BDE8F08746F483
:100900008066E4E70028F8DA15F02AFA04606FF050
:100910000040F2E770B5064615F022FA0468054675
:100920000A2200213046FFF7BDFF2C6070BD2DE983
:10093000FE4F804681EA0300C00F0C46009021F074
:10094000004123F00045B8EB0200A94105D2404622
:10095000214690461C460B46024623F000401043B9
:1009600004D14046214603B0BDE8F08F270DC7F300
:100970000A00C3F30A510290401A0190402866DA37
:10098000C3F3130040F4801B0098924620B100236B
:10099000D2EB030A63EB0B0B01985946C0F14002FE
:1009A000504600F028FA06460D4650465946019A30
:1009B00000F040FA10EB08006141002487EA115270
:1009C00084EAE7731A433BD0009A3AB3019A012AAA
:1009D0004FEA075210DC001B61EB02014FF00042AE
:1009E00002EA0752CDE90042001C41F5801132466F
:1009F0002B4600F01EFBB6E7001B61EB0201001C5A
:100A000041F5801300185B412018A2F5001747EB51
:100A1000030140EAD570B6196D4111E06D084FEA47
:100A2000360645EAC0754FEA0752001B61EB02012A
:100A3000001C41F5801149084FEA3000001951416E
:100A400032462B4603B0BDE8F04F00F0E5BA0098FF
:100A5000012240000023D0EB020263EBE073009818
:100A600021464FEAE074B8EB000061EB0401E9E7CE
:100A700083F000435BE781F0004158E72DE9FE4F2A
:100A800081EA030404F0004421F0004100944FF097
:100A9000000B23F0004350EA010402D052EA0304A1
:100AA00004D10020014603B0BDE8F08FC3F30A541F
:100AB000C1F30A552C44A4F2F3340194A0FB025470
:100AC000C1F3130141F48011C3F3130343F4801302
:100AD00001FB024400FB034E840A970A44EA815456
:100AE00047EA8357A4FB076802958D0A05FB078533
:100AF0004FEA932C04FB0C542705029D4FEA06583D
:100B000047EA1637B5EB08056EEB070C870E920E19
:100B100047EA811742EA8312A7FB0201B6EB0B01F9
:100B200064EB00042B0D43EA0C335E1844EB1C50BD
:100B3000DA465146E7FB0201C5F313044FEA0B33D3
:100B400043EA14534FEA0432019C43EA0603A4F13A
:100B50000C040294009CCDE900B400F06AFAA2E70C
:100B60002DE9F04D81EA030404F0004B21F000452B
:100B700014464FF0000A23F0004150EA050220D04D
:100B800054EA01021DD0C5F30A570246C5F3130308
:100B9000C1F31300C1F30A5640F4801543F48013E7
:100BA000A7EB0608101BD64608F2FD3873EB0500CC
:100BB00002D308F1010801E092185B41B8F1000F7F
:100BC00003DA00200146BDE8F08D00204FF48011CB
:100BD000064684460EE0171B73EB050705D3121B70
:100BE00063EB050306434CEA010C49084FEA300069
:100BF00092185B4150EA0107EDD152EA030012D08E
:100C000082EA040083EA0501084303D100224FF081
:100C1000004308E0101BAB4102D20122002302E096
:100C20006FF0010253101AEB06004CEB085110EB69
:100C30000A0041EB0B01BDE8F04D00F0EDB970B5D5
:100C400021F0004303430CD0C1F30A550024D5EB37
:100C5000040564EB0403D617AD1AB34102DB002090
:100C6000014670BD201841EB025170BD0EB5C10F99
:100C700080EAE0700844CA07002140F233438DE85F
:100C80000E000A460B4600F0D4F903B000BD0EB5C5
:100C900040F2334102910021CDE900110A460B4692
:100CA00000F0C7F903B000BD70B5C1F30A5201F0FE
:100CB00000450024C1F3130140F2FF3341F48011D9
:100CC0009A4201DA002070BD40F233439A42A2F208
:100CD000334203DC524200F09DF800E090402C4388
:100CE000F1D0404270BDC1F30A5210B5C1F31301F7
:100CF00040F2FF3341F480119A4201DA002010BD26
:100D000040F233439A42A2F2334203DC524200F0F3
:100D100081F810BD904010BD30B5002904DB4FF0C4
:100D20000044404264EB0101002B04DB4FF000441F
:100D3000524264EB03038B4208BF824230BD000085
:100D400030B5002904DB4FF00044404264EB010160
:100D5000002B04DB4FF00044524264EB0303994242
:100D600008BF904230BD000030B50B460146002060
:100D70002022012409E021FA02F59D4205D303FA5D
:100D800002F5491B04FA02F52844151EA2F10102DE
:100D9000F1DC30BD2DE9F05F0546002092469B4610
:100DA00088460646814640241BE028464146474681
:100DB000224600F02FF853465A46C01A914110D3EC
:100DC00011461846224600F016F82D1A67EB010866
:100DD0004F4622460120002100F00DF817EB0009D4
:100DE0004E41201EA4F10104DFDC484631462A466C
:100DF0004346BDE8F09F202A04DB203A00FA02F1C6
:100E0000002070479140C2F1200320FA03F31943F8
:100E100090407047202A04DB203A21FA02F000219A
:100E2000704721FA02F3D040C2F1200291400843FA
:100E300019467047202A06DBCB17203A41FA02F008
:100E400043EAE07306E041FA02F3D040C2F1200227
:100E500091400843194670473A2800D2303820F0B4
:100E60002002412A01D3A2F13700884201D34FF07A
:100E7000FF307047026811441378016018467047CC
:100E8000D160044951610449116200211161114688
:100E900000F0C4B9750E00085D020008426842B156
:100EA000016811F8013B23B1521EC0E90012184637
:100EB00070470121C160881E704742685AB1C368FB
:100EC000016843B983688B4205D0491E521CC0E9B2
:100ED0000012002070474FF0FF3070472DE9F05F9F
:100EE00082460078002715468B460AF10104B94670
:100EF000302801D09DB113E014F8010B01277828A8
:100F000003D0582801D045B10AE00DB1102D07D10A
:100F10000027102514F8010B02E0082500E00A253F
:100F20000026B0460EE005FB080005FB06F1012790
:100F300001EB10461FFA80F8B6F5803F00D3B946A2
:100F400014F8010B2946FFF787FF0028EBDABBF105
:100F5000000F05D00FB1641E00E05446CBF80040EE
:100F6000B9F1000F06D014F0FBFE02210160C81E8B
:100F7000BDE8F09F48EA0640FAE700000FB40023FE
:100F800000B589B00CA900910B996FF00042CB60BD
:100F90001E4B06931E4B07930423CDE901321D4AD5
:100FA000089202466B460020FFF75EFB09B05DF831
:100FB00014FB70B586B006464FF0FF300091CDE9C6
:100FC0000101002015460C4604903246694604A8EB
:100FD000FFF7D4FF03460498211825B108B10A464B
:100FE00000E022462A6000280DD0002B02DD009888
:100FF000884208D0081B0094CDE9010432466946B6
:1010000004A8FFF7BBFF06B070BD00009D0E0008EE
:10101000BB0E00085D02000810B5002B08DA401C6A
:1010200041F1000192185B411A4301D120F0010007
:1010300010BD2DE9F04D92469B4611B1B1FA81F2F7
:1010400002E0B0FA80F220329046FFF7D4FE044668
:101050000F4640EA0A0041EA0B0153465A4608434C
:1010600003D120463946BDE8F08D114653EA010010
:1010700015D0C8F140025046FFF7CCFE05460E469B
:10108000504659464246FFF7B6FE084301D00120BC
:1010900000E00020054346EAE0762C4337430A98F7
:1010A0004FEA4453A0EB08004FEAD4240A304FF033
:1010B000000244EA47544FEAD72502D500200146F2
:1010C000D1E7010510196941DDE9084500196941B9
:1010D000BDE8F04DA0E72DE9F04D00231A461B1A9C
:1010E0008A4103DB00200146BDE8F08DC1F30A52BE
:1010F000C1F3130141F480154FF0000BD10702D169
:1011000000186D41521E0027044640F2FF11384678
:1011100001EB620A3E468046024600204FF48011F1
:10112000FFF778FEC2197141BB1846EB0100B4EB22
:10113000030C75EB000C04D3E41A65EB00051746AD
:101140000E46241908F101006D4180463428E3DD84
:10115000F91946EB0600091BA84103D24FF0FF32F4
:10116000134601E0002213461BEB070046EB0A5131
:10117000BDE8F04DFFF750BF0EB540F2334202928A
:101180000022CDE900221346FFF753FF03B000BD54
:10119000C1F30A52C1F3130140F2FF3341F480114D
:1011A0009A4202DA00200146704740F233439A42E5
:1011B000A2F2334202DC5242FFF72CBEFFF71BBE05
:1011C00001F0004330B421F0004150EA010206D0A2
:1011D0000A0DA2F56072C1F31301002A02DC30BCD3
:1011E00000207047440F44EAC104C100E01830BC3D
:1011F00000EBC25000F0A8B9064C074D06E0E068CD
:1012000040F0010394E8070098471034AC42F6D34D
:10121000FEF7BCFF747F0208947F02082DE9F34FAC
:101220008BB04FF0000801F10C000C464FF0010BA1
:1012300046460DF1080A0190626901210198904724
:1012400005002DD0252D2CD0216A8847C0B16269B8
:10125000012101989047216A88470028F7D1411E53
:1012600062690198904700E0761CA1690B98884755
:10127000216A88470028F7D1E1690B988847DBE7A6
:10128000A1690B9888470746A84201D1761CD3E78D
:10129000E1690B9888477F1C02D1B8F1000F6FD02D
:1012A00045E1002762693D463946019890472A2862
:1012B00004D162690121019890470125DFF88492E9
:1012C0006269012101989047A0F130010A290AD2F0
:1012D0004F45E5DC07EB870100EB4107303FDFD4EA
:1012E00045F01005ECE7E90601D46FF000476C28E3
:1012F0000AD04C2814D0682815D06A280DD074283C
:101300001CD07A281AD01DE062690121019890470B
:101310006C2802D045F0040514E045F002050DE00C
:1013200045F020050AE0626901210198904768288C
:1013300002D045F0080505E045F400656269012129
:1013400001989047C4E9015765283DD019DC582819
:1013500079D00CDC452837D004DC252826D041285C
:1013600031D131E046282FD047282CD12CE05B2802
:101370007FD0612828D063287BD0642823D159E00E
:10138000CFE06F2847D008DC66281DD067281BD027
:10139000692821D06E2816D127E0702844D0732800
:1013A00067D0752846D078280DD14CE0A1690B98FC
:1013B0008847054625283FF469AFE1690B988847BF
:1013C0006D1C3FF46AAFB2E023466A466FF001003D
:1013D0000B99FFF749F99DE045F040006060A807D0
:1013E00023464FF0000235D43DE0206800F10401AF
:1013F00021600068290501D506701DE7290701D580
:10140000068019E7A90704D54FEAE671C0E9006133
:1014100012E7066010E745F040006060A807234629
:101420004FF0080216D41EE040F60E0125EA010036
:10143000606016E045F040006060A80723464FF06A
:101440000A0207D40FE045F040006060A80708D505
:10145000234610226FF001000B99AFF3008059E092
:1014600007E0234610226FF001000B99FEF7D4FF2E
:1014700050E04FF000094F464B46632802D05B28EE
:1014800006D040E0E80601D40120A06001273AE040
:1014900062690121019890475E2805D14FF001094A
:1014A0006269494601989047216939B900210B4684
:1014B000524642F82130491C0829FADBB0B32169B1
:1014C00069B9C11700EBD1614B110AEB830221F01E
:1014D0001F01411A012013688840034313606269A9
:1014E0000121019890475D28E8D1B9F1000F09D09A
:1014F0000020514651F82020D24341F82020401CC2
:101500000828F7DB02AB224600976FF001000B9929
:10151000AFF3008000280CDA401C08D1BBF1000FAB
:1015200005D04FF0FF300DB0BDE8F08FFFE740462B
:10153000F9E7E90701D108F1010806444FF0000B73
:101540007AE60000CCCCCC0C0029A8BF7047401C28
:10155000490008BF20F00100704710B4B0FA80FCC9
:1015600000FA0CF050EA010404BF10BC704749B106
:10157000CCF1200421FA04F411FA0CF118BF012176
:1015800021430843A3EB0C01CB1D0106000A002BED
:10159000BEBF002010BC704700EBC35010440029B0
:1015A000A4BF10BC7047401C490008BF20F00100D8
:1015B00010BC704770B501EB020410F8015B15F028
:1015C000070301D110F8013B2A1106D110F8012BB5
:1015D00003E010F8016B01F8016B5B1EF9D12B07DA
:1015E00005D40023521E0FD401F8013BFAE710F88E
:1015F000013B02F10202A1EB030303E013F8015BDC
:1016000001F8015B521EF9D5A142D6D3002070BD6E
:10161000F0B599B0012135480FF0B8F901210D025C
:1016200028460FF0D7F902F09DFB31480024CDE9A0
:101630000040304802A9052651C1A800CDE9054067
:10164000400007908000CDE908050AA900010125A6
:1016500031C1294F0D94694638460E9401F046F980
:101660000121384601F038F915941694179415A8FD
:10167000189400F04FF80F94119413941C4C8DF8AB
:1016800040504C3C8DF841508DF850600FA92046D9
:1016900000F07EF8002301221946204600F09EF853
:1016A000002302220121204600F098F800230322A3
:1016B0000221204600F092F8002304220A2120464D
:1016C00000F08CF8002305220B21204600F086F85C
:1016D0000121204600F03CF80121204600F02EF8C0
:1016E0000121204600F00CF819B0F0BD05004000C3
:1016F0004C200140700100201064024000F03EB810
:101700000029816802D041F0010101E021F00101CE
:1017100081607047074B10B51A6807490A40D0E945
:1017200000142143D0E902400443214311431960CE
:1017300010BD000004230140E030FCFF0029816857
:1017400002D041F4807101E021F480718160704722
:101750000029816802D041F4007101E021F4007198
:1017600081607047044931F8100048F6CC51484375
:10177000C0F30F30704700007001002010B5FFF774
:1017800047FF024800F064F810BD0000002001404F
:1017900030B542680F4B0C791A400B6842EA0422BC
:1017A0001343436082680C4B4D791A40D1E90343DF
:1017B00023438C6844EA4504234313438360C26A8D
:1017C000097D22F47002491EC9B242EA0151C16288
:1017D00030BD0000FFFEFFFCFDF7FFC070B5072421
:1017E00009290AD9C568A1F10A0606EB4606B440E4
:1017F000A543B3401D43C56007E0056901EB410601
:10180000B440A543B3401D4305611F23072A09D2F5
:10181000446B521E02EB820293409C4391400C4366
:10182000446370BD0D2A09D2046BD21F02EB820201
:1018300093409C4391400C43046370BDC46A0D3ACD
:1018400002EB820293409C4391400C43C46270BD02
:10185000816841F080418160704700002DE9F047C8
:101860002E4FDFF8BCA02F4D38782F4CC0074FF01B
:1018700000064FF0010935D0288860BB2B4802F0E4
:10188000F9FADFF8AC801C2807D12848D8F80410F2
:10189000C01E88470F2022F0D5FAD8F8041025483A
:1018A00088473878800705D584F8009000200FF02D
:1018B00087FD78B3BAF8000028801F480078032815
:1018C00003D0042801D00F2003E01C480078010653
:1018D00002D422F0B7FA05E000F07F00642148430B
:1018E00011F036F916480078C1070FD0698869B938
:1018F000800705D584F8009001200FF061FD48B104
:10190000BAF8020068800F2022F09CFA26700120AD
:10191000BDE8F087FFE726700020F9E740000020CF
:101920003C00002032000020620000207B0E0020DE
:10193000340E00208F110020430000205A000020A8
:101940004100002070477047FEE700002DE9F04F8E
:101950008A4681468BB09B469046012108200FF0B5
:1019600015F82F4F09220021384602F068FA0922A3
:101970000121384602F063FA02208DF820008DF82C
:101980002100002403268DF82240012507968DF8BA
:10199000235007A9384602F001FA14208DF82400DC
:1019A0008DF825608DF826608DF8275009A803F082
:1019B0008BFF1C4E304600F021F9684600F051FACA
:1019C0008DF806408DF807408DF802408DF80390A1
:1019D0008DF804A002948DF80580ADF800B069463A
:1019E000304600F08BF98DF816408DF817408DF8D1
:1019F0001850ADF80C40ADF81040ADF80E40ADF801
:101A00001240ADF814408DF8195003A800F00CF9FD
:101A100001220221304600F069F90BB0BDE8F08FD9
:101A2000000C02400064004030B5134885B00068E7
:101A3000124D10F4014F06D000220221284600F07A
:101A400055F905B030BD0E4C207858B10121FC206D
:101A500011F062FE0020207001466A46284600F020
:101A6000C1F9EEE76A460021284600F0BBF9694655
:101A700004480EF04EFFE4E71864004000640040A4
:101A800078000020508500202DE9F04F8A468146DD
:101A90004FF0C0668BB09B469046012130460EF059
:101AA00081FF012102200EF071FF324F09220C212B
:101AB000384602F0C4F909220D21384602F0BFF978
:101AC0007013079002208DF820008DF8210000246B
:101AD0008DF8224001258DF8235007A9384602F0E1
:101AE0005DF9012130460EF05DFF234E304600F0D7
:101AF00085F8684600F0B5F940208DF824008DF88F
:101B0000064004218DF807408DF802408DF825101D
:101B10008DF803908DF804A08DF8261002948DF8AE
:101B20000580ADF800B08DF8275009A803F0CCFE71
:101B30006946304600F0E2F80E208DF816008DF868
:101B400017408DF81850ADF80C40ADF81040ADF8C6
:101B50000E40ADF81240ADF814408DF8195003A8AE
:101B600000F062F801220221304600F0BFF80BB00D
:101B7000BDE8F08F000402400068004030B5134813
:101B800085B00068124D10F4014F06D000220221EA
:101B9000284600F0ABF805B030BD0E4C207858B1A7
:101BA0000121FC2011F0B8FD0020207001466A469A
:101BB000284600F017F9EEE76A460021284600F0B3
:101BC00011F9694604480EF0A4FEE4E718680040E5
:101BD0000068004078000020688F00202DE9F04167
:101BE0001C4615460E460746FFF7B0FE23462A461A
:101BF00031463846BDE8F041FFF746BF094910B508
:101C000088424FF0010101D14C0601E04FF08064A1
:101C100020460EF0D3FE2046BDE8104000210EF015
:101C2000CDBE000000640040F0B5827A01219140F1
:101C30002D4A136843F0010313602B4B1C331C68BF
:101C40008C431C60284C284D077B0C3440352E1DDE
:101C5000A7B927688F4327604788B0F806C047EACE
:101C60000C4790F80AC045F83C700788B0F804C0EB
:101C700047EA0C4790F80AC046F83C70077B012FF2
:101C80000ED127680F4327600468877A4FEA3444EF
:101C900045F837404468857A4FEA344446F8354081
:101CA000114CC57A241D002D256806D00D432560F2
:101CB0000D4C0589143415B104E08D43F7E7256810
:101CC0008D4325600589012D02D125680D432560CE
:101CD000407B012802D1186808431860106820F082
:101CE00001001060F0BD000000660040002A42695B
:101CF00001D00A4300E08A434261704710B503688F
:101D0000002223F002030360036843F00103036031
:101D10004FF6FF7300E0521C4468E40701D19A4279
:101D2000F9D14268D2073ED08A79012A02683CD0B4
:101D300022F080020260CA79012A026838D022F0BB
:101D4000400202600A7A012A026834D022F020029E
:101D500002604A7A012A026830D022F01002026042
:101D60008A7A012A02682CD022F008020260CA7A1C
:101D7000012A026828D022F0040202608A78CC7816
:101D8000920742EA04620C7942EA04424C790988DB
:101D900042EA0452491E0A43C261016821F001016E
:101DA0000160002114E0002010BD42F08002C1E774
:101DB00042F04002C5E742F02002C9E742F01002BB
:101DC000CDE742F00802D1E742F00402D5E7491C12
:101DD0004268D20701D09942F9D14068C007E2D1E8
:101DE000012010BD10B500EB0113D3F8B04114F081
:101DF00004041472D3F8B0412BD0E408C2F80440B4
:101E000003F5D8731C6804F0020454725C6804F093
:101E10000F0494725C68240AD4749C68D4729C6821
:101E2000240A14739C68240C54739C68240E9473C5
:101E3000DC68D473DC68240A1474DC68240C5474E1
:101E4000DB681B0E937439B1016941F02001016117
:101E500010BD640D1460D3E7C16841F02001C1607A
:101E600010BD00218171C171017241728172C17214
:101E70008170C17003210171022141710121018032
:101E8000704730B50246002093685B0108D4906823
:101E9000000101D5012003E09068C00031D5022087
:101EA00002EB0012D2F8803103F00103C2F8803156
:101EB0000B7A43B3D2F880414D681C434B7A43EA16
:101EC000C5031C43C2F880418B7A02F5C07203F04F
:101ED0000F038B72536823F00F03536053688C7A9F
:101EE00023435360CB7ACC6843EA04239360CB7BD3
:101EF000096943EA0121D160116841F001011160D3
:101F000030BD042030BDD2F880314C7A23430C8898
:101F100043EA4453C2F88031D6E700002DE9F0418E
:101F2000DFF8B880002588B0B8F868310E461C0A82
:101F3000012C01D10826DFB2002305AC06E000BF6A
:101F400010F801CB04F803C05B1C9BB28B42F7D3A3
:101F500002E06754491CC9B2B142FAD30020002AFA
:101F600006DBC2F30E01CDE900108DF8080006E093
:101F700022F06041CDE9000104218DF808108DF8B0
:101F800009008DF80A600020694604E0225C0B1805
:101F9000401CDA72C0B29DF80A208242F6D8104E78
:101FA000104F114C98F84400062810D00E280ED07F
:101FB00003280CD00B280AD069463846FFF761FF8A
:101FC0006D1C042806D0012008B0BDE8F0816946E8
:101FD0003046F3E7A542E5D30020F5E7AC0C00203E
:101FE0000068004000640040FEFF0F002DE9FF5F25
:101FF0000D460024834622460221FFF777FEE806BD
:10200000A046314E4FF00107454625D541F6FF79F0
:102010004FF6FF7A56F824008DF80A50C00040F0C1
:102020000400010CADF80010641C8DF80B808DF8D5
:102030000C70ADF80200ADF80490A4B2ADF806A0A3
:10204000ADF808808DF80D706846FFF7EDFD6D1C4A
:10205000ADB20E2DDED330E036F82400641C42050C
:10206000A0B236F82010401C4B0581B256F8210072
:10207000491C42EA40108AB256F822108DF80A50E4
:1020800043EA4111030CADF80030ADF80200080C32
:10209000ADF80400521C8DF80B708DF80C8094B2D2
:1020A000ADF80610ADF808808DF80D706846FFF7A2
:1020B000BBFD6D1CADB20E2DCED3012202215846C0
:1020C000FFF714FEBDE8FF9F647A00202DE9F04F72
:1020D00083464E48DFF838A199B0D0E95C761446C3
:1020E0000D465246382101A8FEF7E7F80A2C06D91A
:1020F0000221F32011F010FB19B0BDE8F08FFAB205
:10210000F7B2002001AE10E0AB7895F801C043F0C3
:10211000180329781B0603EB0C4303EB0121114440
:10212000ED1C46F82010401C80B2A042ECD30025E4
:10213000A8464FF0010925E056F8250047F0E05188
:10214000C0006FEAC10240F004014FEA114CADF843
:1021500040C042F00400ADF842106D1C010C8DF837
:102160004A50ADF844108DF84B808DF84C90ADF886
:102170004600ADF848808DF84D9010A8FFF754FD4B
:102180006D1CADB2A542D7D3224846F825006D1C80
:10219000A8B2214946F82010401C80B21F4946F8D9
:1021A0002010401C80B2251D46F820A026E000BF6C
:1021B00056F824001A49C00040F0040039434FEAA1
:1021C000104C6FEAC101ADF840C041F00401ADF818
:1021D0004200641C080C8DF84A40ADF844008DF8AC
:1021E0004B808DF84C90ADF84610ADF848808DF8D6
:1021F0004D9010A8FFF718FD641CA4B2AC42D7D3D1
:10220000012202215846FFF771FD75E7AC0C002052
:1022100000FFEC9800FFE89800FFEA9800FFEB98B9
:1022200000FF001CFEB50F460646FFF7E7FC6846B8
:10223000FFF717FE00208DF8060007F0E0018DF88B
:1022400007000290202904D0402902D0802903D120
:1022500001E0012000E002208DF802001148124A3E
:102260000021006801EB410352F82330834206D17C
:1022700001EB410002EB8000D0E9014502E0491C7E
:102280001929EFD3200A8DF80400200C8DF80340A3
:102290008DF80500ADF8005069463046FFF72EFD79
:1022A000FEBD0000AC0C0020F44F02082DE9FF47F2
:1022B000384E0F468146D6E95C4500220221FFF7E1
:1022C00015FDDFF8D480F80607D5E943E000CA0021
:1022D00040F0040142F0040003E0E843610548EAED
:1022E00040502E4B0024994502D18DF80A4002E05F
:1022F0000E228DF80A200A0CADF80020ADF802106D
:10230000010C0125ADF804108DF80B408DF80C5030
:10231000ADF80600ADF808408DF80D506846FFF79F
:1023200083FC012202214846FFF7E0FCF8072ED08B
:10233000D6E95E01FA0607D5C943C000CA0040F0DD
:10234000040142F0040003E0CA43410548EA425058
:102350009DF80A208DF80C50521C8DF80A200A0CAA
:10236000ADF80020ADF80210010CADF804108DF8A6
:102370000B40ADF80600ADF808408DF80D506846EA
:10238000FFF752FC012202214846FFF7AFFCBDE8EF
:10239000FF870000AC0C0020F8FF01000064004043
:1023A0002DE9FF4122A306240FCB8DE80F00002169
:1023B000012020F0A5FE224E00256F464FF0640854
:1023C000785D01460FF0C0FA00200EF061FF052095
:1023D00021F038FD01200EF05BFF052021F032FDD9
:1023E00000200EF055FFB0FBF8F03055641C6D1C5A
:1023F000EDB2E4B20D2DE3D33079401F062813D29D
:10240000DFE800F003030303090901F0A5FC012143
:102410008143717101E0FF207071A41E747008483F
:1024200011F014FDBDE8FF8101F096FCF4E7000017
:10243000010203060708090A0B0C0D0E0F0000002D
:102440001A14002070B50A480025144605600EF0E5
:1024500047FF204613F0E0F906486421057006485E
:10246000FDF732FFBDE8704064210448FDF72CBF42
:1024700054000020400000208F110020780E002022
:102480001046024A0121117006F02EBB63000020A5
:1024900010B5144608B90B48416809B11046884781
:1024A00009480078400705D40848094902880A808D
:1024B00040884880E27900210648F12A00D1017065
:1024C000017010BD340E0020400000203C000020B0
:1024D000320000207C00002010B51446104608F0A1
:1024E000BDFCA078BDE81040012111F015B9000035
:1024F00070B5164608B910480468104900250878D8
:10250000012802D10D7008F0D5FC0CB13046A0476F
:102510000B480178C90708D00A480B4902880A808D
:10252000408848800948057070BD057064210848DE
:10253000FDF7CAFEF6E70000340E00206C00002014
:10254000400000203C000020320000207C000020E1
:102550008F11002003491046C968002900D00847A0
:1025600070470000340E002010B5D41CD17804A0B0
:102570001BF038FB2178084801B14168816110BD2A
:10258000674B656570616C77617973466C61673D17
:102590003D25303278000000340E002010B59078D0
:1025A0001446402804D1E01C01F064FC1C2814D01F
:1025B000207861784218D21C21460D48FDF75DFE57
:1025C0000B48817801F00F0141F030018170A07853
:1025D0000021BDE8104011F09FB8207861784218C2
:1025E000D21C21460348FDF748FEA0780121F0E700
:1025F0008F110020780E00202DE9F0410EF070FEC2
:1026000001200FF035F9C82021F01CFC02200EF04B
:102610003FFE1F4D0020042428706870FC20A87025
:102620000620E870FFF78EF901264FF00A086427AC
:10263000B6FBF8F108FB116000EB0110C0B20FF01F
:1026400017F9032021F0FEFB02200EF021FE192EC7
:1026500012D064207043B0FBF7F02855641C761C40
:10266000A4B2642EE4D9A41E200A28706C70BDE8C0
:10267000F041074811F0EABBB0FBF7F01638072825
:1026800003D219202855641CA4B21A26D0E70000F2
:102690001A14002030B4134602E0C518C45C6C71F3
:1026A0005B1EFAD2302303700B0E43700B0C837049
:1026B0000B0AC370017130BC511DAFF3008070B5BF
:1026C0000A4602E08418835C2371521EFAD2A522C6
:1026D000027042700A0A8270C170491D43180022BC
:1026E00003F8012C02224C1E06E013F8015C865C04
:1026F000521C354403F8015CA242F6D313F8010DD5
:10270000C0431870084670BD2DE9F04F91B0814666
:102710008B4600244FF00A0A684600F065F800284E
:102720003DD09DF80400082807D2044622460DF14A
:1027300005014846FDF7A1FD47E00127B7EB101F53
:1027400043D19DF8051000F00F0001EB0024DDF8E7
:102750000610C9F80010BDF80A10A9F804104021AD
:102760006846FDF7B1FD06260125DFF864802AE002
:10277000504621F067FBC8225946684600F034F8FD
:10278000042803D2032188F8081007E09DF80410FC
:1027900005F12000814205D088F80870002011B0B2
:1027A000BDE8F08F09EB0600DDF805100160BDF80B
:1027B000091081806D1C9DF80B10EDB281710F2DF9
:1027C00000D90025F61DA642D2D32046E7E7000037
:1027D000C803002008B50021ADF80010694603F0D9
:1027E000E1F9BDF8000008BDF8B504460020174621
:1027F000ADF800000546144E20E03A4669462046F2
:1028000003F0D0F9BDF80010204600F059F880B26E
:10281000ADF80000042803D328466D1C142803D902
:10282000032030720020F8BDE0782178A27800EB18
:1028300001606178090401EB022108447169814259
:10284000DBD1BDF80000F8BDC803002070B590B022
:102850000C46064640216846FDF736FD164D6CB124
:102860006846E1B2082C0ED28DF80010224631469F
:10287000401CFDF702FD0822E96812E003202872DF
:10288000002010B070BD102202EB14228DF8002041
:102890008DF8011022463146801CFDF7EEFC2969B7
:1028A00008226846FFF7F6FE82B26946034811F037
:1028B000FFF90120E5E70000C8030020742500208F
:1028C00010B50024062905D9891F0C460A46411D6A
:1028D000FDF7D3FC204610BD0029016802D041F06D
:1028E000010101E021F001010160704730B503688A
:1028F000124ACC6813400A682243D1E905452C43AB
:102900002243CC6922430C6A22434C6A22438C6ADC
:1029100022434C6B22438C6B22431A430260426970
:1029200022F00703D1E90B2422431A4342610A69CA
:1029300042604A6882608968C16030BD3F801CF097
:10294000F0B591B0044640216846FDF7BDFC14F097
:10295000ABF806007ED0FEA014F0AEF80246FDA152
:10296000304614F077F8FD4814F0A6F80246FCA1B2
:10297000304614F06FF814F097F805006BD020463D
:1029800014F09AF80246F8A1284614F063F804F10E
:102990001E0014F091F80246F5A1284614F05AF8EA
:1029A00040216846FDF790FC3834F3A1D4E90023B8
:1029B000684613F09BF9684614F07EF80246F0A1D1
:1029C000284614F047F840216846FDF77DFCEDA14C
:1029D0006846A26813F08AF9684614F06DF802465A
:1029E000E9A1284614F036F840216846FDF76CFC52
:1029F000D4E90423E0A1684613F078F9684614F09E
:102A00005BF80246E1A1284614F024F8402168460C
:102A1000FDF75AFCD4E90623D7A1684613F066F9FE
:102A2000684614F049F80246DAA1284614F012F874
:102A300040216846FDF748FCD2A16846226A13F09F
:102A400055F9684614F038F80246D4A1284614F027
:102A500001F801E049E238E240216846FDF734FC24
:102A6000C8A16846626A13F041F9684614F024F878
:102A70000246CCA1284613F0EDFF40216846FDF741
:102A800023FCD4E90A23BCA1684613F02FF9684659
:102A900014F012F80246C5A1284613F0DBFF4021CE
:102AA0006846FDF711FCD4E90C23B3A1684613F086
:102AB0001DF9684614F000F80246BEA1284613F03E
:102AC000C9FF40216846FDF7FFFBD4E90E23AAA108
:102AD000684613F00BF9684613F0EEFF0246B7A103
:102AE000284613F0B7FF40216846FDF7EDFBD4E917
:102AF0001023A1A1684613F0F9F8684613F0DCFF33
:102B00000246B0A1284613F0A5FF40216846FDF714
:102B1000DBFBD4E9122398A1684613F0E7F8684676
:102B200013F0CAFF0246A9A1284613F093FF4021E3
:102B30006846FDF7C9FBD4E914238FA1684613F05A
:102B4000D5F8684613F0B8FF0246A2A1284613F054
:102B500081FF40216846FDF7B7FBD4E9162386A123
:102B6000684613F0C3F8684613F0A6FF02469BA11F
:102B7000284613F06FFF40216846FDF7A5FBD4E916
:102B800018237DA1684613F0B1F8684613F094FF4E
:102B9000024694A1284613F05DFF40216846FDF7E8
:102BA00093FBD4E91A2374A1684613F09FF8684692
:102BB00013F082FF02468DA1284613F04BFF4021FF
:102BC0006846FDF781FBD4E91C236BA1684613F02E
:102BD0008DF8684613F070FF024686A1284613F070
:102BE00039FF40216846FDF76FFBD4E91E23383CCE
:102BF00061A1684613F07AF8684613F05DFF02465B
:102C00007DA1284613F026FF04F1B80013F054FF0D
:102C100002467BA1284613F01DFF04F1E00013F0EB
:102C20004BFF024678A1284613F014FF04F1F4008C
:102C300013F042FF024675A1284613F00BFF04F57E
:102C4000BA7013F039FF024672A1284613F002FF52
:102C500004F5FA7013F030FF024670A1284613F015
:102C6000F9FE04F51D7013F027FF02466DA12846FA
:102C700013F0F0FE40216846FDF726FB04F53E7494
:102C80003DA1D4E90023684613F030F8684613F0FC
:102C900013FF024665A1284613F0DCFE402168467A
:102CA000FDF712FBD4E9022333A1684613F01EF8A6
:102CB000684613F001FF02465EA1284613F0CAFEE3
:102CC00040216846FDF700FBD4E904232AA16846A9
:102CD00013F00CF8684613F0EFFE024656A12846A2
:102CE00013F0B8FE40216846FDF7EEFAD4E906235A
:102CF00021A1684612F0FAFF684613F0DDFE024695
:102D00004FA1284613F0A6FE40216846FDF7DCFAE5
:102D1000D4E9082318A1684612F0E8FF684613F0CA
:102D2000CBFE024647A1284613F094FE4021684698
:102D3000FDF7CAFAD4E90A230FA1684612F0D6FFBC
:102D4000684613F0B9FE024640A1284680E0000024
:102D5000310000006D736754797065004AF90020F6
:102D600070726F700000000074696D6500000000F3
:102D7000636F646500000000252E326600000000CD
:102D80006B696C0025640000737000006D617853FE
:102D9000740000006F7574537400000066726963FC
:102DA00074000000656E675370000000656E674632
:102DB0006C00000070757454000000006F7574544E
:102DC000000000007072657373000000696E74612A
:102DD0006B650000726561637400000074616E6B66
:102DE00000000000636F6F6C000000006675656C8A
:102DF0004A000000766F6C00656E675300000000AB
:102E00006661756C7400000076696E00666F4375CC
:102E100072000000666F566F6C000000626F4375B1
:102E200072000000626F566F6C0000006C6F61648E
:102E30000000000061696E0061696E7400000000AE
:102E400070776D0070726573000000006761730039
:102E500013F000FE40216846FDF736FAD4E90C2352
:102E6000A4F53E74AFF2F001684612F03FFF6846E9
:102E700013F022FE02461EA1284613F0EBFD04F5D6
:102E80004C7013F019FE02461AA1284613F0E2FD19
:102E900004F24E3013F010FE024618A1284613F03B
:102EA000D9FD174817F0A8FC044613F099FE074611
:102EB00013F002FE024613A1284613F0CBFD204674
:102EC00013F008FE384612F04FFF2A460FA1304695
:102ED00013F0C0FD304613F07FFE044601460DA0FE
:102EE00012F0E0FE204612F03FFF11B03046F0BD78
:102EF00066760000736F66740000000063766E00F3
:102F000024E400206975707200000000646174613F
:102F10000000000025730D0A0000000070B5ADF53B
:102F20005E7D0025204921A012F0BCFE4FF45E71A9
:102F30006846FDF7C9F9244C012020700EF05AFBB9
:102F400044F62066642020F07DFF2078643568B167
:102F5000B542F7DB00202070642020F073FF124997
:102F60001AA012F09FFE0DF55E7D70BD01200EF0DF
:102F700035FB684616F046FA684601F051F81A48E3
:102F8000FDF7D5F9024618490DF11E00FDF775F958
:102F900038A816F0A9FE6846FFF7D2FC0146134890
:102FA000006910F04BFCD5E79E76020877656C63EC
:102FB0006F6D6520746F205B25735D2C686168619F
:102FC00068610D0A00000000BD0300205B25735DF1
:102FD000207265706F7274206F7665722C686168FC
:102FE0006168610D0A000000C0EE0020200400208E
:102FF0000A490BA012F056FE02F0A0FF01F00CFDF2
:1030000002F082F917F00EFF13F08AFE41F28834C5
:1030100015F078FC204620F015FFF9E765710208ED
:1030200077656C636F6D6520746F205B25735D0D34
:103030000A000000074908A012F034FE0B4801F016
:10304000BBFC4FF47A7400BF20F0F6F9204620F064
:10305000F9FEF9E76F71020877656C636F6D6520A3
:10306000746F205B25735D0D0A00000030040020A2
:10307000704710B50C4600F06FFEA04203D000F080
:103080006BFEA04201D1012010BD002010BD704791
:10309000010605D500F07F00642148430FF058BDBC
:1030A00020F0D0BE0B4910B5C98A00244FF47A70C5
:1030B00001B108460021FFF7EAFF002808D00020F0
:1030C000401CC0B20428FBD3034AE0080121117060
:1030D00010BD0000AC0C00204800002030B5A1B0AD
:1030E00080216846FDF7F0F8254926A012F0DAFDA8
:1030F000294811F0D1FA08B128A019E080216846CA
:10310000FDF7E2F824484C300546FDF710F9024679
:103110001E232AA1684612F0E9FD4FF4FA64142335
:1031200022462BA168461FF055F8012803D02BA09A
:1031300012F0B8FD20E00A2020F084FE0A2340F6B9
:10314000B8322CA128461FF045F8012801D02BA049
:10315000EEE71423224627A12DA01FF03BF80128FB
:1031600001D030A0E4E70A2020F06CFE0A480C30C1
:103170001FF0E0FD002800D0012021B030BD00008C
:103180000871020877656C636F6D6520746F205B52
:1031900025735D0D0A00000018F00020557365725C
:1031A00042696E46696C6553617665436865636B19
:1031B000206661696C200D0A0000000041542B510B
:1031C0004854545055524C3D25642C25640D0A003A
:1031D000434F4E4E4543540D0A00000041542B51BD
:1031E0004854545055524C3D206661696C65640DDD
:1031F0000A0000004F4B0D0A000000005345542008
:1032000055524C206661696C65640D0A000000002F
:1032100041542B51485454504745543D36300D0AC3
:103220000000000041542B51485454504745543D30
:10323000206661696C65640D0A00000070B588B095
:10324000044620216846FDF73FF86C496CA012F057
:1032500029FD13F029FC06007DD070A013F02CFC92
:1032600002466FA1304613F0F5FB6F4813F024FCC3
:1032700002466EA1304613F0EDFB13F015FC05007D
:103280006AD0204613F018FC02466AA1284613F0C3
:10329000E1FB04F11E0013F00FFC024667A1284673
:1032A00013F0D8FB20216846FDF70EF8D4E90E2371
:1032B00064A1684612F01AFD684613F0FDFB024651
:1032C00062A1284613F0C6FB04F1400013F0F4FBA2
:1032D000024660A1284613F0BDFB20216846FCF79A
:1032E000F3FF583457A1D4E90023684612F0FEFCDE
:1032F000684613F0E1FB024658A1284613F0AAFBEA
:1033000020216846FCF7E0FFD4E902234DA168467E
:1033100012F0ECFC684613F0CFFB024650A12846A1
:1033200013F098FB20216846FCF7CEFF227C4DA1CC
:10333000684612F0DBFC684613F0BEFB02464AA169
:10334000284613F087FB20216846FCF7BDFF627C0E
:1033500044A1684601E04DE03CE012F0C7FC68463D
:1033600013F0AAFB024642A1284613F073FB20216A
:103370006846FCF7A9FFA27C3AA1684612F0B6FCA9
:10338000684613F099FB02463BA1284613F062FB06
:1033900020216846FCF798FFE27C32A1684612F0D3
:1033A000A5FC684613F088FB024635A1284613F0B9
:1033B00051FB20216846FCF787FF227D29A1684642
:1033C00012F094FC684613F077FB02462EA12846C3
:1033D00013F040FB2A462EA1304613F03BFB30464B
:1033E00013F0FAFB044601462BA012F05BFC2046CA
:1033F00012F0BAFC08B0304670BD0000CA75020871
:1034000077656C636F6D6520746F205B25735D2C31
:10341000206861686168610D0A00000033000000E7
:103420006D736754797065004AF9002070726F708F
:103430000000000074696D6500000000636F646542
:1034400000000000252E32660000000074696D65E2
:103450004C656E006454696D650000006D696C0018
:103460006F696C00256400007370557000000000E7
:103470007370446F776E00007475726E0000000008
:10348000697349646C000000697349646C5374008B
:10349000646174610000000025730D0A00000000E3
:1034A00000B5A1B080216846FCF70EFF684600F029
:1034B000B7FD1F48FCF73BFF02461D490DF11E00FA
:1034C000FCF7DBFE1B494FF03330CDE90E0110A8AD
:1034D00000F0A6FD19491848CDE916011949184808
:1034E000CDE918016F208DF8680070208DF8690013
:1034F00079208DF86A007A208DF86B0064208DF8B1
:103500006C00002000F08AFD0F48D0E90412CDE9DC
:103510001C12D0E90010CDE91E106846FFF78EFEA0
:1035200001460A48006910F089F921B000BD000089
:10353000C0EE00203333164014AE47E17A141F402A
:10354000C3F5285C8FC22140E8EF00202004002052
:1035500070B52B4C0020FC21207006206070A170FB
:10356000E0700EF0C1FAC82020F06CFC0C2000F0D6
:10357000EBFF0A2020F066FC0C2000F0E5FF64253C
:10358000B0FBF5F0207105200EF0AEFAC82020F057
:1035900059FC082000F0D8FF0A2020F053FC082036
:1035A00000F0D2FFB0FBF5F0607107200EF09CFA3E
:1035B000C82020F047FC052000F0C6FF142020F0B2
:1035C00041FC052000F0C0FF0A2020F03BFC052054
:1035D00000F0BAFFB0FBF5F0A07105200DF058FE29
:1035E0000A2020F02FFC05200DF052FE40F24C4145
:1035F000B0FBF1F0E0712046BDE8704010F026BC51
:103600001A14002010B5042000F0CEF8002808D0CD
:103610000021084602F01CFDBDE81040042000F027
:10362000BDB810BD10B5802000F0BEF8002808D04D
:103630000021084602F03EFDBDE81040802000F069
:10364000ADB810BD30B585B0012108200DF09EF950
:10365000012188030DF0BEF900248DF810400425E7
:103660008DF8134003A91148039500F097FB022140
:1036700003200EF03BF800958DF8044008258DF8E6
:10368000055001248DF80640684600F09DF88DF83D
:1036900008500F208DF809008DF80A008DF80B40B6
:1036A00002A802F011F905B030BD0000000C024084
:1036B0001CB50420009000208DF8040008218DF82E
:1036C00005108DF80600684600F07EF81CBD1CB59C
:1036D0000420009000208DF8040008208DF80500DB
:1036E00001208DF80600684600F06EF81CBD000051
:1036F00030B585B0012104200DF048F9012188037F
:103700000DF068F900248DF8104080258DF81340E5
:1037100003A91148039500F041FB072102200DF099
:10372000E5FF8DF8044008208DF805000124009580
:103730008DF80640684600F047F817208DF808001D
:103740000F208DF809008DF80A008DF80B4002A8B3
:1037500002F0BAF805B030BD000802401CB5802068
:10376000009000208DF8040008218DF805108DF8D8
:103770000600684600F028F81CBD1CB580200090AB
:1037800000208DF8040008208DF8050001208DF838
:103790000600684600F018F81CBD000001490860EA
:1037A00070470000143C0140064A014600201268A0
:1037B000044B0A4014331B680B4202D0002A00D08D
:1037C00001207047003C014030B51A4983790268F6
:1037D00053B30B6893430B600A1D13680468A3433B
:1037E000136002790A441368046823431360114A82
:1037F000083213680468A3431360131D1C6805682E
:10380000AC431C604479102C05D021440A68006840
:1038100002430A6030BD11680468214311601968D1
:1038200000680143196030BD007908440168914384
:10383000016030BD003C014010B5A0B004468021BD
:103840006846FCF741FD80216846FCF73DFD2246B5
:1038500008A1684612F04AFA142341F2883209A1FD
:1038600068461EF0B7FC012802D0012020B010BD30
:103870000020FBE741542B5146434C4F53453D2517
:10388000640D0A004F4B0D0A0000000010B5A0B0F7
:10389000044680216846FCF717FD80216846FCF746
:1038A00013FD224608A1684612F020FA142341F2C3
:1038B000883209A168461EF08DFC012802D0012043
:1038C00020B010BD0020FBE741542B514644454C2D
:1038D0003D222573220D0A004F4B0D0A0000000007
:1038E00070B5A4B00D4606461446802101A8FCF729
:1038F000EBFC0020219022902390802101A8FCF76E
:10390000E3FC2B46324611A101A812F0EFF901A900
:1039100013A012F0C7F9142341F2883214A101A8B0
:103920001EF058FC012802D0012024B070BD21A84F
:103930000090002310A211A1124815F04DFB21A800
:10394000FCF7E8FF20600020EFE7000041542B5116
:10395000464F50454E3D222573222C25640D0A000A
:10396000456346696C654F70656E3D2573000000C8
:103970004F4B0D0A000000002000000051464F5040
:10398000454E3A002CF1002010B5A0B0044680212D
:103990006846FCF799FC80216846FCF795FC2246B6
:1039A0000AA1684612F0A2F969460DA012F07AF950
:1039B000142341F288320FA168461EF00BFC012847
:1039C00002D0012020B010BD0020FBE741542B5154
:1039D00046504F534954494F4E3D25640D0A00004F
:1039E000456346696C65506F7374696F6E3D2573EE
:1039F000000000004F4B0D0A0000000030B5C1B0C0
:103A00000C460546802101A8FCF75EFC802121A818
:103A1000FCF75AFC802101A8FCF756FC802121A864
:103A2000FCF752FC23462A460BA101A812F05EF9CE
:103A300022460EA121A812F059F90A2341F2883238
:103A400021A901A800941EF0D3FD012802D0012075
:103A500041B030BD0020FBE741542B514652454157
:103A6000443D25642C25640D0A000000434F4E4E52
:103A70004543542025640D0A0000000070B5A2B033
:103A80000C4605461646802101A8FCF71DFC802146
:103A900001A8FCF719FC23462A4609A101A80096B3
:103AA00012F024F90A2341F288320BA101A81EF07A
:103AB00091FB012802D0012022B070BD0020FBE75D
:103AC00041542B51465345454B3D25642C25642CD0
:103AD00025640D0A000000004F4B0D0A0000000095
:103AE000016809B9406808B100207047012070479B
:103AF00001490860704700000C3C024070B5064662
:103B0000002529B1012927D0022928D04FF440757A
:103B100000F07CF808281ED1124C206820F4407078
:103B20002060206828432060206820F0F800206092
:103B3000206846F0020108432060206840F480308D
:103B4000206000F063F8216821F002012160216803
:103B500021F0F801216070BD4FF48075D8E74FF473
:103B60000075D5E7103C02400B4908200A68D203D3
:103B700001D5012070470A68D20601D5052070479B
:103B80000A6812F0EF0F01D0062070470968890714
:103B9000FBD50720704700000C3C0240024801683A
:103BA00041F0004101607047103C024070B50D4685
:103BB000064600F02BF8082813D10A4C206820F4A0
:103BC00040702060206840F400702060206840F061
:103BD00001002060356000F019F8216821F0010132
:103BE000216070BD103C024005480068002805DADD
:103BF000034804490C380160034901607047000024
:103C0000103C024023016745AB89EFCD08B5082081
:103C10008DF80000FFF7A8FF8DF800009DF8000068
:103C20000128F7D09DF8000008BD000010B5ADF5E3
:103C3000825D4FF48050009001AB0022072107A065
:103C400013F0E6FF0400014601D005A000E00CA03F
:103C500012F028F80DF5825D204610BD000000002E
:103C600046696C65466F726D6174206572726F7221
:103C700020726573756C743D25640D0A00000000A8
:103C800046696C65466F726D617420737563636518
:103C9000737320726573756C743D25640D0A0000A2
:103CA00010B5012206A1074814F06EFA040001467F
:103CB00001D005A000E00AA011F0F4FF204610BDDD
:103CC000000000001C6A00206D6F756E7420657224
:103CD000726F7220726573756C743D25640D0A00F5
:103CE0006D6F756E74207375636365737320726591
:103CF00073756C743D25640D0A00000010B5012237
:103D000006A1002014F040FA0400014601D004A0EE
:103D100000E00AA011F0C6FF204610BD0000000020
:103D2000756E6D6F756E74206572726F722072653C
:103D300073756C743D25640D0A000000756E6D6F1F
:103D4000756E742073756363657373207265737524
:103D50006C743D25640D0A000421014800F07FB811
:103D6000000C02407CB503248DF80440002500942B
:103D70008DF807506946074800F010F807200090BA
:103D80008DF804408DF807506946034800F006F8A6
:103D90007CBD00000008024000000240F0B5002396
:103DA000012403270D6804FA03F21540954242D11D
:103DB000D0F800C05E0007FA06F52CEA050CC0F842
:103DC00000C091F804C0D0F800E00CFA06FC4CEA00
:103DD0000E0CC0F800C091F804C0BCF1010F02D075
:103DE000BCF1020F1FD1D0F808C02CEA050CC0F8B6
:103DF00008C091F805C0D0F808E00CFA06FC4CEABF
:103E00000E0CC0F808C0D0F804C02CEA020CC0F8B0
:103E100004C0426891F806C00CFA03FC1FFA8CFC3F
:103E200042EA0C024260C268AA43C260CA79C5680D
:103E3000B2402A43C2605B1C102BB3D3F0BD4B07CA
:103E4000DB0E9A40C90810B500EB8100016A0F240F
:103E50009C40A1430162016A1143016210BD024608
:103E6000002012690A4200D0012070474183704748
:103E700001837047C178027801EB02614278807853
:103E8000120402EB00200844704710B508220123F9
:103E90000CE080EA0104240604D581F00E0103EB56
:103EA000410100E049004006C9B2000E1400A2F131
:103EB0000102D2B2EDD1084610BD70B500252C46E6
:103EC00041F2883664200EF043FE00F09BF8012892
:103ED00007D0641CE4B2052C07D8B542F2D9002003
:103EE00070BD00246D1CADB2F7E7012070BD00006D
:103EF0000021A0F100634FF4804293423FD3214957
:103F00000144914201D2082139E01F490144914204
:103F100001D2102133E01D490144914201D2182100
:103F20002DE01B490144B1F5803F01D2202126E05C
:103F3000184942184FF400318A4201D228211EE06C
:103F4000154A02448A4201D2302118E0134A024441
:103F50008A4201D2382112E0114A02448A4201D237
:103F600040210CE00F4A02448A4201D2482106E077
:103F70000D4A1044884201D2502100E058210846E1
:103F80007047000000C0FFF70080FFF70040FFF718
:103F90000000FFF70000FEF70000FCF70000FAF752
:103FA0000000F8F70000F6F70000F4F770B5134DC5
:103FB000C0B0002028706870F022AA700121E9705A
:103FC00028716871A871E9716E4629720924282246
:103FD0000B493046FCF751F90020315C2955641C2F
:103FE000401C80B2A4B22828F7D3A41E200A28704F
:103FF0006C7002480FF02AFF40B070BD1A14002008
:10400000F21300200348044900780978084300D0DF
:1040100001207047450100204401002017F084BDB5
:10402000F0B5A9B00646802105A8FCF74DF94C4F24
:104030007868012839D0052340F6B83249A14BA051
:104040001EF0C8F8012802D04BA011F02BFE50A1A1
:104050005048FCF750F904007FD04DA1601CFCF7DC
:104060004AF905002ED0802105A8FCF72DF9002083
:10407000259026902A1B611C05A8FCF7FEF827ABAB
:10408000981E411ECDE90210C01E26AACDE90002ED
:104090000493431E25AA40A105A8FCF7A1F927987F
:1040A000002811DBC0F1200010E005A80CF0D2FEC2
:1040B000002E07D005A8FCF73AF9024605A93046BC
:1040C000FCF7DBF829B0F0BDC0F12100C11700EB0F
:1040D0009170811025A80FF04FFE9DF898009DF873
:1040E0009A209DF899108DE807009DF897309DF86B
:1040F0009620BDF894102EA011F0D4FD802105A8C3
:10410000FCF7E2F89DF897009DF89A309DF8992009
:104110009DF898108DE80F009DF89630BDF894201A
:1041200030A105A811F0E2FD3EB105A8FCF7FFF8AB
:10413000024605A93046FCF7A0F801207860DDE9C9
:1041400025010CF087FF05A80CF084FE05A900E00E
:1041500003E02CA011F0A6FDB4E72E492EA0F9E74C
:10416000100400204F4B0D0A0000000041542B4367
:10417000434C4B3F0D0A000041542B43434C4B3FF3
:104180002073656E64206661696C65640D0A0000C9
:10419000220000002CF1002025642F25642F2564C7
:1041A0002C25643A25643A25642B25640000000020
:1041B000CFD6D4DACAC7B1B1BEA9CAB1BCE43A20DD
:1041C00025303464C4EA25303264D4C225303264E8
:1041D000C8D52C253032643A253032643A25303245
:1041E000640A0000253034642D253032642D2530DA
:1041F000326420253032643A253032643A25303238
:1042000064000000626A2074696D652025730D0AE0
:1042100000000000427102085B25735D207061722E
:104220007365206661696C65640D0A002DE9F047CD
:10423000DFF86C808A46074600244FF47A7900261E
:10424000354604214046FFF70AFE012801D1761CBD
:10425000F6B264200EF07CFC6D1CADB2052DF0D3DF
:10426000052E03D0641CA4B24C45E8D34C4502D9BA
:104270000020BDE8F08700240A4EAAF1010506E0FF
:10428000D6E903017F1C16F01FF9641CA4B23A782A
:10429000AC42F5DBD6E9030116F016F90120E8E798
:1042A000000C0240440100202DE9F047DFF8708047
:1042B0008A46074600244FF47A7900263546802145
:1042C0004046FFF7CCFD012801D1761CF6B26420F0
:1042D0000EF03EFC6D1CADB2052DF0D3052E03D0C3
:1042E000641CA4B24C45E8D34C4502D90020BDE87B
:1042F000F0870EF0C3FC00240A4EAAF1010506E087
:10430000D6E905017F1C16F06BF9641CA4B23A785B
:10431000AC42F5DBD6E9050116F062F90120E6E7CB
:10432000000802404401002070B5094C0025607867
:1043300018B1657007480FF035FC2078002805D0CB
:104340002570BDE8704004480FF02CBC70BD000023
:10435000440100205C1D002044150020F8B50D46E6
:104360002E4902060AD5D1F84C210523B3EB124F92
:1043700004D100F07F006421484317E0284A0B680D
:104380000026B2FBF3F103FB11226423B1FBF3F12E
:10439000244C084422B1401C0004000C0AD002E066
:1043A0000004000C02D00EF096FB2FE0294600F02E
:1043B0003FF8F8BD72B669461B480FF001FC38B1F2
:1043C0000098287062B6207870B1401E20700BE013
:1043D000694616480FF0F4FB40B10098287062B6A9
:1043E000607808B1401E60700120F8BD62B611E02F
:1043F00072B669460C480FF0E3FB0028E0D169462D
:104400000A480FF0DDFB0028E7D162B60EF055FB3D
:104410000028EDD02E700320F8BD0000AC0C002069
:1044200040420F0044010020441500205C1D002084
:10443000F8B50D462A49096880B12A4AB2FBF1F164
:1044400008440004284C000C4FF000060AD0C11F9D
:1044500040F6B232914222D30320F8BD2348B0FB8C
:10446000F1F0EEE772B6694621480FF0A9FB38B1CA
:104470000098287062B6207848B3401E207026E06D
:1044800069461C480FF09CFB38B10098287062B652
:104490006078E0B1401E607019E062B61EE0801FD7
:1044A00080B20EF093FB15E072B6694610480FF02B
:1044B00087FB0028DCD169460E480FF081FB40B134
:1044C000607808B1401E60700098287062B60120C4
:1044D000F8BD62B60EF0C2FB0028E5D02E70BBE737
:1044E000AC0C00208096980044010020C0D8A700A2
:1044F000441500205C1D002038B50C460F490A7891
:104500000AB1521E0A700EF097FA0FE072B66946B1
:104510000B480FF055FB40B100980A49207000F09D
:104520000100087062B6012038BD62B60EF0C5FA0F
:104530000028EBD000202070032038BD450100206A
:104540005C1D0020770000207047000070B51C4CF7
:104550002515E614052815D0082821D00C282DD1C2
:1045600080212046FFF782FC29462046FFF77EFC8B
:1045700031462046FFF77AFC31462046BDE87040C0
:10458000FFF776BC80212046FFF770FC29462046C5
:10459000FFF76CFC31462046FFF768FC8021ECE712
:1045A00080212046FFF762FC29462046FFF75EFC8B
:1045B00031462046FFF75AFC2946DEE770BD000071
:1045C000000C024010B52146024819F0D6FA2046E8
:1045D00010BD00008C560208FEE70029018802D0B9
:1045E00041F0010101E021F001010180704700006C
:1045F0001CB501214C0520460CF0D4F90121022004
:104600000CF0C4F9012102200CF0C0F90121204670
:104610000CF0D4F9002120460CF0D0F94020009095
:1046200002208DF804008DF8050001208DF80600A9
:1046300000200C4C8DF8070069462046FFF7AEFBC2
:104640008020009069462046FFF7A8FB042206213F
:104650002046FFF7F4FB042207212046FFF7EFFB7B
:104660001CBD0000000402400D4910B5884202D173
:1046700001214C050AE00B49884202D101218C0539
:1046800004E0094988420AD10121CC0520460CF0FA
:1046900095F92046BDE8104000210CF08FB910BDFF
:1046A0000054004000580040005C0040002A82880E
:1046B00001D00A4300E08A43828070477FB50446F8
:1046C00080880D4620F03F0668460CF09BF926498D
:1046D0000298B0FBF1F189B20E43A680228822F045
:1046E00001022280214B2A689A421BD85200B0FB5B
:1046F000F2F080B2042800D20420491C2184A08357
:10470000208840F00100208021884FF6F5300140DC
:10471000A8886A89104308432080A889298908430A
:1047200020817FBDEB88A3F53F46FF3E05D102EB1C
:104730004202B0FBF2F080B208E002EBC20303EBEE
:104740000212B0FBF2F080B240F48040020501D1C9
:1047500040F001004FF4967251434FF47A72B1FB6E
:10476000F2F140F40040C8E740420F00A08601008B
:104770002DE9FC5F012102200CF008F901208DF8E1
:10478000040000258DF8065002248DF807000094DF
:104790008DF8054069468248FFF700FB0121102093
:1047A0000CF0F4F801208DF804008DF806508DF817
:1047B0000700E60200968DF8054069467948FFF744
:1047C000EDFA02217648FFF753FB31467548FFF7B3
:1047D0004FFB01211E200CF0D9F801208DF80400B8
:1047E0008DF806508DF80700802000908DF8054068
:1047F00069466D48FFF7D2FA650269466A48009536
:10480000FFF7CCFA4FF4006969466748CDF800908D
:10481000FFF7C4FA4FF4804869466148CDF800803C
:10482000FFF7BCFADFF884B11027694658460097B5
:10483000FFF7B4FA4FF47040009069465A48FFF70A
:10484000ADFA4FF4004A69465948CDF800A0FFF789
:10485000A5FA2026694656480096FFF79FFA694652
:104860004F480094FFF79AFA0820009069464C4898
:10487000FFF794FA69464E480096FFF78FFA6946AB
:1048800058460096FFF78AFA26026946484800967D
:10489000FFF784FA694646480095FFF77FFA4FF420
:1048A0007060009069463F48FFF778FA69465846BD
:1048B0000097FFF773FA0420009069465846FFF707
:1048C0006DFA694658460094FFF768FAE7016946B1
:1048D00033480097FFF762FA694631480096FFF7C0
:1048E0005DFA69462E480095FFF758FA10215846A0
:1048F000FFF7BCFA41462A48FFF7B8FA202158468C
:10490000FFF7B6FA02215846FFF7B0FA31462848B9
:10491000FFF7AEFA29462648FFF7AAFA394620489B
:10492000FFF7A4FA31461E48FFF7A0FA29461C48B3
:10493000FFF79CFA80211C48FFF798FA29461A488D
:10494000FFF794FA49461848FFF790FA514618487D
:10495000FFF78CFA02211248FFF788FA0821104865
:10496000FFF784FA20211248FFF780FA202110482F
:10497000FFF77CFA012000908DF8044003208DF8A9
:10498000050001208DF8070069460548FFF706FA83
:10499000022200210248FFF752FABDE8FC9F000006
:1049A0000004024000100240000C024000080240D7
:1049B000000002407047000010B50446082011F0C6
:1049C00057FA206040B1002101602068416003A0D7
:1049D000BDE8104011F066B908A0F9E7496E6974A6
:1049E0005175657565206D616C6C6F6320737563BF
:1049F0006365737366756C2E0D0A0000496E6974E9
:104A00005175657565206D616C6C6F6320666169B9
:104A10006C65640D0A0000002DE9FC4101210220B3
:104A20000BF0B4FF01248DF80440002602258DF818
:104A30000660DFF8C4808DF8074000958DF80550BA
:104A400069464046FFF7AAF9012108460BF09EFF90
:104A50008DF8044048F220008DF80660274F009042
:104A60008DF807408DF8055069463846FFF796F9EE
:104A7000012102200BF08AFF8DF8044018208DF8E8
:104A8000066000908DF807408DF805506946404655
:104A9000FFF784F908214046FFF7E8F91021404666
:104AA000FFF7E4F920213846FFF7E2F94FF4FA70F6
:104AB0001FF0C8F902214046FFF7D8F9E103384654
:104AC000FFF7D4F9C8201FF0BDF902214046FFF7D7
:104AD000CFF940F6B8301FF0B5F902214046FFF794
:104AE000C5F9074907A011F0DDF841F288301FF041
:104AF000A9F9BDE8FC81000000040240000002406A
:104B00006D4C02082573206F6B0D0A0080B2FFF711
:104B100025BC15F02FBC70B50024234608E0CD1845
:104B2000EE782D6866F31F6540F82450641C1B1D49
:104B30009342F4D370BD70B500231C4611E011F808
:104B40002350055531F823502E0A05196E7051F87F
:104B50002360360CAE7051F823605B1C360EEE708D
:104B6000241D9442EBD370BD7CB5044600880E46EC
:104B7000C0F3C500382802D2C0F1380501E0C0F109
:104B80007805082221466846FFF7D5FF2A460849DE
:104B9000204600F07DFB08226946204600F078FBA5
:104BA000102204F108013046FFF7C5FF7CBD00006C
:104BB0005C040020002101604160054981600549D5
:104BC000C1600349C94301610249C943416170475A
:104BD0000123456789ABCDEF2DE9F0410446251D42
:104BE000C0B0E0CDD0F8008040226846FFF793FFC8
:104BF00005EA060027EA05010843FE49009A014438
:104C000002EB0800084405EB706000EA050126EAA3
:104C100000021143F84A1144019A3A44114400EB4E
:104C2000315303EA000125EA03021143F34A114418
:104C3000029A3244114403EBF13101EA030220EA03
:104C400001063243EE4E3244039E35442A4401EBC2
:104C5000B22202EA010523EA02063543E94E354451
:104C6000049E3044284402EB706000EA020521EA09
:104C700000063543E44E3544059E33442B4400EB97
:104C8000335303EA000522EA03063543DF4E354479
:104C9000069E3144294403EBF13101EA030520EA81
:104CA00001063543DA4E3544079E32442A4401EB6F
:104CB000B22202EA010523EA02063543D54E354405
:104CC000089E3044284402EB706505EA020021EAA0
:104CD00005063043D04E3044099E3344184405EB5A
:104CE000305000EA050322EA000633430A9EA3F58A
:104CF00024434F3B3144194400EBF13303EA0001F4
:104D000025EA03063143C54E31440B9E324411441B
:104D100003EBB12101EA030220EA01063243C04E4F
:104D200032440C9E35442A4401EB726202EA0105CA
:104D300023EA02063543BB4E35440D9E30442844D9
:104D400002EB305505EA020021EA05063043B64E73
:104D500030440E9E3344184405EBF03000EA05035E
:104D600022EA00063343B14E33440F9E31441944C6
:104D700000EBB12101EA050320EA05063343AC4EFE
:104D80003344019E32441A4401EBF26202EA00030A
:104D900021EA00063343A74E3344069E35442B4494
:104DA00002EBF35303EA010522EA01063543A24E62
:104DB00035440B9E3044284403EBB04000EA020522
:104DC00023EA020635439D4E3544009E3144294472
:104DD00000EB313101EA030520EA03063543984E22
:104DE0003544059E32442A4401EBF26202EA000592
:104DF00021EA00063543934E35440A9E33442B4442
:104E000002EBF35303EA010522EA010635438E4E15
:104E100035440F9E3044284403EBB04000EA0205BD
:104E200023EA02063543894E3544049E3144294421
:104E300000EB313101EA030520EA03063543844ED5
:104E40003544099E32442A4401EBF26202EA00052D
:104E500021EA000635437F4E35440E9E33442B44F1
:104E600002EBF35303EA010522EA010635437A4EC9
:104E70003544039E3044284403EBB04000EA020569
:104E800023EA02063543754E3544089E31442944D1
:104E900000EB313101EA030520EA03063543704E89
:104EA00035440D9E32442A4401EBF26202EA0005C9
:104EB00021EA000635436B4E3544029E33442B44B1
:104EC00002EBF35303EA010522EA01063543664E7D
:104ED0003544079E3044284403EBB04000EA020505
:104EE00023EA02063543614E35440C9E3144294481
:104EF000059D00EB3131154481EA00025C4E5A40B9
:104F000032442A44089D01EB32721D4482EA0103B7
:104F10004340584E33442B440B9D02EB73530544DE
:104F200083EA0200544E48403044284403EB3045A5
:104F30000E98524E014485EA030050403044084424
:104F400005EB70260198811886EA05004C4A584006
:104F50001044084406EB30720498C11882EA060037
:104F6000484B684018440844079902EB70504B19AD
:104F700080EA0201444D7140294419440A9B00EB28
:104F800031419D1981EA0003404E534033442B4484
:104F90000D9D01EB7323154483EA01023C4E424010
:104FA00032442A44009D03EB3272054482EA030036
:104FB000384E48403044284402EB70550398364E32
:104FC000014485EA020058403044084405EB304172
:104FD0000698324E034481EA05005040304418449C
:104FE000099B01EB7020134480EA01022C4E6A40B9
:104FF000324457E078A46AD756B7C7E8DB7020245C
:10500000EECEBDC1AF0F7CF52AC68747134630A848
:10501000019546FDD8988069AFF7448BBED75C896F
:105020002211906B937198FD8E4379A62108B449A3
:1050300062251EF640B340C0515A5E26AAC7B6E9A3
:105040005D102FD65314440281E6A1D8C8FBD3E7E4
:10505000E6CDE121D60737C3870DD5F4ED145A45C7
:1050600005E9E3A9F8A3EFFCD9026F678A4C2A8D02
:105070004239FAFF81F6718722619D6D0C38E5FD9A
:1050800044EABEA4A9CFDE4B604BBBF670BCBFBEEA
:10509000C67E9B28FA27A1EA8530EFD4051D880437
:1050A00039D0D4D91A440C9B00EB32721D4482EAE9
:1050B0000003644E4B4033442B440F9D02EB73536B
:1050C0000D4483EA0201604E414031442944029D6F
:1050D00003EB3141054481EA03005C4E504030440B
:1050E000284401EB70250098594E024465EA0300FC
:1050F000484030441044079A05EBB060134460EA1E
:105100000102544E6A4032441A440E9B00EBB252E4
:105110000B4462EA0501504E414031441944059B5D
:1051200002EB71411D4461EA00034C4E534033448D
:105130002B4401EBF3250C9B494E034465EA020026
:1051400048403044184405EBB0660398454B024490
:1051500066EA010068401844104406EBB0530A9810
:10516000414A014463EA0500704010440844019933
:1051700003EB70404A1960EA06013C4D594029444E
:105180001144089A00EBF121951961EA0302384EA7
:10519000424032442A440F9D01EBB2621D4462EA50
:1051A0000003344E4B4033442B44069D02EBB35373
:1051B000054463EA0100304E50403044284403EB7C
:1051C00070450D982D4E014465EA02005840304468
:1051D0000844049905EBF0200A4460EA0301284ED4
:1051E0006940314411440B9A00EBB161134461EA08
:1051F0000502244E424032441A4401EBB253029A53
:10520000214E154463EA00024A4032442A44099D73
:1052100003EB7242054462EA010058401B4E3044E1
:105220002844256802EBF020294421606168084485
:105230006060A0681044A060E0681844E06040B07E
:10524000BDE8F081E599DBE6F87CA21F6556ACC4A9
:10525000442229F497FF2A43A72394AB39A093FC57
:10526000C3595B6592CC0C8F7DF4EFFFD15D8485D3
:105270004F7EA86FE0E62CFE144301A3A111084E57
:10528000827E53F735F23ABDBBD2D72A91D386EB53
:105290002DE9F047054616462A680F46C2F3C501B8
:1052A00002EBC60200202A60B2EBC60F6A68C1F1A9
:1052B000400401D2521C6A6002EB56726A60A64238
:1052C00018D36818183022463946FAF7D6FF05F188
:1052D000080005F118018146FFF77EFC204604E036
:1052E00039184846FFF778FC404600F14008B045C1
:1052F000F6D90021321A3B186818BDE8F04718307B
:105300001946FAF7BABFFEE770B54FF4FA64052301
:10531000224677A178A01CF05DFF012801D078A07B
:105320005FE00A201EF08EFD0523224670A17FA0BB
:105330001CF050FF012802D07FA010F0B3FC0A201F
:105340001EF080FD0523224681A183A01CF042FFB0
:10535000012802D083A010F0A5FC0A201EF072FDE7
:105360000523224662A185A01CF034FF012802D04B
:1053700089A010F097FC0A201EF064FD00250F2381
:1053800022468BA18CA01CF025FF01282DD00523DF
:1053900022468CA188A01CF01DFF012827D08BA0DD
:1053A00010F080FC0A201EF04DFD042D23D06D1C52
:1053B000052DE4DB052322464DA18EA01CF00AFF3B
:1053C000012802D08EA010F06DFC0A201EF03AFDDC
:1053D0000A23224690A192A01CF0FCFE01281CD0BA
:1053E00098A0BDE8704010F05DBCA0A000E0A9A0AE
:1053F00010F058FCDEE7B2A010F054FC012080F35E
:105400001388BFF34F8FBE480168BE4A01F4E061C4
:1054100011430160BFF34F8FFEE70A201EF012FD1B
:105420000A23224632A1B8A01CF0D4FE012802D0E3
:10543000BCA010F037FC0A201EF004FD0A2322460F
:105440002BA1BFA01CF0C6FE012802D0BFA010F007
:1054500029FC0A201EF0F6FC0523224624A1C1A047
:105460001CF0B8FE012802D0C5A010F01BFC0A20D9
:105470001EF0E8FC052322461DA1C9A01CF0AAFECF
:10548000012802D0CAA010F00DFC0A201EF0DAFCA0
:105490000A23224616A1CDA01CF09CFE012802D0B2
:1054A000CDA010F0FFFB0A201EF0CCFC0523224605
:1054B0000FA1CFA01CF08EFE012802D0D0A010F0CA
:1054C000F1FB0A201EF0BEFC1421D448FAF7FCFEC2
:1054D0001421D348FAF7F8FED04813F029FED0483B
:1054E00013F026FEBDE87040CEA1D0A00EF02AB980
:1054F0004F4B0D0A0000000041540D0A000000004F
:105500004D435520636F6D6D756E6963617465738E
:1055100020776974682034475F4D6F75646C65202F
:105520006661696C65640D0A0000000041542B43FC
:105530004D45453D320D0A0041542B434D45453FF5
:105540002073656E64206661696C65640D0A0000F5
:1055500052454144590D0A0041542B4350494E3F96
:105560000D0A000041542B4350494E3F2073656E95
:1055700064206661696C65640D0A000041542B511A
:105580004346473D226E777363616E6D6F6465229B
:105590002C300D0A0000000041542B514346472097
:1055A00073656E64206661696C65640D0A000000B5
:1055B0002C310D0A0000000041542B435245473F57
:1055C0000D0A00002C350D0A0000000052656769C5
:1055D00073746572206E6574776F726B2066616993
:1055E0006C2C706C656173652072657472790D0A3C
:1055F0000000000041542B5153504E0D0A00000092
:1056000041542B5153504E2073656E64206661697E
:105610006C65640D0A000000514E54503A000000C1
:1056200041542B514E54503D312C226E7470312E0A
:10563000616C6979756E2E636F6D222C3132330D7A
:105640000A00000073657474696E672074696D6583
:105650002073796E6368726F6E697A6174696F6EB8
:10566000206661696C65640D0A0000005265676917
:1056700073746572206C6F63616C206E6574776FF4
:10568000726B207375636365737366756C6C792ECA
:105690000D0A0000526567697374657220726F614C
:1056A0006D696E67206E6574776F726B20737563BA
:1056B0006365737366756C6C792E0D0A00000000CB
:1056C00052652D7265676973746572207468652010
:1056D0006E6574776F726B20686173206172726996
:1056E0007665642C20706C656173652065786974DB
:1056F00020616E6420726573746172740D0A00001B
:105700000CED00E00400FA0541542B51475053437F
:1057100046473D226E6D6561737263222C310D0A1E
:105720000000000041542B5147505343464720731B
:10573000656E64206661696C65640D0A0000000096
:1057400041542B514750533D310D0A0041542B51C8
:105750004750532073656E64206661696C65640D03
:105760000A00000041542B51485454504346473DD1
:1057700022636F6E746578746964222C310D0A009F
:1057800073657474696E672050445020636F6E7443
:10579000657874206661696C65640D0A000000001C
:1057A00041542B5149435347503D310D0A000000ED
:1057B00073657474696E672047505253206D6F642F
:1057C00065206661696C65640D0A000041542B51C7
:1057D000494143543F0D0A0041542B514941435420
:1057E0003F2073656E64206661696C65640D0A0014
:1057F00041542B51485454504346473F0D0A000032
:1058000041542B51485454504346473F2073656ED2
:1058100064206661696C65640D0A0000C0EE0020BA
:105820002CF70020313030323200000031342E327B
:10583000312E34302E31333300000000704738B53C
:1058400034208DF8000000208DF801008DF8020052
:1058500001248DF80340684600F036F826208DF8C4
:1058600000008DF801408DF802408DF80340684635
:1058700000F02AF827208DF800008DF801408DF8FF
:1058800002408DF80340684600F01EF838BD38B578
:1058900035208DF8000000248DF801408DF802407D
:1058A00001258DF80350684600F00EF847208DF86A
:1058B00000008DF801408DF802408DF803506846D5
:1058C00000F002F838BD000070B50F21C4780278EE
:1058D00001234FF0E026E4B1124C246804F4E064A4
:1058E000C4F5E064C4F30724C4F10405E14044783E
:1058F000AC4085780D4025430B4C290111550078AB
:1059000000F01F018B40400906EB8000C0F8003119
:1059100070BD02F01F008340500906EB8000C0F804
:10592000803170BD0CED00E000E400E00249084366
:1059300002490860704700000000FA050CED00E025
:10594000BFF34F8F04480168044A01F4E06111433A
:105950000160BFF34F8FFEE70CED00E00400FA0595
:1059600070B5AAB006460025ADF88050234924A0A2
:1059700010F098F9304600F02DF9002836D020219B
:1059800021A8FAF7A1FC234806EB461100EB4104DD
:10599000E11CA278ADF880206846FAF76EFC1E483C
:1059A000C5706278BDF8801068461AF091F9ADF8BC
:1059B000800000281AD00BF07DFC14201EF042FA63
:1059C000BDF88020694615480EF072F940F2DC52AD
:1059D00020A921A800F0E6F8BDF8800040B13046CB
:1059E0001BF0A0FC0EA010F05DF901202AB070BDE4
:1059F0000FA010F057F90020F8E70000247002080B
:105A000077656C636F6D6520746F205B25735D0D2A
:105A10000A000000A45E0208B0EE002074250020F9
:105A2000496E6974494F20747275650D0A00000053
:105A3000496E6974494F2066616C73650D0A0000F8
:105A40002DE9F0418AB0002528216846FAF73CFC90
:105A50003B48006813F0C8FFDFF8E8803A49444645
:105A60003AA0D8F8082010F01DF9A068401C29D0F1
:105A700040F6B8301EF0E6F998F80800FFF770FF1E
:105A8000002854D0207A1AF017F800284FD0207A36
:105A90001AF00EF91AF0BCFC207A1BF05DF8142104
:105AA0003248FAF711FC314814211430FAF70CFC93
:105AB0002E4813F04BFF2D49207A143114F09AF838
:105AC000207A31E00927394629A010F0EBF82E4C56
:105AD0001CF05AF905EB45162CA014F8161010F01E
