:020000040800F2
:10000000D811002075020008810E0008DB0C0008E2
:100010007D0E000841060008C12C00080000000009
:10002000000000000000000000000000DD010008EA
:10003000AD0900080000000021020008A93E0008E8
:100040008F0200088F0200088F0200088F0200084C
:100050008F0200088F0200088F0200088F0200083C
:100060008F0200088F0200088F0200088F0200082C
:100070008F0200088F0200088F0200088F0200081C
:100080008F0200088F0200088F0200088F0200080C
:100090008F0200088F0200088F0200088F020008FC
:1000A0008F0200088F0200088F0200088F020008EC
:1000B000752900088F0200088F0200088F020008CF
:1000C0008F0200088F0200088F0200088F020008CC
:1000D0008F0200088F0200088F0200088F020008BC
:1000E0008F0200088F0200088F0200088F020008AC
:1000F0008F0200088F0200088F0200088F0200089C
:100100008F0200088F0200088F0200088F0200088B
:100110008F0200088F0200088F0200088F0200087B
:100120008F0200088F0200088F0200088F0200086B
:1001300000F002F800F042F80AA090E8000C8244B7
:100140008344AAF10107DA4501D100F037F8AFF294
:10015000090EBAE80F0013F0010F18BFFB1A43F0A5
:1001600001031847FC3E00001C3F0000103A24BF6A
:1001700078C878C1FAD8520724BF30C830C144BF0C
:1001800004680C607047000000230024002500264E
:10019000103A28BF78C1FBD8520728BF30C148BFEA
:1001A0000B607047642900F0BD80732900F0008265
:1001B000002070471FB51FBD10B510BD00F00EFA2E
:1001C0001146FFF7F7FF03F077FB00F02CFA03B4BA
:1001D000FFF7F2FF03BC02F075FD0000224B196827
:1001E0000868B0E8F00F80F30988BFF36F8F4FF015
:1001F000000080F311884EF00D0E704700000000E3
:1002000006480068006880F3088862B661B6BFF3EC
:100210004F8FBFF36F8F00DF00BF00BF08ED00E01E
:10022000EFF30980BFF36F8F0F4B1A6820E9F00FCF
:10023000106008B54FF0BF0080F31188BFF34F8FF7
:10024000BFF36F8F03F000FE4FF0000080F31188C2
:10025000BDE8084019680868B0E8F00F80F3098825
:10026000BFF36F8F704700BF54000020EFF305808D
:10027000704700000948804709480047FEE7FEE74D
:10028000FEE7FEE7FEE7FEE7FEE7FEE7FEE7FEE746
:1002900004480549054A064B704700001529000827
:1002A00031010008D80D0020D8110020D80F0020FF
:1002B000D80F0020704700000FB4044910B503AAFE
:1002C000029800F079F910BC5DF814FB38000020AA
:1002D00070B50C460546012A05D02878800600D561
:1002E000EA69002302E0012305E05B1C934202D28D
:1002F000E05C0028F9D1A869E618C01AA861286A4C
:10030000184428622846AFF3008004E0D5E90121B3
:1003100014F8010B9047B442F8D32846AFF300809D
:1003200070BD00002DE9F0410646002410687529D3
:10033000314616A510D0AFF30080002802DA404203
:1003400013A507E031688A0701D512A502E0490725
:1003500004D511A5012401E0AFF3008000210A2299
:1003600006F1240709E0B0FBF2FCB0FBF2F302FB5C
:100370001C00303078541846491C0028F3D123461D
:100380002A463046BDE8F04100F08EB8000000007B
:100390002D0000002B000000200000002DE9F0419E
:1003A0000F460546002028622846E968884770B352
:1003B000252805D0D5E901219047286A401CF2E79D
:1003C000E9682846002688476C2804460AD0682C2D
:1003D00008D04C2C35D06A2C31D0742C31D07A2CEA
:1003E0002FD016E0E968064628468847B042044602
:1003F00008D16C2E23D04FF480662846E9688847E0
:10040000044606E06C2E03D04FF4807601E01EE037
:100410004026E4B1A4F14100192802D8203446F462
:1004200000663A46214628462E60FFF7BBFE60B1C3
:10043000012808D0FF1D27F007070837B4E78026FA
:10044000DBE70026D9E73F1DAEE72046B2E7286A82
:10045000BDE8F0814FF0000200B513469446964681
:10046000203922BFA0E80C50A0E80C50B1F12001C7
:10047000BFF4F7AF090728BFA0E80C5048BF0CC075
:100480005DF804EB890028BF40F8042B08BF7047D3
:1004900048BF20F8022B11F0804F18BF00F8012B45
:1004A00070477047704770472DE9F0470D469946F1
:1004B0009246044600F124080168880604D5E069E4
:1004C00021F01001216000E00120A84201DD471B5E
:1004D00000E00027A1697A1902EB0900081AA0615F
:1004E0002078C00602D42046AFF30080002608E042
:1004F000D4E901211AF806009047206A401C761CB6
:1005000020624E45F4DB2078C0060AD52046AFF3C2
:10051000008006E0D4E9012130209047206A401C89
:100520002062381EA7F10107F4DC07E0D4E90121BD
:1005300018F805009047206A401C2062281EA5F18B
:100540000105F3DC2046AFF300802078000602D5D9
:100550000220BDE8F0870120FBE7000001694A1C8A
:1005600002610878704700B58FB0CDE901310021F4
:10057000059105497944CDE9031011466846FFF716
:100580000DFF0FB000BD0000E5FFFFFF10B5436990
:1005900013B1AFF3008001E0FFF79AFE012010BD18
:1005A000127800F124010A7000224A700122EDE75E
:1005B00011684FF0FF32E9E7074B70B50D467B44F9
:1005C000FFF7D1FF0446284603F08FF810B14FF033
:1005D000FF3070BD204670BDD7310000754600F079
:1005E0002BF8AE4605006946534620F007008546C5
:1005F00018B020B5FFF74CFEBDE820404FF00006D4
:100600004FF000074FF000084FF0000B21F00701FA
:10061000AC46ACE8C009ACE8C009ACE8C009ACE83D
:10062000C0098D46704710B50446AFF300802046E0
:10063000BDE81040FFF7CBBD00487047740D0020A7
:1006400000BFFEE770B52A254FF4803400E0641E39
:1006500024B1802000F0C6FD0028F8D014B903258D
:10066000284670BD40F2FF5000F07AFD2846F8E7BA
:100670002DE9F04106462A274848456B01E04748E6
:10068000456B05F045000028F9D005F0040030B1B5
:100690000327042000F064FD3846BDE8F08105F032
:1006A000010028B10127012000F05AFD3846F4E787
:1006B00000F092FDB04202D010273846EDE740F23C
:1006C000FF5000F04DFD002000F0A0FD044634482E
:1006D000204008B93846E0E704F0004008B11C208B
:1006E000DBE704F0804008B10920D6E704F00050B1
:1006F00008B10A20D1E704F0805008B10B20CCE704
:1007000004F0006008B10C20C7E704F0806008B175
:100710000D20C2E704F0807008B10E20BDE704F49C
:10072000000008B10F20B8E704F4800008B11020E1
:10073000B3E704F4001008B11120AEE704F4801010
:1007400008B11220A9E704F4002008B11320A4E79F
:1007500004F4802008B114209FE704F4003008B1AD
:1007600015209AE704F4803008B1162095E704F4C8
:10077000004008B1172090E704F4804008B1182029
:100780008BE704F4005008B1192086E704F0080054
:1007900008B11A2081E738467FE700000080014059
:1007A00008E0FFFD70B52A251048446B01E00F48B2
:1007B000446B04F045000028F9D004F0040028B18F
:1007C0000325042000F0CCFC284670BD04F0010095
:1007D00028B10125012000F0C3FC2846F5E740F2CE
:1007E000FF5000F0BDFC2846EFE70000008001400C
:1007F00070B52A250B48446B01E00A48446B04F0AD
:1008000045000028F9D004F0040028B10325042095
:1008100000F0A6FC284670BD40F2FF5000F0A0FC9E
:100820002846F8E7008001402DE9F04106460F46D2
:100830004FF02A082248456B01E02148456B05F03E
:1008400045000028F9D005F0040038B14FF0030846
:10085000042000F085FC4046BDE8F08105F0010071
:1008600030B14FF00108012000F07AFC4046F3E778
:1008700000F0B2FCB04203D04FF010084046EBE766
:1008800040F2FF5000F06CFC002000F0BFFC04467A
:1008900004F4604018B9200C38804046DCE704F4CA
:1008A000005008B11320D7E704F4804008B11020AD
:1008B000D2E704F4004008B10F20CDE74046CBE773
:1008C0000080014070B52A264FF480350F48446BF4
:1008D00002E06D1E0D48446B04F0450008B9002D80
:1008E000F7D115B104F0040028B10326042000F06C
:1008F00037FC304670BD04F0400028B12A26402065
:1009000000F02EFC3046F5E73046F3E7008001406A
:1009100000F0805111B10349086001E002494860CC
:1009200070470000040402400000024021B1026848
:1009300042F00102026004E002684FF6FE731A40C2
:100940000260704701460020002201F0805313B17D
:10095000054B1A6801E0054B1A6802EA01030BB166
:10096000012000E000207047000402400000024027
:1009700010B50022026847F6F0739A430C6A8B6840
:1009800023430C6923434C6923438C692343CC697B
:1009900023434C6A23438C6A23431A430260CB6887
:1009A00043600B6883604B68C36010BD70470000F4
:1009B00001B500200949086005E008480068009971
:1009C000884200D900E0F8E700BF00200349086032
:1009D000034904A0FFF770FC08BD00000C000020D4
:1009E000F83F000868656C6C6F205B25735D0D0A2D
:1009F000000000002DE9FC4107460D4600262A2490
:100A000000200090019008205C4908601020486098
:100A1000402088600020C8604FF48060086108466C
:100A200000F02EFC1020FFF723FE04462A2C02D0F3
:100A30002046BDE8FC815248008800044F49086008
:100A400037204860402088600020C8604FF48060F4
:100A50000861084600F014FC3720FFF709FE044641
:100A60002A2C01D02046E4E7464847490860082080
:100A70004860302088600220C860002008610120A2
:100A80004861084600F07EFB00203C4908603320A6
:100A90004860402088600020C8604FF48060086192
:100AA000084600F0EDFB3320FFF7E2FD04462A2C58
:100AB00001D02046BDE709E04FF4001000F092FBA2
:100AC00020B100F0D7FB4DF82600761C2F48406B74
:100AD00040F22A6108400028EED0082000F082FB96
:100AE00028B1082000F03CFB04242046A1E70220A6
:100AF00000F078FB28B1022000F032FB02242046EF
:100B000097E7202000F06EFB28B1202000F028FBA2
:100B1000062420468DE74FF4007000F063FB30B1EF
:100B20004FF4007000F01CFB0724204681E740F2E0
:100B3000FF5000F015FB00980006009901F47F417A
:100B400040EA0120009901F47F0140EA1120009958
:100B500040EA1160686001980006019901F47F4144
:100B600040EA0120019901F47F0140EA1120019936
:100B700040EA1160286020465BE70000480D002035
:100B800094000020FFFF0F005C0D0020008001405A
:100B900010B54FF40070094908801820C870032070
:100BA0008870074800F00EF84FF480600349088011
:100BB0000420C870024800F005F810BD00000020B5
:100BC000000801402DE9F0410246002500260020E2
:100BD00000230024002791F803C00CF00F0591F8C2
:100BE00003C00CF0100CBCF1000F03D091F802C050
:100BF0004CEA050591F800C0BCF1000F31D0146833
:100C000000202BE04FF0010C0CFA00F3B1F800C00B
:100C10000CEA03069E4220D183004FF00F0C0CFA21
:100C200003F7BC4305FA03FC4CEA040491F803C043
:100C3000BCF1280F06D14FF0010C0CFA00FCC2F8F1
:100C400014C00AE091F803C0BCF1480F05D14FF081
:100C5000010C0CFA00FCC2F810C0401C0828D1D3CB
:100C60001460B1F800C0BCF1FF0F34DD54680020FF
:100C70002EE000F1080C4FF0010808FA0CF3B1F86F
:100C800000C00CEA03069E4221D183004FF00F0CF6
:100C90000CFA03F7BC4305FA03FC4CEA040491F890
:100CA00003C0BCF1280F05D100F1080C08FA0CF8BC
:100CB000C2F8148091F803C0BCF1480F07D100F1CD
:100CC000080C4FF0010808FA0CF8C2F81080401C1C
:100CD0000828CED35460BDE8F08100BFFEE70000D5
:100CE0007CB504462A250020019000905F480088CA
:100CF00000045F4908600D204860402088600020A3
:100D0000C8604FF480600861084600F0B9FA59489D
:100D1000406B009002E05748406B0090009800F054
:100D200045000028F7D0009800F0040028B1032502
:100D3000042000F015FA28467CBD009800F0010060
:100D400028B10125012000F00BFA2846F4E700F055
:100D500043FA009000980D2802D010252846EBE7B2
:100D600040F2FF5000F0FCF9002000F04FFA019033
:100D70000198C0F3432020703F490198084008B90A
:100D80002846D9E7019800F0004008B11C20D3E7BD
:100D9000019800F0804008B10920CDE7019800F0EB
:100DA000005008B10A20C7E7019800F0805008B150
:100DB0000B20C1E7019800F0006008B10C20BBE7F0
:100DC000019800F0806008B10D20B5E7019800F0AF
:100DD000807008B10E20AFE7019800F4000008B160
:100DE0000F20A9E7019800F4800008B11020A3E7C4
:100DF000019800F4001008B111209DE7019800F45B
:100E0000801008B1122097E7019800F4002008B183
:100E1000132091E7019800F4802008B114208BE79B
:100E2000019800F4003008B1152085E7019800F41E
:100E3000803008B116207FE7019800F4004008B127
:100E4000172079E7019800F4804008B1182073E773
:100E5000019800F4005008B119206DE7019800F0E6
:100E6000080008B11A2067E7284665E794000020CB
:100E7000480D00200080014008E0FFFD00BFFEE7B4
:100E80007047000070B5002100230F22C47804B31E
:100E9000154C246804F4E064C4F5E064210AC1F14F
:100EA0000403CA40447804FA03F1847814402143CF
:100EB00009010E4C0678A155047804F01F050124A1
:100EC000AC4005786D11AD0005F1E025C5F8004195
:100ED00009E0047804F01F050124AC40044D0678B5
:100EE000761145F8264070BD0CED00E000E400E00E
:100EF00080E100E002490143024A116070470000AE
:100F00000000FA050CED00E029B1064A52690243DF
:100F1000044B5A6104E0034A52698243014B5A610F
:100F2000704700000010024029B1064AD26902430E
:100F3000044BDA6104E0034AD2698243014BDA616F
:100F4000704700000010024029B1064A926902432E
:100F5000044B9A6104E0034A92698243014B9A610F
:100F6000704700000010024030B50021002200242C
:100F700000232D4D6D6805F00C0121B1042905D029
:100F8000082923D105E0294D056022E0274D0560A1
:100F90001FE0254D6D6805F47012234D6D6805F452
:100FA0008034022505EB92421CB9214D5543056062
:100FB0000BE01D4D6D6805F400351DB11C4D55430A
:100FC000056002E0194D5543056002E0174D0560CC
:100FD00000BF00BF144D6D6805F0F0010909154D03
:100FE0006B5C0568DD4045600F4D6D6805F4E061A0
:100FF000090A104D6B5C4568DD4085600A4D6D68DF
:1010000005F46051C90A0B4D6B5C4568DD40C56055
:10101000054D6D6805F44041890B074D6B5CC56853
:10102000B5FBF3F5056130BD0010024000127A00F7
:1010300000093D0040000020500000207CB505461E
:101040002A2400200090019000F0E0F800F00070E9
:1010500010B10E2420467CBD3F49098888B26946FC
:10106000FFF7C8FC04462A2C01D02046F3E7012DE7
:1010700038D1019800F48020002830D0364800880C
:10108000000436490860372048604020886000200E
:10109000C860A8020861084600F0F2F83720FFF7A0
:1010A000E7FA04462A2C01D02046D4E702202B4937
:1010B000086006204860402088600020C8604FF427
:1010C00080600861084600F0DBF80620FFF7D0FAE0
:1010D00004462A2C01D02046BDE72046BBE7252444
:1010E0002046B8E7019800F4803078B31A480088A9
:1010F00000041A49086037204860402088600020BA
:10110000C8604FF480600861084600F0B9F83720E5
:10111000FFF7AEFA04462A2C01D020469BE70020B8
:101120000E49086006204860402088600020C860A2
:101130004FF480600861084600F0A2F80620FFF72F
:1011400097FA04462A2C02D0204684E701E0204684
:1011500081E7252420467EE794000020480D0020EA
:101160000149886370470000008001400149086020
:1011700070470000A000304201490860704700003D
:101180008C05304200210A4B02685A6242689A621A
:101190001A46D16A21F0F701D0E902231A43036904
:1011A0001A4343691A431143014AD1627047000050
:1011B0000080014000200649086048608860C860DF
:1011C00048628862C862034888630020C863704729
:1011D00000800140FF07C00001480069C0B27047AD
:1011E0000080014001460020034A526B0A400AB1C8
:1011F000012000E0002070470080014002480068A4
:1012000000F00300704700000080014008B501466F
:10121000002000900248084400900098006808BD33
:101220001480014029B1064AD26B0243044BDA63B1
:1012300004E0034AD26B8243014BDA63704700003B
:101240000080014000210A4A516847F6FF6291433D
:10125000027D83681A4343681A43C3681A430368CC
:101260001A4303691A431143014A51607047000051
:101270000080014001480068704700008080014004
:101280000021094B02689A601A46D1686FF30A017F
:10129000D0E901231A43C3681A4303691A4311436F
:1012A000014AD1607047000000800140054909688B
:1012B00021F00301034A11601146096801431160DE
:1012C000704700000080014001490860704700003D
:1012D0008080014010B50248FFF734FB10BD0000CC
:1012E0000020001070B504462A2522480068032813
:1012F00002D12725284670BD1E48006838B11D4818
:101300000068012803D01B480068022830D1B4F5DA
:10131000805F02D127252846EDE7B4F5006F15D18F
:101320000120FFF78BFE05462A2D21D1012012490D
:10133000087500200860486088604FF40060C8604D
:10134000002008610846FFF77DFF11E00020FFF74D
:1013500075FE05462A2D0BD101200749087500208E
:10136000086048608860C86008610846FFF76AFF47
:101370002846C0E790000020300D002030B501461F
:101380002A200022AC4B1B7881F84E30AB4B1B88D7
:10139000A1F84C30AA4B1B681A0E93090B70C2F3CC
:1013A00083034B7002F003038B70A54B1B68C3F3E0
:1013B0000742CA70A24B1B88C3F307220A71A04BD5
:1013C0001A784A715B681A0E1301CB809C4B5B68DC
:1013D000C3F30742CB8843EA1213CB8002F00F031A
:1013E0000B72974B9B88C3F30722D3094B72C2F34E
:1013F00080138B72C2F34013CB72C2F300130B73D2
:1014000000234B738C4B1B681BB18B4B1B68012B50
:101410003CD193071B0D0B61894B1A790B6943EA89
:1014200082030B61864B9B681A0E0B6943EA921389
:101430000B61C2F3C2030B7502F007034B75804BBF
:101440009B68C3F3074253098B75C2F38203CB75C4
:1014500093075B0F0B767A4B1B89C3F307220B7E36
:1014600043EAD2130B760B695B1C4B640C7E4B6C0E
:10147000A41C0125A5406B434B640C7A0123A340B7
:101480008B64D1E9113463434B6421E06A4B1B68E0
:10149000022B1DD16A4B1A7993069B0A0B61684B8C
:1014A0009B681A0E0B6943EA02230B61644B9B682D
:1014B000C3F307420B6913430B61614B1B89C3F3F1
:1014C00007220B695B1CDB044B644FF400738B64D5
:1014D000C2F3801301F8193F93065B0E4B70584B13
:1014E0001A7A4B7843EAD2134B7002F07F038B7069
:1014F000534BDB681A0ED309CB70C2F341130B7147
:10150000C2F382034B7193071B0F8B714C4BDB684B
:10151000C3F307428B7943EA92138B71C2F34013F2
:10152000CB7100230B7202F001034B72444B9B8979
:10153000C3F30722D3098B72C2F38013CB72C2F3B9
:1015400040130B73C2F300134B73C2F381038B730D
:1015500002F00303CB733A4B1A7B53080B7401233D
:101560004B74384B1B681A0ECA741939354B1B68FB
:10157000C3F307421402CC85324B1B88C3F3072206
:10158000CB8D1343CB852F4B1A7814060C635B6805
:101590001A0E0B6B43EA02440C632A4B5B68C3F3DD
:1015A00007420B6B43EA02240C63264B9B88C3F370
:1015B00007220B6B13430B63224B1A7934235A54C3
:1015C000204B9B681A0E35235A541E4B9B68C3F35D
:1015D000074214068C631B4B1B89C3F307228B6BDA
:1015E00043EA02448C63174B1A7A8B6B43EA02245A
:1015F0008C63144BDB681A0E8B6B13438B63114B9C
:10160000DB68C3F307423C235B5C43EA12143C23D0
:101610005C5413071C0DCC870A4B9B89C3F307222C
:10162000CB8F1343CB87074B1A7B540840235C5462
:10163000012441235C5430BD900000209400002020
:10164000C00C0020D00C002010B52A2400F042F974
:10165000FFF7B0FD00F072F904462A2C01D02046B5
:1016600010BD00F033F804462A2C01D02046F7E7DD
:101670000120144908750020086048608860C8602F
:1016800008610846FFF7DEFD2A2C03D10E48FFF75C
:1016900075FE04462A2C06D10B49B1F84C100804FB
:1016A00000F0CCFC04462A2C04D14FF40060FFF774
:1016B00019FE04462A2C03D1002000F0D9FC044670
:1016C0002046CDE7300D0020E00C002038B52A245C
:1016D00001200090FFF792FD10B92524204638BD67
:1016E00045480068042829D00020444908600220A9
:1016F0004860C02088600020C8604FF480600861A6
:101700000846FFF7BDFDFFF74DF804462A2C01D02F
:101710002046E4E70020FFF779FD394908600420FE
:10172000FFF774FD364948600820FFF76FFD344924
:1017300088600C20FFF76AFD3149C8602E480068B8
:1017400058B12D480068012807D02B4800680628AA
:1017500003D029480068022817D1002027490860D3
:1017600003204860402088600020C8604FF48060FB
:1017700008610846FFF784FD69460320FFF754F827
:1017800004462A2C01D02046A9E71B4800680428FB
:101790002FD0BDF800001B490860BDF80000000410
:1017A0001649086009204860C02088600020C86091
:1017B0004FF4806008610846FFF762FDFEF7F2FF14
:1017C00004462A2C01D0204689E70020FFF71EFDA1
:1017D0000D4908600420FFF719FD0B4948600820F7
:1017E000FFF714FD084988600C20FFF70FFD06493C
:1017F000C8602A24204672E790000020480D00208F
:10180000D00C002094000020C00C002030B58BB01C
:1018100005460C461348FFF77BF800211248FFF7F6
:1018200085F812480090019500200290A0080390CE
:101830000020049080200590800006908000079092
:10184000002008904FF40050099000200A9069464B
:101850000548FFF78DF801210348FFF767F80BB043
:1018600030BD000000F000104404024080800140C0
:1018700030B58BB005460C461348FFF749F80021F8
:101880001248FFF753F8124800900195102002907B
:10189000A00803900020049080200590800006900E
:1018A00080000790002008904FF40050099000201D
:1018B0000A9069460548FFF75BF801210348FFF7E6
:1018C00035F80BB030BD000000F0001044040240B9
:1018D0008080014008B50121B020FFF735FB4FF4AF
:1018E000F850ADF8000003208DF8020018208DF8A4
:1018F000030069460E48FFF765F90420ADF80000C3
:1019000069460C48FFF75EF94FF40060ADF800003F
:1019100048208DF8030069460748FFF753F9012175
:101920008802FFF7F1FA01210220FFF7EDFA08BD66
:101930000010014000140140001C01402DE9F0415D
:101940002A240026002500274FF00008B2205B491A
:1019500008750020086048608860C8600861084613
:10196000FFF770FC0320FFF7A1FC0120FFF7FEFB4F
:1019700000205349086048608860C8604FF4806068
:1019800008610846FFF77CFCFEF75CFE04462A2C43
:1019900002D02046BDE8F0814FF4D5704849086078
:1019A00008204860402088600020C8604FF48060B4
:1019B00008610846FFF764FCFEF784FF04462A2C02
:1019C00005D101203F4908604FF0804812E0002017
:1019D0003B49086037204860402088600020C8608C
:1019E0004FF4806008610846FFF74AFC3720FEF795
:1019F0003FFE0446002032490860372048604020FE
:101A000088600020C8604FF4806008610846FFF7D6
:101A100037FC3720FEF72CFE04462A2C4CD138E048
:101A20000020274908603720486040208860002057
:101A3000C8604FF4806008610846FFF721FC37203A
:101A4000FEF716FE04462A2C01D02046A2E71E48C7
:101A500048EA00001A490860292048604020886050
:101A60000020C8604FF4806008610846FFF708FC5A
:101A7000FEF7BEFE04462A2C01D020468AE700204D
:101A8000FFF7C4FB0646012080EAD67080F001070C
:101A90006D1C1FB94FF6FF708542C1D34FF6FF7022
:101AA000854202D31B24204674E706F08040061EC0
:101AB00002D002200349086020466BE7300D002069
:101AC000480D002090000020000010802DE9F04714
:101AD00006460F4614464FF02A084FF000093546D7
:101AE0004FF0000A26B94FF026084046BDE8F087BF
:101AF0002A208A49087000208949086089490860BD
:101B000089488A490860002048608860C860086188
:101B100048610846FFF736FB0020FFF72DFB002049
:101B2000FFF774FB00F0007018B14FF00E0840464C
:101B3000DCE77F480068022801D104027F0A002CFC
:101B400021DDB4F5006F1EDC601E2040D8B92046B0
:101B500001F08DFA8246774804601020754948608C
:101B6000402088600020C8604FF48060086108460B
:101B7000FFF786FB1020FEF77BFD8046B8F12A0FA9
:101B800005D04046B2E74FF026084046AEE766482B
:101B900066490860084644604FEA0A1088600220DF
:101BA000C86000200861012048610846FFF7EAFA92
:101BB0005C480460002060490860604806605D4839
:101BC000076011205B494860402088600020C860A1
:101BD0004FF4806008610846FFF752FB1120FEF7C2
:101BE00047FD8046B8F12A0F01D040467EE75448B1
:101BF0000068022857D111E04FF40040FFF7F2FAD5
:101C000060B14FF0000905E0FFF734FB45F829000B
:101C100009F10109B9F1080FF6D320354948406BA5
:101C200040F22A6108400028E6D00820FFF7DAFADF
:101C300030B10820FFF794FA4FF00408404655E70A
:101C40000220FFF7CFFA30B10220FFF789FA4FF0F8
:101C5000020840464AE72020FFF7C4FA30B12020AE
:101C6000FFF77EFA4FF0060840463FE74FF400705A
:101C7000FFF7B8FA38B14FF40070FFF771FA4FF080
:101C80000708404632E703E0FFF7F4FA28602D1D0D
:101C90004FF40010FFF7A6FA0028F5D140F2FF50EC
:101CA000FFF75EFA38E026480068012813D10121C9
:101CB00048F22A30FFF7B6FA00BF1948006818B991
:101CC000164800782A28F8D0144800782A2823D00B
:101CD000124800780AE71A480068E8B9012140F282
:101CE0002A30FFF79FFA0120FFF746FA21463046D7
:101CF000FFF78CFD00BFFFF7EDFA30B90848006828
:101D000018B9064800782A28F5D0044800782A280F
:101D100002D002480078E9E64046E7E6AC00002041
:101D2000B00000209C000020FFFF0F005C0D002091
:101D300090000020480D0020A0000020A8000020F6
:101D400098000020008001402DE9F05F0746894699
:101D500014461D464FF02A084FF0000A3E464FF049
:101D6000000B27B94FF026084046BDE8F09F2A2017
:101D7000A74908700020A7490860A7490860A7483C
:101D8000A7490860002048608860C8600861486111
:101D90000846FFF7F7F90020FFF7EEF90020FFF7FC
:101DA00035FA00F0007018B14FF00E084046DCE73D
:101DB0009C480068022802D104024FEA5929002CED
:101DC00021DDB4F5006F1EDC601E2040D8B920462E
:101DD00001F04DF983469448046010209249486010
:101DE000402088600020C8604FF480600861084689
:101DF000FFF746FA1020FEF73BFC8046B8F12A0FA9
:101E000005D04046B1E74FF026084046ADE7012D2A
:101E100070D905FB04F0B0F1007F03D34FF0260822
:101E20004046A2E705FB04F07B49086001207F499A
:101E300008607F48076079487949086005FB04F02D
:101E400048604FEA0B1088600220C86000200861DB
:101E5000012048610846FFF795F97348C0F80090E3
:101E6000122071494860402088600020C8604FF40B
:101E7000806008610846FFF703FA1220FEF7F8FBBE
:101E80008046B8F12A0F01D040466EE769480068E5
:101E900002287BD111E04FF40040FFF7A3F960B1B5
:101EA0004FF0000A05E0FFF7E5F946F82A000AF1CD
:101EB000010ABAF1080FF6D320365F48406B40F2B2
:101EC0002A3108400028E6D00820FFF78BF930B10E
:101ED0000820FFF745F94FF00408404645E7022087
:101EE000FFF780F938B10220FFF73AF94FF0020806
:101EF00040463AE78AE02020FFF774F930B120200D
:101F0000FFF72EF94FF0060840462EE74FF4007019
:101F1000FFF768F938B14FF40070FFF721F94FF07F
:101F20000708404621E703E0FFF7A4F93060361DBB
:101F30004FF40010FFF756F90028F5D14FF48070E8
:101F4000FFF750F918B33748006838B135480068D2
:101F5000022803D033480068012818D100203249F4
:101F600008600C204860402088600020C8604FF462
:101F7000806008610846FFF783F90C20FEF778FBC4
:101F80008046B8F12A0F02D04046EEE604E040F267
:101F9000FF50FFF7E5F839E026480068012813D123
:101FA000012148F22A30FFF73DF900BF19480068C7
:101FB00018B9174800782A28F8D0154800782A2838
:101FC00024D013480078D0E61A480068F0B90121FF
:101FD00040F22A30FFF726F90120FFF7CDF805FB84
:101FE00004F13846FFF712FC00BFFFF773F930B970
:101FF0000848006818B9064800782A28F5D004482F
:1020000000782A2802D002480078AEE64046ACE6C6
:10201000AC000020B00000209C000020FFFF0F005B
:102020005C0D002090000020480D0020A000002042
:10203000A8000020980000200080014070B50446F0
:102040002A250A4804600720084948604020886023
:102050000020C8604FF4806008610846FFF710F95F
:102060000720FEF705FB0546284670BD480D0020F9
:1020700001462A2019B1012901D0022902D1024AC0
:10208000116000E026207047980000202DE9FF5FD6
:1020900081468A4614462A250020039002908346F2
:1020A0000026019000270090C846B9F1000F04D126
:1020B0002625284604B0BDE8F09F2A20C2490870B2
:1020C0000020C2490860C2490860C248C24908608D
:1020D000002048608860C860086148610846FFF7D2
:1020E00051F80020FFF748F80020FFF78FF800F0C4
:1020F000007010B10E252846DCE7B84800680228B9
:1021000002D104024FEA5A2A002C20DDB4F5006FF8
:102110001DDC601E2040D0B9204600F0A8FF0390CF
:10212000AF4804601020AE4948604020886000201D
:10213000C8604FF4806008610846FFF7A1F81020DE
:10214000FEF796FA05462A2D04D02846B2E7262542
:102150002846AFE7A34800880004A14908600D2085
:102160004860402088600020C8604FF480600861AB
:102170000846FFF785F80D20FEF77AFA05462A2D66
:1021800001D0284696E70020FFF740F80190DFF8DD
:1021900044B21EE0ABF1010B924800880004904964
:1021A00008600D204860402088600020C8604FF41F
:1021B000806008610846FFF763F80D20FEF758FAC3
:1021C00005462A2D01D0284674E70020FFF71EF8A7
:1021D0000190019800F4807010B9BBF1000FD9D1C3
:1021E000BBF1000F01D1292064E77D48C0F800A0B1
:1021F00018207B494860402088600020C8604FF468
:10220000806008610846FFF73BF81820FEF730FAB7
:1022100005462A2D01D028464CE76D480460002071
:10222000714908607148C0F800906A486A490860BE
:10223000084644600398000188600020C860086177
:10224000012048610846FEF79DFF694800680228A2
:1022500066D134E04FF48040FEF7C4FF78B35C48A9
:102260000068801B20281ED259480078801B00F08F
:10227000030020B956480068801B800804E05448D9
:102280000068801B8008401C0090002707E0D8F8F9
:102290000000FFF719F87F1C08F10408361D0098AC
:1022A00087420CD2F3E7002704E058F82700FFF735
:1022B0000BF87F1C082FF8D308F1200820364D4872
:1022C000406B40F21A6108400028C3D00820FEF796
:1022D00089FF28B10820FEF743FF04252846E9E6D8
:1022E0000220FEF77FFF28B10220FEF739FF02250A
:1022F0002846DFE61020FEF775FF28B11020FEF714
:102300002FFF05252846D5E64FF40070FEF76AFF3B
:10231000F0B34FF40070FEF723FF07252846C9E607
:1023200033480068012813D1012144F21A30FEF726
:1023300079FF00BF2548006818B9234800782A288B
:10234000F8D0214800782A2825D01F480078B1E627
:1023500027480068E0B9012140F21A30FEF762FF19
:1023600021464846FFF784FA0120FEF705FF00BF2B
:10237000FEF7B0FF30B91548006818B91248007868
:102380002A28F5D0104800782A2804D00E4800E00A
:1023900001E000788EE640F2FF50FEF7E1FE02A871
:1023A000FEF79EFC054603E002A8FEF799FC0546F1
:1023B0002A2D07D19DF808000728F5D09DF80800C0
:1023C0000628F1D0284675E6AC000020B0000020B9
:1023D0009C000020FFFF0F005C0D002090000020FB
:1023E000480D002094000020A0000020A400002040
:1023F00098000020008001402DE9FE4F81468A466A
:1024000014461E462A254FF0000B0020029000279C
:102410000190C8460090B9F1000F03D12625284647
:10242000BDE8FE8F2A20EC4908700020EB490860C7
:10243000EB490860EB48EC49086000204860886080
:10244000C860086148610846FEF79CFE0020FEF760
:1024500093FE0020FEF7DAFE00F0007010B10E25AA
:102460002846DDE7E1480068022802D104024FEA6D
:102470005A2A002C20DDB4F5006F1DDC601E2040C0
:10248000D0B9204600F0F3FD8346D94804601020FF
:10249000D7494860402088600020C8604FF48060C1
:1024A00008610846FEF7ECFE1020FEF7E1F805464D
:1024B0002A2D04D02846B3E726252846B0E7CD4884
:1024C00000880004CA4908600D20486040208860E8
:1024D0000020C8604FF4806008610846FEF7D0FE17
:1024E0000D20FEF7C5F805462A2D01D0284697E7AE
:1024F000012E7AD906FB04F0B0F1007F02D3262525
:1025000028468DE7B948006838B1B8480068012806
:1025100003D0B648006802282FD1B64800880004CE
:10252000B349086037204860402088600020C860B8
:102530004FF4806008610846FEF7A2FE3720FEF7E0
:1025400097F805462A2D01D0284669E7A848066075
:102550001720A7494860402088600020C8604FF4D9
:10256000806008610846FEF78BFE1720FEF780F8B2
:1025700005462A2D01D0284652E79D48C0F800A004
:1025800019209B494860402088600020C8604FF4B3
:10259000806008610846FEF773FE1920FEF768F8B0
:1025A00005462A2D01D028463AE706FB04F08C495F
:1025B00008600120904908609048C0F80090894860
:1025C0008949086006FB04F048604FEA0B108860F8
:1025D0000020C8600861012048610846FEF7D2FD6E
:1025E00087480068022870D13EE0D1E04FF4804077
:1025F000FEF7F8FDC0B37A480068C01B202811D34D
:102600000020009007E0009958F82100FEF75CFEDA
:102610000098401C009000980828F4D308F1200886
:10262000203721E06E480078C01B00F0030020B97D
:102630006B480068C01B800804E069480068C01B44
:102640008008401C01900020009009E0D8F80000AC
:10265000FEF73AFE0098401C009008F104083F1D68
:10266000DDE900108142F1D36648406B40F21A3137
:1026700008400028BAD00820FEF7B4FD28B1082091
:10268000FEF76EFD04252846CAE60220FEF7AAFDE5
:1026900028B10220FEF764FD02252846C0E610207E
:1026A000FEF7A0FD28B11020FEF75AFD05252846AB
:1026B000B6E64FF40070FEF795FD38B14FF40070A8
:1026C000FEF74EFD07252846AAE627E04FF4807066
:1026D000FEF788FD00285BD04448006838B14348C5
:1026E0000068012803D041480068022850D100202A
:1026F0003F4908600C204860402088600020C86086
:102700004FF4806008610846FEF7BAFD0C20FDF723
:10271000AFFF05462A2D3BD0284681E638480068A1
:10272000012813D1012144F21A30FEF77BFD00BFCE
:102730002A48006818B9284800782A28F8D026487E
:1027400000782A2824D02448007869E62C480068BC
:10275000F0B9012140F21A30FEF764FD0120FEF7C6
:102760000BFD06FB04F14846FFF782F800BFFEF7B9
:10277000B1FD30B91948006818B9174800782A28FF
:10278000F5D0154800782A2802D01348007847E68B
:1027900040F2FF50FEF7E4FC0020009002E00098B9
:1027A000401C00904FF6FF7100988842F7D302A8B2
:1027B000FEF796FA054603E002A8FEF791FA0546F1
:1027C0002A2D07D19DF808000728F5D09DF80800AC
:1027D0000628F1D0284623E6AC000020B0000020F7
:1027E0009C000020FFFF0F005C0D002090000020E7
:1027F000480D002094000020A0000020A40000202C
:10280000980000200080014010B50446E1B206485F
:1028100000F052FA00BF4021034800F0AFF9012850
:10282000F9D1204610BD00000038014010B500F07D
:1028300001F810BD0CB500200190009033480068ED
:1028400040F480303149086000BF3048006800F42F
:10285000003000900198401C0190009818B9019830
:10286000B0F5A06FF1D12948006800F4003010B134
:102870000120009001E0002000900098012843D141
:102880002348006840F010002149086008460068AD
:1028900020F0030008600846006840F0020008606D
:1028A0001A48406819494860084640684860084628
:1028B000406840F4806048600846406820F47C101E
:1028C00048600846406840F4E810486008460068E0
:1028D00040F08070086000BF0C48006800F0007095
:1028E0000028F9D00948406820F0030007494860F3
:1028F0000846406840F00200486000BF0348406856
:1029000000F00C000828F9D10CBD000000100240B6
:102910000020024010B51348006840F00100114942
:10292000086008464068104908400E49486008465B
:1029300000680E4908400B4908600846006820F40A
:10294000802008600846406820F4FE0048604FF48C
:102950001F008860FFF76AFF4FF0006004490860BD
:1029600010BD0000001002400000FFF8FFFFF6FE5F
:1029700008ED00E010B50121880700F034F840B1FF
:102980000121880700F020F802480068401C014936
:10299000086010BD0C00002008B54FF4E060FEF7A1
:1029A000A9FA1C208DF8000000208DF801000320FA
:1029B0008DF8020001208DF803006846FEF762FAE8
:1029C00008BDCA4302827047CA430282704721B1E0
:1029D000028842F00102028004E002884FF6FE7392
:1029E0001A400280704730B50246002000230024C0
:1029F000158A05EA0103958905EA010413B10CB1B2
:102A0000012000E0002030BD1AB183890B4383818F
:102A100002E083898B438381704700000022028893
:102A20001D4B98420ED01D4B98420BD0B0F1804FF9
:102A300008D01B4B984205D01A4B984202D01A4B33
:102A4000984204D14FF68F731A404B881A43174BA4
:102A5000984207D0164B984204D04FF6FF431A40D5
:102A6000CB881A4302808B8883850B8803850A4BA9
:102A700098420BD0094B984208D00E4B984205D093
:102A80000D4B984202D00D4B984201D10B7A038630
:102A90000123838270470000002C01400034014074
:102AA0000004004000080040000C004000100040FE
:102AB0000014004000400140004401400048014033
:102AC0000EB501210846FEF72FFA4FF47A70ADF8E3
:102AD00004004720ADF800000020ADF80600ADF876
:102AE000020069464FF08040FFF798FF01218807F8
:102AF000FFF767FF012211469007FFF785FF0121CD
:102B00008807FFF764FF00210120FEF70DFA0EBDD4
:102B100021B1828942F40052828104E082894DF61B
:102B2000FF731A408281704710B54FF4E1301049AD
:102B30000860002088810C20488100200881C8801E
:102B400088800C4800F04CF801210A48FFF7E0FFAC
:102B50000749094800F044F801210748FFF7D8FF6A
:102B6000012240F22551034800F015F810BD000085
:102B7000C00000200038014000480040024600200C
:102B8000B1F5007F00D100BF13880B400BB10120CD
:102B900000E000207047F0B5034600240026002521
:102BA000002040F66A17B94200D100BF1846C1F3B1
:102BB000421401F01F06012707FA06F5012C01D186
:102BC0000C3004E0022C01D1103000E014301AB1B6
:102BD00007682F43076002E00768AF430760F0BD56
:102BE0002DE9F04786B005460E460024A24600BFF8
:102BF000A1460027B08900B100BF2F462C8A4CF6B1
:102C0000FF700440F08804432C82AC894EF6F31028
:102C10000440B08831890843718908430443AC817A
:102C2000AC8A4FF6FF400440B0890443AC8201A84F
:102C3000FEF79AF91F48874202D1DDF810A001E0A3
:102C4000DDF80CA0A88900F4004040B10AEBCA00EE
:102C500000EB0A1031684900B0FBF1F807E00AEB1D
:102C6000CA0000EB0A1031688900B0FBF1F864205B
:102C7000B8FBF0F004012009642101FB1089A88948
:102C800000F4004040B1322000EBC900B0FBF1F08D
:102C900000F00700044308E0322000EB0910642133
:102CA000B0FBF1F000F00F0004432C8106B0BDE84A
:102CB000F087000000380140C1F3080282807047AD
:102CC00000BFFEE700BFFEE770B504460D46607822
:102CD00001232A4604F1300100F035FC08B103203D
:102CE00070BD94F82E1294F82F0241EA00204AF6A3
:102CF0005521884201D00220F2E794F869000106CC
:102D000094F8680041EA004194F8670041EA002025
:102D100094F86610084320F07F400E49884201D1A4
:102D20000020DDE794F88500010694F8840041EA6C
:102D3000004194F8830041EA002094F8821008438F
:102D400020F07F400349884201D10020C8E70120DC
:102D5000C6E7000046415400024600E0521C1078CD
:102D600010B110788842F9D1107870472DE9F74FEB
:102D700082B00298D0F800B09BF80000A0F13009B2
:102D8000B9F1090F09D89BF801003A2805D10BF1D8
:102D9000020B0298C0F800B001E04FF00009B9F151
:102DA000000F03D00B2005B0BDE8F08FA54850F808
:102DB0002940039804600CB90C20F4E7207878B11E
:102DC000607800F0E5FB804608F0010040B9049807
:102DD00020B108F0040008B10A20E4E70020E2E78F
:102DE0000020207084F80190607800F093FB80460A
:102DF00008F0010008B10320D5E7049820B108F0DD
:102E0000040008B10A20CEE74FF0000A51462046E0
:102E1000FFF75AFF0546012D13D104F5F7773879EE
:102E200078B1F87A0106B87A41EA0041787A41EA45
:102E30000020397A40EA010A51462046FFF744FF54
:102E40000546032D01D10120ADE745B93B20015DC9
:102E500094F83C0041EA0020B0F5007F01D00D203D
:102E6000A1E74620015D94F8470041EA002676B9C3
:102E700094F85700010694F8560041EA004194F88E
:102E8000550041EA002094F8541040EA0106A6617A
:102E90004020005DE070E07846433E20015D94F8FC
:102EA0003F0041EA0020504420623D20005DA070B8
:102EB0004120015D94F8420041EA00202081432036
:102EC000015D94F8440041EA00200190019870B936
:102ED00094F85300010694F8520041EA004194F836
:102EE000510041EA002094F85010084301903E2020
:102EF000015D94F83F0041EA00210198401A801BCF
:102F00002189A0EB1110A178B0FBF1F0801C00909A
:102F1000E061012540F6F7710098884200D3022550
:102F20004FF6F7710098884200D30325032D0FD187
:102F300094F85F00010694F85E0041EA004194F8BD
:102F40005D0041EA002094F85C100843606202E0F2
:102F5000206A30446062206A3044218900EB1110FD
:102F6000A0624FF0FF30206100202071032D5CD162
:102F7000607194F8601094F8610041EA00205044B8
:102F800060616078012304F13001626900F0DBFACE
:102F9000F0BB94F82E1294F82F0241EA00204AF672
:102FA0005521884241D13320005D01063220005D69
:102FB00041EA00413120005D41EA002094F83010E0
:102FC00008432149884230D194F81702010694F849
:102FD000160241EA004194F8150241EA002094F8F3
:102FE00014120843194988421FD194F81F020106A0
:102FF00094F81E0241EA004194F81D0241EA0020C3
:1030000094F81C120843E06094F81B02010600E0EB
:103010000BE094F81A0241EA004194F8190241EADF
:10302000002094F818120843206125700020E06207
:1030300007480088401C80B205490880E0800020D5
:10304000B1E60000B8000020525261417272416145
:10305000BC0000200246891ED069801E884201D82B
:10306000002070479378906A01FB0300F9E701465E
:10307000002002E04910421CD0B20129FAD1704769
:103080002DE9F04705468846D5F81C90B8F1000FA9
:1030900005D1EE680EB14E4510D301260EE0414633
:1030A000284600F080FB0746022F02D20120BDE82F
:1030B000F0874F4501D23846F9E74646344600BF0F
:1030C000641C4C4504D30224B44201D90020EEE72D
:1030D0002146284600F067FB074607B909E0781C3F
:1030E00008B1012F01D13846E1E7B442E8D1002010
:1030F000DDE700BF6FF070422146284600F048FD32
:1031000010B14FF0FF30D2E7B8F1000F08D02246DF
:103110004146284600F03CFD10B14FF0FF30C6E7B5
:10312000EC602869401C20B12869401E28610120FC
:1031300068712046BBE700002DE9F35F00988669BF
:103140000B222021304600F0C5FC002005468046B9
:1031500082464FF008090198D0F800B000BF5046F1
:103160000AF1010A1BF80040202C03DD2F2C01D0AE
:103170005C2C00D156E02E2C01D0C8450EDBB9F1F5
:10318000080F01D12E2C02D00620BDE8FC9F4FF085
:1031900008084FF00B09A806050EE0E7802C01DBBC
:1031A00045F00305812C01DB9F2C03DDE02C1DDBAA
:1031B000FC2C1BDC50460AF1010A1BF80070402F62
:1031C00001DB7E2F03DD802F05DBFC2F03DCA9F163
:1031D0000100404501DC0620D7E7404608F1010820
:1031E0003454404608F1010837541AE0214622A021
:1031F000FFF7B2FD08B10620C7E7412C04DB5A2CCB
:1032000002DC45F0020508E0612C06DB7A2C04DCC8
:1032100045F00105A4F12000C4B2404608F10108C0
:1032200034549CE700BF0BEB0A0101980160202C8D
:1032300001DC042000E000200446B8F1000F01D1B9
:103240000620A2E73078E52801D105203070B9F1D9
:10325000080F01D1A806050E05F00300012801D1D1
:1032600044F0100405F00C00042801D144F00804D7
:10327000F472002089E7000020222A2B2C5B3D5DA0
:103280007C7F00002DE9F04104460021204600F03B
:10329000F3F8054615B12846BDE8F08100BF216965
:1032A000206800F021FC054605B116E06669377814
:1032B0000FB9042511E0F07A00F0080030B90B22B4
:1032C0003046A16900F0E6FB00B906E00021204687
:1032D00000F006F80546002DE1D000BF2846DBE7E8
:1032E0002DE9F04104468846E088401C86B20EB1C4
:1032F000206910B90420BDE8F08106F00F00002815
:103300006FD12069401C2061E06828B920680089DD
:10331000B04266DC0420EEE720688078401E00EAB8
:10332000161000285DD1E168206800F03CFA0546DF
:10333000012D01D80220DEE7681C08B90120DAE778
:103340002068C069A84246D8B8F1000F01D1042016
:10335000D1E7E1682068FFF793FE05460DB9072025
:10336000C9E7012D01D10220C5E7681C08B9012079
:10337000C1E70021206800F0B7FB08B10120BAE7DF
:10338000216801F130004FF40072002100F0A2FB2F
:1033900029462068FFF75EFE2168C862002710E01A
:1033A0000120216808710021206800F09DFB08B110
:1033B0000120A0E72068C06A401C2168C862781C10
:1033C000C7B220688078B842EADC2068C06AC01BB7
:1033D0002168C86200BFE56029462068FFF73AFE11
:1033E0002061E6802068303006F00F0100EB4110CC
:1033F000606100207FE72DE9F041044604251BE0D1
:103400002169206800F070FB054605B117E0676987
:103410003E780EB9042512E0E52E06D02E2E04D0FB
:10342000F87A00F0080000B909E000212046FFF713
:1034300057FF054605B102E020690028E0D100BF32
:103440000DB1002020612846BDE8F08170B504462A
:10345000E188204600F010F805465DB92169206832
:1034600000F042FB05462DB9E52061690870012096
:1034700021680871284670BD2DE9F04104460E46CA
:10348000E680A568012D03D02068C069A84202D853
:103490000220BDE8F0812DB920680078032801D111
:1034A0002068456A65B9E56020680089B04201DCA2
:1034B0000220EEE72068406A00EB1610206120E051
:1034C00020688078070112E02946206800F06BF937
:1034D0000546681C08B90120DBE7022D03D32068EC
:1034E000C069A84201D80220D3E7F01B86B2BE42D1
:1034F000EADAE56029462068FFF7ACFD00EB16101C
:1035000020612068303006F00F0100EB411060614F
:103510000020BEE710B50446FEF796F82A2804D12D
:1035200003A0FCF7C9FE002010BD0120FCE700004D
:10353000496E697420737563636573730A000000D4
:103540000346002070472DE9F04106460F46144619
:103550001D464FF02A0806B915B90420BDE8F081D0
:10356000012D06D161026A023846FEF7AFFA8046A5
:1035700007E061022B464FF400723846FEF7E4FB89
:103580008046B8F12A0F01D10020E7E70120E5E7E6
:1035900010B5044624B103A0FCF78EFE012010BD37
:1035A0000020FCE74F6E6C7920737570706F727439
:1035B0002064727620300A002DE9F04106460F465D
:1035C00014461D464FF02A0806B915B90420BDE877
:1035D000F081012D06D161026A023846FEF756FDE0
:1035E000804607E061022B464FF400723846FEF732
:1035F00003FF8046B8F12A0F01D10020E7E7012040
:10360000E5E700000246012A01DB0B20704707486E
:1036100050F822300BB10020187009B1002008705A
:10362000024840F822100020F0E70000B800002017
:1036300071B591B001220AA911A8FFF797FB0446C2
:1036400014B1204612B070BDCDF840D00AA811992F
:1036500000F04FF8044600BF0CB12046F2E70F9D82
:103660000DB90620EEE7E87A00F0010008B1072066
:10367000E8E7A97EE87E41EA00212A7D687D42EAEA
:10368000002041EA0046E87A00F01000D8B1022E8E
:1036900001D20220D6E71C220AA903A800F00DFAE5
:1036A0000596022103A8FFF7E7FE04460CB1204669
:1036B000C8E703A8FFF79FFE044604B90724042CBB
:1036C00001D02046BEE70AA8FFF7C0FE044654B961
:1036D00026B131460A9800F0FEFA04461CB90A9851
:1036E00000F02DFB04462046ACE701464FF0FF30CA
:1036F00070472DE9F341044602E00198401C019017
:10370000019800782028F8D0019800782F2803D05D
:10371000019800785C2802D10198401C019000209B
:10372000A06001980078202807D200212046FFF7EA
:10373000A3FE0646002060612BE000BF01A92046E1
:10374000FFF7FAFC064606B122E02046FFF79AFD95
:103750000646A069C07A00F0040726B1042E01D104
:1037600007B9052614E007B112E06569E87A00F0B0
:10377000100008B905260BE0A97EE87E41EA002189
:103780002A7D687D42EA002041EA0040A060D5E73A
:1037900000BF3046BDE8FC8170B504460D462046AA
:1037A000FFF732F870BD2DE9F04105460C46022CBA
:1037B00002D3E869A04202D80120BDE8F0812F6A57
:1037C0002878012804D002282AD0032870D140E0AC
:1037D000264606EB560607EB5621284600F084F9EC
:1037E00000B165E0C6F3080105F1300010F8018072
:1037F000761C07EB5621284600F076F900B157E019
:10380000C6F3080105F13000405C48EA002804F0E6
:10381000010010B14FEA1810CFE7C8F30B00CCE756
:1038200007EB1421284600F05FF900B140E040F2B8
:10383000FF1000EA440105F13000415C40F2FF1046
:1038400000EA440205F130001044407841EA0020CB
:10385000B3E707EBD411284600F046F900B127E0A2
:1038600040F2FF1000EA840105F130000844C078FE
:10387000010640F2FF1000EA840205F13000104416
:10388000807841EA004140F2FF1000EA840205F12D
:1038900030001044407841EA002040F2FF1101EA74
:1038A000840205F13001895C084320F0704084E710
:1038B00000BF4FF0FF3080E796B039A30FCBCDE9C2
:1038C0001423CDE9120100BF34216846FCF7C2FD84
:1038D000012144F20500FDF737FBFDF759F9FFF729
:1038E00023F933A13CA0FCF7E7FC0DA8FDF73CFB56
:1038F00000BFFFF751F8FFF7E3F841490D98B0FB1F
:10390000F1F421463FA0FCF7D7FC3D490E98B0FBEF
:10391000F1F4214643A0FCF7CFFC39490F98B0FBE6
:10392000F1F4214646A0FCF7C7FC35491098B0FBDE
:10393000F1F4214649A0FCF7BFFC4F490020FFF7F6
:1039400061FE4EA0FFF774FE00204F490860012180
:103950000846FDF7E9FA01218807FFF738F841F238
:103960008830FDF725F800214FF08040FFF72FF851
:1039700000210120FDF7D8FA012080F3138800BF51
:1039800000BF4248006800F4E06041490843001D60
:103990003E490860BFF34F8F00BF00BFFEE7000045
:1039A00068656C6C6F20746F6D3138380D0A0000DB
:1039B00053544D333246313033564554365F424FBF
:1039C0004F544C4F414445525F565F31305F323067
:1039D000313930393038000077656C636F6D6520A0
:1039E000746F20424F4F544C4F414445522C205647
:1039F000455253494F4E2069732025732E0D0A00FE
:103A000040420F000D0A535953434C4B5F467265B9
:103A10007175656E6379203D202564204D487A0AD2
:103A2000000000000D0A48434C4B5F4672657175FB
:103A3000656E6379203D202564204D487A0A000098
:103A40000D0A50434C4B315F4672657175656E636C
:103A500079203D202564204D487A0A000D0A504304
:103A60004C4B325F4672657175656E6379203D20FF
:103A70002564204D487A0A00C8090020746F6D5FE4
:103A80006D696E2E747874000C0000200CED00E05F
:103A90000000FA05F0B503461C460D46002000BFA5
:103AA000161EA2F1010207D014F8017B15F801CB14
:103AB000A7EB0C06301EF3D0F0BD70B503460C46E4
:103AC00003E014F8015B03F8015B151EA2F101028B
:103AD000F7D170BD30B5034601E003F8011B141E99
:103AE000A2F10102F9D130BD2DE9F04104460D46A5
:103AF000E66AAE422FD0207908B3607801233246BF
:103B000004F13001FFF758FD10B10120BDE8F0814C
:103B100000202071A169206A0844B0420FD9E778DB
:103B20000AE0A069064460780123324604F13001BE
:103B3000FFF742FD781EC7B2012FF2DC00BF55B17E
:103B4000607801232A4604F13001FFF7FCFC08B13C
:103B50000120DBE7E5620020D8E700000A49096898
:103B6000096809B9012100E0002121B14FF0FF31BE
:103B7000064A116006E004490968C968C868034A32
:103B80004168116070470000580000208400002048
:103B90002DE9F04705460C461646022C02D3E8698B
:103BA000A04201D8022793E0D5F820A02878012868
:103BB00004D0022841D003287DD157E0A04608EB6D
:103BC00058080AEB58212846FFF78EFF074607B131
:103BD0007BE0C8F3080105F1300001EB000904F0B7
:103BE000010028B1F1B299F8000061F31F1000E064
:103BF000304689F8000008F10108012028710AEB1D
:103C000058212846FFF770FF074607B15DE0C8F36B
:103C1000080105F1300001EB000904F0010010B1CA
:103C2000C6F3071006E099F8000000F0F000C6F3B4
:103C30000321084389F8000047E00AEB14212846D5
:103C4000FFF752FF074607B13FE040F2FF1000EADE
:103C5000440205F130008654310A40F2FF1000EAB8
:103C6000440205F13000104441702EE00AEBD411FB
:103C70002846FFF739FF074607B126E040F2FF105C
:103C800000EA840205F130008654310A40F2FF1048
:103C900000EA840205F1300010444170310C40F21A
:103CA000FF1000EA840205F1300010448170310EEB
:103CB00040F2FF1000E006E000EA840205F1300067
:103CC0001044C17001E0022700BF00BF012028712D
:103CD0003846BDE8F0872DE9F04104460E46022E35
:103CE00002D3E069B04201D8022725E000271FE097
:103CF00031462046FFF757FD054605B91BE0012D6B
:103D000001D1022717E0681C08B9012713E000223F
:103D100031462046FFF73CFF074607B10BE020691C
:103D2000401C20B12069401C2061012060712E469A
:103D3000E069B042DCD800BF3846BDE8F08170B51C
:103D4000044600212046FFF7CFFE0546002D59D13D
:103D5000207803284FD1607900284CD00020E06201
:103D60004FF40072002104F13000FFF7B3FE55213B
:103D700084F82E12AA2184F82F12522084F83000E1
:103D8000522131200155612132200155412133203A
:103D90000155722184F8141284F81512412184F817
:103DA0001612612184F81712217C84F81812208AD7
:103DB000010A84F819122069010C84F81A1220698A
:103DC000010E84F81B12217B84F81C12A089010AC1
:103DD00084F81D12E068010C84F81E12E068010EE0
:103DE00084F81F126078012304F130016269FFF743
:103DF000E3FB00206071607800221146FFF7A0FB12
:103E000000B10125284670BD01460A69D1E901309B
:103E10009860D1E9010358605068884201D18868F0
:103E20005060002008611068401E106010687047E4
:103E300042684A6093688B6093685960916008613A
:103E400003685B1C036070471248006818B10120CA
:103E5000114908601DE000200F4908600F48006804
:103E6000B0FA80F0C0F11F0101EB81020C4B03EBB3
:103E7000820042685268426000F10802436893423F
:103E800002D14268526842604268D268054B1A60AB
:103E900000BF70478C000020780000206C000020DC
:103EA000F80B00205400002010B500BFBF2080F3A5
:103EB0001188BFF34F8FBFF36F8F00BF00F00EF874
:103EC00018B14FF080500449086000BF002080F313
:103ED000118800BF10BD000004ED00E02DE9F041A5
:103EE00000273A480068002863D139480068451C1B
:103EF000374805608DB93748D0F8008036480068EB
:103F0000344908603448C0F8008034480068401CD8
:103F100032490860FFF722FE00BF31480068854241
:103F20003BD300BF2B480068006808B9012000E0BF
:103F3000002020B14FF0FF30294908602CE02548CF
:103F40000068C068C4686668B54202D2244806604A
:103F500022E0201DFFF758FFA06A18B104F11800F5
:103F6000FFF752FF94F82C10012088401D49096882
:103F700008431C490860E16A01EB81011A4A02EB1F
:103F80008100211DFFF754FF1849E06A0968C96ADA
:103F90008842C7D30127C5E700BF14480068C06A3C
:103FA00000EB8000104951F82000012800D90127BA
:103FB00004E00F480068401C0D4908600D48006887
:103FC00000B101273846BDE8F08100008C000020D8
:103FD00068000020580000205C0000207C000020C9
:103FE000840000206C000020F80B0020540000200A
:103FF000740000207800002044656C61795F6D7367
:1040000000746573743154696D65725F48616E64E4
:104010006C6543616C6C6261636B00646174615FC9
:10402000777269746500646174615F7265616400D0
:10403000446174615F7472616E736665720044619D
:1040400074615F7061636B00446174615F73656D7F
:1040500061006D61696E5F4672656552546F7300F1
:104060008040000800000020C00000006C01000833
:1040700040410008C000002018110000880100081D
:104080000000000000000000000000000000000030
:104090000000000000000000000000000000000020
:1040A0000000000000000000000000000000000010
:1040B00001000000010000000000000000000000FE
:1040C00000000000010203040102030406070809BE
:1040D00002040608000000000000000000000000CC
:1040E00000000000000000000000000000000000D0
:1040F00000000000000000000000000000000000C0
:1041000000000000000000000000000000000000AF
:10411000000000000000000002000000000000009D
:104120000000000000000000000000002A00000065
:10413000000000000000000000000000000000007F
:0400000508000131BD
:00000001FF
